{"abi":[{"type":"constructor","inputs":[{"name":"verifier","type":"address","internalType":"contract IRiscZeroVerifier"},{"name":"assessorId","type":"bytes32","internalType":"bytes32"}],"stateMutability":"nonpayable"},{"type":"function","name":"ASSESSOR_ID","inputs":[],"outputs":[{"name":"","type":"bytes32","internalType":"bytes32"}],"stateMutability":"view"},{"type":"function","name":"FULFILL_MAX_GAS_FOR_VERIFY","inputs":[],"outputs":[{"name":"","type":"uint256","internalType":"uint256"}],"stateMutability":"view"},{"type":"function","name":"MARKET_FEE_DENOMINATOR","inputs":[],"outputs":[{"name":"","type":"uint256","internalType":"uint256"}],"stateMutability":"view"},{"type":"function","name":"MARKET_FEE_NUMERATOR","inputs":[],"outputs":[{"name":"","type":"uint256","internalType":"uint256"}],"stateMutability":"view"},{"type":"function","name":"SLASHING_BURN_FRACTION_DENOMINATOR","inputs":[],"outputs":[{"name":"","type":"uint256","internalType":"uint256"}],"stateMutability":"view"},{"type":"function","name":"SLASHING_BURN_FRACTION_NUMERATOR","inputs":[],"outputs":[{"name":"","type":"uint256","internalType":"uint256"}],"stateMutability":"view"},{"type":"function","name":"UPGRADE_INTERFACE_VERSION","inputs":[],"outputs":[{"name":"","type":"string","internalType":"string"}],"stateMutability":"view"},{"type":"function","name":"VERIFIER","inputs":[],"outputs":[{"name":"","type":"address","internalType":"contract IRiscZeroVerifier"}],"stateMutability":"view"},{"type":"function","name":"VERSION","inputs":[],"outputs":[{"name":"","type":"uint64","internalType":"uint64"}],"stateMutability":"view"},{"type":"function","name":"acceptOwnership","inputs":[],"outputs":[],"stateMutability":"nonpayable"},{"type":"function","name":"addProverToAppnetAllowlist","inputs":[{"name":"prover","type":"address","internalType":"address"}],"outputs":[],"stateMutability":"nonpayable"},{"type":"function","name":"balanceOf","inputs":[{"name":"addr","type":"address","internalType":"address"}],"outputs":[{"name":"","type":"uint256","internalType":"uint256"}],"stateMutability":"view"},{"type":"function","name":"deposit","inputs":[],"outputs":[],"stateMutability":"payable"},{"type":"function","name":"eip712Domain","inputs":[],"outputs":[{"name":"fields","type":"bytes1","internalType":"bytes1"},{"name":"name","type":"string","internalType":"string"},{"name":"version","type":"string","internalType":"string"},{"name":"chainId","type":"uint256","internalType":"uint256"},{"name":"verifyingContract","type":"address","internalType":"address"},{"name":"salt","type":"bytes32","internalType":"bytes32"},{"name":"extensions","type":"uint256[]","internalType":"uint256[]"}],"stateMutability":"view"},{"type":"function","name":"eip712DomainSeparator","inputs":[],"outputs":[{"name":"","type":"bytes32","internalType":"bytes32"}],"stateMutability":"view"},{"type":"function","name":"fulfill","inputs":[{"name":"fill","type":"tuple","internalType":"struct Fulfillment","components":[{"name":"id","type":"uint256","internalType":"uint256"},{"name":"requestDigest","type":"bytes32","internalType":"bytes32"},{"name":"imageId","type":"bytes32","internalType":"bytes32"},{"name":"journal","type":"bytes","internalType":"bytes"},{"name":"seal","type":"bytes","internalType":"bytes"},{"name":"requirePayment","type":"bool","internalType":"bool"}]},{"name":"assessorSeal","type":"bytes","internalType":"bytes"},{"name":"prover","type":"address","internalType":"address"}],"outputs":[],"stateMutability":"nonpayable"},{"type":"function","name":"fulfillBatch","inputs":[{"name":"fills","type":"tuple[]","internalType":"struct Fulfillment[]","components":[{"name":"id","type":"uint256","internalType":"uint256"},{"name":"requestDigest","type":"bytes32","internalType":"bytes32"},{"name":"imageId","type":"bytes32","internalType":"bytes32"},{"name":"journal","type":"bytes","internalType":"bytes"},{"name":"seal","type":"bytes","internalType":"bytes"},{"name":"requirePayment","type":"bool","internalType":"bool"}]},{"name":"assessorSeal","type":"bytes","internalType":"bytes"},{"name":"prover","type":"address","internalType":"address"}],"outputs":[],"stateMutability":"nonpayable"},{"type":"function","name":"imageInfo","inputs":[],"outputs":[{"name":"","type":"bytes32","internalType":"bytes32"},{"name":"","type":"string","internalType":"string"}],"stateMutability":"view"},{"type":"function","name":"initialize","inputs":[{"name":"initialOwner","type":"address","internalType":"address"},{"name":"_imageUrl","type":"string","internalType":"string"}],"outputs":[],"stateMutability":"nonpayable"},{"type":"function","name":"lockin","inputs":[{"name":"request","type":"tuple","internalType":"struct ProofRequest","components":[{"name":"id","type":"uint256","internalType":"uint256"},{"name":"requirements","type":"tuple","internalType":"struct Requirements","components":[{"name":"imageId","type":"bytes32","internalType":"bytes32"},{"name":"predicate","type":"tuple","internalType":"struct Predicate","components":[{"name":"predicateType","type":"uint8","internalType":"enum PredicateType"},{"name":"data","type":"bytes","internalType":"bytes"}]}]},{"name":"imageUrl","type":"string","internalType":"string"},{"name":"input","type":"tuple","internalType":"struct Input","components":[{"name":"inputType","type":"uint8","internalType":"enum InputType"},{"name":"data","type":"bytes","internalType":"bytes"}]},{"name":"offer","type":"tuple","internalType":"struct Offer","components":[{"name":"minPrice","type":"uint256","internalType":"uint256"},{"name":"maxPrice","type":"uint256","internalType":"uint256"},{"name":"biddingStart","type":"uint64","internalType":"uint64"},{"name":"rampUpPeriod","type":"uint32","internalType":"uint32"},{"name":"timeout","type":"uint32","internalType":"uint32"},{"name":"lockinStake","type":"uint256","internalType":"uint256"}]}]},{"name":"clientSignature","type":"bytes","internalType":"bytes"}],"outputs":[],"stateMutability":"nonpayable"},{"type":"function","name":"lockinWithSig","inputs":[{"name":"request","type":"tuple","internalType":"struct ProofRequest","components":[{"name":"id","type":"uint256","internalType":"uint256"},{"name":"requirements","type":"tuple","internalType":"struct Requirements","components":[{"name":"imageId","type":"bytes32","internalType":"bytes32"},{"name":"predicate","type":"tuple","internalType":"struct Predicate","components":[{"name":"predicateType","type":"uint8","internalType":"enum PredicateType"},{"name":"data","type":"bytes","internalType":"bytes"}]}]},{"name":"imageUrl","type":"string","internalType":"string"},{"name":"input","type":"tuple","internalType":"struct Input","components":[{"name":"inputType","type":"uint8","internalType":"enum InputType"},{"name":"data","type":"bytes","internalType":"bytes"}]},{"name":"offer","type":"tuple","internalType":"struct Offer","components":[{"name":"minPrice","type":"uint256","internalType":"uint256"},{"name":"maxPrice","type":"uint256","internalType":"uint256"},{"name":"biddingStart","type":"uint64","internalType":"uint64"},{"name":"rampUpPeriod","type":"uint32","internalType":"uint32"},{"name":"timeout","type":"uint32","internalType":"uint32"},{"name":"lockinStake","type":"uint256","internalType":"uint256"}]}]},{"name":"clientSignature","type":"bytes","internalType":"bytes"},{"name":"proverSignature","type":"bytes","internalType":"bytes"}],"outputs":[],"stateMutability":"nonpayable"},{"type":"function","name":"owner","inputs":[],"outputs":[{"name":"","type":"address","internalType":"address"}],"stateMutability":"view"},{"type":"function","name":"pendingOwner","inputs":[],"outputs":[{"name":"","type":"address","internalType":"address"}],"stateMutability":"view"},{"type":"function","name":"priceAndFulfillBatch","inputs":[{"name":"requests","type":"tuple[]","internalType":"struct ProofRequest[]","components":[{"name":"id","type":"uint256","internalType":"uint256"},{"name":"requirements","type":"tuple","internalType":"struct Requirements","components":[{"name":"imageId","type":"bytes32","internalType":"bytes32"},{"name":"predicate","type":"tuple","internalType":"struct Predicate","components":[{"name":"predicateType","type":"uint8","internalType":"enum PredicateType"},{"name":"data","type":"bytes","internalType":"bytes"}]}]},{"name":"imageUrl","type":"string","internalType":"string"},{"name":"input","type":"tuple","internalType":"struct Input","components":[{"name":"inputType","type":"uint8","internalType":"enum InputType"},{"name":"data","type":"bytes","internalType":"bytes"}]},{"name":"offer","type":"tuple","internalType":"struct Offer","components":[{"name":"minPrice","type":"uint256","internalType":"uint256"},{"name":"maxPrice","type":"uint256","internalType":"uint256"},{"name":"biddingStart","type":"uint64","internalType":"uint64"},{"name":"rampUpPeriod","type":"uint32","internalType":"uint32"},{"name":"timeout","type":"uint32","internalType":"uint32"},{"name":"lockinStake","type":"uint256","internalType":"uint256"}]}]},{"name":"clientSignatures","type":"bytes[]","internalType":"bytes[]"},{"name":"fills","type":"tuple[]","internalType":"struct Fulfillment[]","components":[{"name":"id","type":"uint256","internalType":"uint256"},{"name":"requestDigest","type":"bytes32","internalType":"bytes32"},{"name":"imageId","type":"bytes32","internalType":"bytes32"},{"name":"journal","type":"bytes","internalType":"bytes"},{"name":"seal","type":"bytes","internalType":"bytes"},{"name":"requirePayment","type":"bool","internalType":"bool"}]},{"name":"assessorSeal","type":"bytes","internalType":"bytes"},{"name":"prover","type":"address","internalType":"address"}],"outputs":[],"stateMutability":"nonpayable"},{"type":"function","name":"priceRequest","inputs":[{"name":"request","type":"tuple","internalType":"struct ProofRequest","components":[{"name":"id","type":"uint256","internalType":"uint256"},{"name":"requirements","type":"tuple","internalType":"struct Requirements","components":[{"name":"imageId","type":"bytes32","internalType":"bytes32"},{"name":"predicate","type":"tuple","internalType":"struct Predicate","components":[{"name":"predicateType","type":"uint8","internalType":"enum PredicateType"},{"name":"data","type":"bytes","internalType":"bytes"}]}]},{"name":"imageUrl","type":"string","internalType":"string"},{"name":"input","type":"tuple","internalType":"struct Input","components":[{"name":"inputType","type":"uint8","internalType":"enum InputType"},{"name":"data","type":"bytes","internalType":"bytes"}]},{"name":"offer","type":"tuple","internalType":"struct Offer","components":[{"name":"minPrice","type":"uint256","internalType":"uint256"},{"name":"maxPrice","type":"uint256","internalType":"uint256"},{"name":"biddingStart","type":"uint64","internalType":"uint64"},{"name":"rampUpPeriod","type":"uint32","internalType":"uint32"},{"name":"timeout","type":"uint32","internalType":"uint32"},{"name":"lockinStake","type":"uint256","internalType":"uint256"}]}]},{"name":"clientSignature","type":"bytes","internalType":"bytes"}],"outputs":[],"stateMutability":"nonpayable"},{"type":"function","name":"proxiableUUID","inputs":[],"outputs":[{"name":"","type":"bytes32","internalType":"bytes32"}],"stateMutability":"view"},{"type":"function","name":"removeProverFromAppnetAllowlist","inputs":[{"name":"prover","type":"address","internalType":"address"}],"outputs":[],"stateMutability":"nonpayable"},{"type":"function","name":"renounceOwnership","inputs":[],"outputs":[],"stateMutability":"nonpayable"},{"type":"function","name":"requestDeadline","inputs":[{"name":"id","type":"uint256","internalType":"uint256"}],"outputs":[{"name":"","type":"uint64","internalType":"uint64"}],"stateMutability":"view"},{"type":"function","name":"requestIsFulfilled","inputs":[{"name":"id","type":"uint256","internalType":"uint256"}],"outputs":[{"name":"","type":"bool","internalType":"bool"}],"stateMutability":"view"},{"type":"function","name":"requestIsLocked","inputs":[{"name":"id","type":"uint256","internalType":"uint256"}],"outputs":[{"name":"","type":"bool","internalType":"bool"}],"stateMutability":"view"},{"type":"function","name":"requestLocks","inputs":[{"name":"","type":"uint256","internalType":"uint256"}],"outputs":[{"name":"prover","type":"address","internalType":"address"},{"name":"price","type":"uint96","internalType":"uint96"},{"name":"deadline","type":"uint64","internalType":"uint64"},{"name":"stake","type":"uint96","internalType":"uint96"},{"name":"fingerprint","type":"bytes8","internalType":"bytes8"}],"stateMutability":"view"},{"type":"function","name":"setImageUrl","inputs":[{"name":"_imageUrl","type":"string","internalType":"string"}],"outputs":[],"stateMutability":"nonpayable"},{"type":"function","name":"slash","inputs":[{"name":"requestId","type":"uint256","internalType":"uint256"}],"outputs":[],"stateMutability":"nonpayable"},{"type":"function","name":"submitRequest","inputs":[{"name":"request","type":"tuple","internalType":"struct ProofRequest","components":[{"name":"id","type":"uint256","internalType":"uint256"},{"name":"requirements","type":"tuple","internalType":"struct Requirements","components":[{"name":"imageId","type":"bytes32","internalType":"bytes32"},{"name":"predicate","type":"tuple","internalType":"struct Predicate","components":[{"name":"predicateType","type":"uint8","internalType":"enum PredicateType"},{"name":"data","type":"bytes","internalType":"bytes"}]}]},{"name":"imageUrl","type":"string","internalType":"string"},{"name":"input","type":"tuple","internalType":"struct Input","components":[{"name":"inputType","type":"uint8","internalType":"enum InputType"},{"name":"data","type":"bytes","internalType":"bytes"}]},{"name":"offer","type":"tuple","internalType":"struct Offer","components":[{"name":"minPrice","type":"uint256","internalType":"uint256"},{"name":"maxPrice","type":"uint256","internalType":"uint256"},{"name":"biddingStart","type":"uint64","internalType":"uint64"},{"name":"rampUpPeriod","type":"uint32","internalType":"uint32"},{"name":"timeout","type":"uint32","internalType":"uint32"},{"name":"lockinStake","type":"uint256","internalType":"uint256"}]}]},{"name":"clientSignature","type":"bytes","internalType":"bytes"}],"outputs":[],"stateMutability":"payable"},{"type":"function","name":"submitRootAndFulfillBatch","inputs":[{"name":"root","type":"bytes32","internalType":"bytes32"},{"name":"seal","type":"bytes","internalType":"bytes"},{"name":"fills","type":"tuple[]","internalType":"struct Fulfillment[]","components":[{"name":"id","type":"uint256","internalType":"uint256"},{"name":"requestDigest","type":"bytes32","internalType":"bytes32"},{"name":"imageId","type":"bytes32","internalType":"bytes32"},{"name":"journal","type":"bytes","internalType":"bytes"},{"name":"seal","type":"bytes","internalType":"bytes"},{"name":"requirePayment","type":"bool","internalType":"bool"}]},{"name":"assessorSeal","type":"bytes","internalType":"bytes"},{"name":"prover","type":"address","internalType":"address"}],"outputs":[],"stateMutability":"nonpayable"},{"type":"function","name":"transferOwnership","inputs":[{"name":"newOwner","type":"address","internalType":"address"}],"outputs":[],"stateMutability":"nonpayable"},{"type":"function","name":"upgradeToAndCall","inputs":[{"name":"newImplementation","type":"address","internalType":"address"},{"name":"data","type":"bytes","internalType":"bytes"}],"outputs":[],"stateMutability":"payable"},{"type":"function","name":"verifyBatchDelivery","inputs":[{"name":"fills","type":"tuple[]","internalType":"struct Fulfillment[]","components":[{"name":"id","type":"uint256","internalType":"uint256"},{"name":"requestDigest","type":"bytes32","internalType":"bytes32"},{"name":"imageId","type":"bytes32","internalType":"bytes32"},{"name":"journal","type":"bytes","internalType":"bytes"},{"name":"seal","type":"bytes","internalType":"bytes"},{"name":"requirePayment","type":"bool","internalType":"bool"}]},{"name":"assessorSeal","type":"bytes","internalType":"bytes"},{"name":"prover","type":"address","internalType":"address"}],"outputs":[],"stateMutability":"view"},{"type":"function","name":"verifyDelivery","inputs":[{"name":"fill","type":"tuple","internalType":"struct Fulfillment","components":[{"name":"id","type":"uint256","internalType":"uint256"},{"name":"requestDigest","type":"bytes32","internalType":"bytes32"},{"name":"imageId","type":"bytes32","internalType":"bytes32"},{"name":"journal","type":"bytes","internalType":"bytes"},{"name":"seal","type":"bytes","internalType":"bytes"},{"name":"requirePayment","type":"bool","internalType":"bool"}]},{"name":"assessorSeal","type":"bytes","internalType":"bytes"},{"name":"prover","type":"address","internalType":"address"}],"outputs":[],"stateMutability":"view"},{"type":"function","name":"verifyRequestSignature","inputs":[{"name":"addr","type":"address","internalType":"address"},{"name":"request","type":"tuple","internalType":"struct ProofRequest","components":[{"name":"id","type":"uint256","internalType":"uint256"},{"name":"requirements","type":"tuple","internalType":"struct Requirements","components":[{"name":"imageId","type":"bytes32","internalType":"bytes32"},{"name":"predicate","type":"tuple","internalType":"struct Predicate","components":[{"name":"predicateType","type":"uint8","internalType":"enum PredicateType"},{"name":"data","type":"bytes","internalType":"bytes"}]}]},{"name":"imageUrl","type":"string","internalType":"string"},{"name":"input","type":"tuple","internalType":"struct Input","components":[{"name":"inputType","type":"uint8","internalType":"enum InputType"},{"name":"data","type":"bytes","internalType":"bytes"}]},{"name":"offer","type":"tuple","internalType":"struct Offer","components":[{"name":"minPrice","type":"uint256","internalType":"uint256"},{"name":"maxPrice","type":"uint256","internalType":"uint256"},{"name":"biddingStart","type":"uint64","internalType":"uint64"},{"name":"rampUpPeriod","type":"uint32","internalType":"uint32"},{"name":"timeout","type":"uint32","internalType":"uint32"},{"name":"lockinStake","type":"uint256","internalType":"uint256"}]}]},{"name":"signature","type":"bytes","internalType":"bytes"}],"outputs":[{"name":"requestDigest","type":"bytes32","internalType":"bytes32"}],"stateMutability":"view"},{"type":"function","name":"withdraw","inputs":[{"name":"value","type":"uint256","internalType":"uint256"}],"outputs":[],"stateMutability":"nonpayable"},{"type":"event","name":"Deposit","inputs":[{"name":"account","type":"address","indexed":true,"internalType":"address"},{"name":"value","type":"uint256","indexed":false,"internalType":"uint256"}],"anonymous":false},{"type":"event","name":"EIP712DomainChanged","inputs":[],"anonymous":false},{"type":"event","name":"Initialized","inputs":[{"name":"version","type":"uint64","indexed":false,"internalType":"uint64"}],"anonymous":false},{"type":"event","name":"OwnershipTransferStarted","inputs":[{"name":"previousOwner","type":"address","indexed":true,"internalType":"address"},{"name":"newOwner","type":"address","indexed":true,"internalType":"address"}],"anonymous":false},{"type":"event","name":"OwnershipTransferred","inputs":[{"name":"previousOwner","type":"address","indexed":true,"internalType":"address"},{"name":"newOwner","type":"address","indexed":true,"internalType":"address"}],"anonymous":false},{"type":"event","name":"PaymentRequirementsFailed","inputs":[{"name":"error","type":"bytes","indexed":false,"internalType":"bytes"}],"anonymous":false},{"type":"event","name":"ProofDelivered","inputs":[{"name":"requestId","type":"uint256","indexed":true,"internalType":"uint256"},{"name":"journal","type":"bytes","indexed":false,"internalType":"bytes"},{"name":"seal","type":"bytes","indexed":false,"internalType":"bytes"}],"anonymous":false},{"type":"event","name":"ProverSlashed","inputs":[{"name":"requestId","type":"uint256","indexed":true,"internalType":"uint256"},{"name":"stakeBurned","type":"uint256","indexed":false,"internalType":"uint256"},{"name":"stakeTransferred","type":"uint256","indexed":false,"internalType":"uint256"}],"anonymous":false},{"type":"event","name":"RequestFulfilled","inputs":[{"name":"requestId","type":"uint256","indexed":true,"internalType":"uint256"}],"anonymous":false},{"type":"event","name":"RequestLockedin","inputs":[{"name":"requestId","type":"uint256","indexed":true,"internalType":"uint256"},{"name":"prover","type":"address","indexed":false,"internalType":"address"}],"anonymous":false},{"type":"event","name":"RequestSubmitted","inputs":[{"name":"requestId","type":"uint256","indexed":true,"internalType":"uint256"},{"name":"request","type":"tuple","indexed":false,"internalType":"struct ProofRequest","components":[{"name":"id","type":"uint256","internalType":"uint256"},{"name":"requirements","type":"tuple","internalType":"struct Requirements","components":[{"name":"imageId","type":"bytes32","internalType":"bytes32"},{"name":"predicate","type":"tuple","internalType":"struct Predicate","components":[{"name":"predicateType","type":"uint8","internalType":"enum PredicateType"},{"name":"data","type":"bytes","internalType":"bytes"}]}]},{"name":"imageUrl","type":"string","internalType":"string"},{"name":"input","type":"tuple","internalType":"struct Input","components":[{"name":"inputType","type":"uint8","internalType":"enum InputType"},{"name":"data","type":"bytes","internalType":"bytes"}]},{"name":"offer","type":"tuple","internalType":"struct Offer","components":[{"name":"minPrice","type":"uint256","internalType":"uint256"},{"name":"maxPrice","type":"uint256","internalType":"uint256"},{"name":"biddingStart","type":"uint64","internalType":"uint64"},{"name":"rampUpPeriod","type":"uint32","internalType":"uint32"},{"name":"timeout","type":"uint32","internalType":"uint32"},{"name":"lockinStake","type":"uint256","internalType":"uint256"}]}]},{"name":"clientSignature","type":"bytes","indexed":false,"internalType":"bytes"}],"anonymous":false},{"type":"event","name":"Upgraded","inputs":[{"name":"version","type":"uint64","indexed":true,"internalType":"uint64"}],"anonymous":false},{"type":"event","name":"Upgraded","inputs":[{"name":"implementation","type":"address","indexed":true,"internalType":"address"}],"anonymous":false},{"type":"event","name":"Withdrawal","inputs":[{"name":"account","type":"address","indexed":true,"internalType":"address"},{"name":"value","type":"uint256","indexed":false,"internalType":"uint256"}],"anonymous":false},{"type":"error","name":"AddressEmptyCode","inputs":[{"name":"target","type":"address","internalType":"address"}]},{"type":"error","name":"ECDSAInvalidSignature","inputs":[]},{"type":"error","name":"ECDSAInvalidSignatureLength","inputs":[{"name":"length","type":"uint256","internalType":"uint256"}]},{"type":"error","name":"ECDSAInvalidSignatureS","inputs":[{"name":"s","type":"bytes32","internalType":"bytes32"}]},{"type":"error","name":"ERC1967InvalidImplementation","inputs":[{"name":"implementation","type":"address","internalType":"address"}]},{"type":"error","name":"ERC1967NonPayable","inputs":[]},{"type":"error","name":"FailedCall","inputs":[]},{"type":"error","name":"InsufficientBalance","inputs":[{"name":"account","type":"address","internalType":"address"}]},{"type":"error","name":"InvalidInitialization","inputs":[]},{"type":"error","name":"InvalidRequest","inputs":[]},{"type":"error","name":"InvalidSignature","inputs":[]},{"type":"error","name":"NotInitializing","inputs":[]},{"type":"error","name":"OwnableInvalidOwner","inputs":[{"name":"owner","type":"address","internalType":"address"}]},{"type":"error","name":"OwnableUnauthorizedAccount","inputs":[{"name":"account","type":"address","internalType":"address"}]},{"type":"error","name":"ProverNotInAppnetLockinAllowList","inputs":[{"name":"account","type":"address","internalType":"address"}]},{"type":"error","name":"RequestIsExpired","inputs":[{"name":"requestId","type":"uint256","internalType":"uint256"},{"name":"deadline","type":"uint64","internalType":"uint64"}]},{"type":"error","name":"RequestIsFulfilled","inputs":[{"name":"requestId","type":"uint256","internalType":"uint256"}]},{"type":"error","name":"RequestIsLocked","inputs":[{"name":"requestId","type":"uint256","internalType":"uint256"}]},{"type":"error","name":"RequestIsNotExpired","inputs":[{"name":"requestId","type":"uint256","internalType":"uint256"},{"name":"deadline","type":"uint64","internalType":"uint64"}]},{"type":"error","name":"RequestIsNotLocked","inputs":[{"name":"requestId","type":"uint256","internalType":"uint256"}]},{"type":"error","name":"RequestIsNotPriced","inputs":[{"name":"requestId","type":"uint256","internalType":"uint256"}]},{"type":"error","name":"RequestLockFingerprintDoesNotMatch","inputs":[{"name":"requestId","type":"uint256","internalType":"uint256"},{"name":"provided","type":"bytes8","internalType":"bytes8"},{"name":"locked","type":"bytes8","internalType":"bytes8"}]},{"type":"error","name":"SafeCastOverflowedUintDowncast","inputs":[{"name":"bits","type":"uint8","internalType":"uint8"},{"name":"value","type":"uint256","internalType":"uint256"}]},{"type":"error","name":"TransferFailed","inputs":[]},{"type":"error","name":"UUPSUnauthorizedCallContext","inputs":[]},{"type":"error","name":"UUPSUnsupportedProxiableUUID","inputs":[{"name":"slot","type":"bytes32","internalType":"bytes32"}]}],"bytecode":{"object":"0x60e03461017157601f61550e38819003918201601f19168301916001600160401b03831184841017610175578084926040948552833981010312610171578051906001600160a01b03821682036101715760200151903060805260a05260c0527ff0c57e16840df040f15088dc2f81fe391c3923bec73e23a9662efc9c229c6a005460ff8160401c16610162576002600160401b03196001600160401b038216016100f9575b604051615384908161018a8239608051818181610d960152610ff4015260a051818181610427015281816123dc0152818161289a0152612e71015260c05181818161176a01528181611a3401526124b30152f35b6001600160401b0319166001600160401b039081177ff0c57e16840df040f15088dc2f81fe391c3923bec73e23a9662efc9c229c6a00556040519081527fc7f505b2f371ae2175ee4913f4499e1f2633a7b5936321eed1cdaeb6115181d290602090a15f6100a5565b63f92ee8a960e01b5f5260045ffd5b5f80fd5b634e487b7160e01b5f52604160045260245ffdfe60806040526004361015610011575f80fd5b5f3560e01c80630621430f146102a557806308c84e70146102a05780630fd9613f1461029b5780632258ed61146101e757806327a95ad4146102965780632abff1f2146102915780632e1a7d4d1461028c5780633f5618e01461028757806340b020971461028257806341451f941461027d578063459cc6471461027857806345bc4d101461027357806347f6137b146101e75780634f1ef2861461026e5780634f7f704414610269578063515990bc1461026457806352d1902d1461025f5780635a52d6781461025a5780635b07fdd8146102555780635b8ca65c1461025057806370a082311461024b578063715018a61461024657806379ba50971461024157806381bf6c241461023c57806384b0196e1461023757806384eecae2146102325780638cb1fb331461022d5780638da5cb5b146102285780639fe9428c14610223578063ad3cb1cc1461021e578063ad4b01e614610219578063b319127014610214578063c515c15f1461020f578063cb74db111461020a578063cdc9712314610205578063d0e30db014610200578063d5b2d3b6146101e7578063e30c3978146101fb578063e769a2f0146101f6578063f2fde38b146101f1578063f399e22e146101ec5763ffa1ad74146101e7575f80fd5b6104ad565b611c5b565b611b78565b611b5e565b611b19565b611b06565b6119e4565b611972565b6118e1565b611879565b6117ec565b61178d565b611753565b61170e565b611665565b61164e565b611559565b6113f9565b611383565b61126e565b611228565b6111c9565b6111a7565b611044565b610fda565b610fbe565b610f86565b610d57565b6109bd565b6109a3565b61096d565b610842565b610817565b6105fb565b6104e2565b6104c8565b61044b565b610408565b610370565b9181601f840112156102d85782359167ffffffffffffffff83116102d857602083818601950101116102d857565b5f80fd5b600435906001600160a01b03821682036102d857565b608435906001600160a01b03821682036102d857565b9060606003198301126102d85760043567ffffffffffffffff81116102d85760c060031982850301126102d857600401916024359067ffffffffffffffff82116102d857610358916004016102aa565b90916044356001600160a01b03811681036102d85790565b346102d8576103b07fcc611d18a8ca7881d594afc83d6cb63ae83d28d155975309f5ff633ecc6427306103ec6103a536610308565b95919086918461284a565b6103cf8135946020830135906103c860a08501611edf565b91876134f3565b6103f96103df6060830183611eec565b9390926080810190611eec565b9060405194859485611f5d565b0390a2005b5f9103126102d857565b346102d8575f6003193601126102d85760206040516001600160a01b037f0000000000000000000000000000000000000000000000000000000000000000168152f35b346102d85760206003193601126102d8576001600160a01b0361046c6102dc565b6104746135a2565b165f52600360205260405f2060017fffffffffffffffffffffffffffffffffffffffffffffffffffffffffffffff008254161790555f80f35b346102d8575f6003193601126102d857602060405160018152f35b346102d8575f6003193601126102d85760206040515f8152f35b346102d85760206003193601126102d85760043567ffffffffffffffff81116102d8576105139036906004016102aa565b61051b6135a2565b67ffffffffffffffff81116105f65761053e81610539600254611f84565b611fd5565b5f601f821160011461057a57819061056a935f9261056f575b50505f198260011b9260031b1c19161790565b600255005b013590505f80610557565b60025f52601f198216927f405787fa12a823e0f2b7631cc41b3ba8828b3321ca811111fa75cd3aa3bb5ace915f5b8581106105de575083600195106105c5575b505050811b01600255005b5f1960f88560031b161c199101351690555f80806105ba565b909260206001819286860135815501940191016105a8565b610c30565b346102d85760206003193601126102d85760043561063f61062d336001600160a01b03165f52600160205260405f2090565b546bffffffffffffffffffffffff1690565b6bffffffffffffffffffffffff610669610658846135d5565b6bffffffffffffffffffffffff1690565b91161061076c576106fa61067c826135d5565b6106c361069a336001600160a01b03165f52600160205260405f2090565b916106b183546bffffffffffffffffffffffff1690565b036bffffffffffffffffffffffff1690565b6bffffffffffffffffffffffff167fffffffffffffffffffffffffffffffffffffffff000000000000000000000000825416179055565b5f80808084335af161070a6121b8565b50156107445760405190815233907f7fcf532c15f0a6db0bd6d0e038bea71d30d808c7d98cb3bf7268a95bf5081b659080602081016103f9565b7f90b8ec18000000000000000000000000000000000000000000000000000000005f5260045ffd5b7f897f6c58000000000000000000000000000000000000000000000000000000005f523360045260245ffd5b9181601f840112156102d85782359167ffffffffffffffff83116102d8576020808501948460051b0101116102d857565b60606003198201126102d85760043567ffffffffffffffff81116102d857816107f491600401610798565b929092916024359067ffffffffffffffff82116102d857610358916004016102aa565b346102d857610831610828366107c9565b939290926123ba565b005b90816101409103126102d85790565b346102d85760606003193601126102d85760043567ffffffffffffffff81116102d857610873903690600401610833565b60243567ffffffffffffffff81116102d8576108939036906004016102aa565b906044359167ffffffffffffffff83116102d8576108eb61092a61092161091b87956108e59561090b610905896108fd6108f86108f36108da6109149f36906004016102aa565b9c9094359d8e61393b565b9d613971565b9d36906127ad565b613b71565b613cbb565b983691610d03565b87614a7e565b909a919a614ac2565b3691610d03565b83614a7e565b90929192614ac2565b6001600160a01b038084169116036109455761083194613cfc565b7f8baa579f000000000000000000000000000000000000000000000000000000005f5260045ffd5b346102d85760206003193601126102d8576004355f525f602052602067ffffffffffffffff600160405f20015416604051908152f35b346102d8576108316109b436610308565b9291909161284a565b346102d85760206003193601126102d8576004356109da8161393b565b610a066109e683613971565b610a01836001600160a01b03165f52600160205260405f2090565b613ff8565b5015610c0357610a25610a20835f525f60205260405f2090565b612973565b906001600160a01b03610a3f83516001600160a01b031690565b1615610bd657604082015167ffffffffffffffff1643811015610b9c575090610b4b61065892610aa1610a70610cb8565b5f81525f60208201525f60408201525f60608201525f6080820152610a9c875f525f60205260405f2090565b6129f1565b6106c3610b2f610b17610b086020610af460608901610aef610ada610ad561065884516bffffffffffffffffffffffff1690565b612b16565b9b8c92516bffffffffffffffffffffffff1690565b612bca565b9701516bffffffffffffffffffffffff1690565b610b11876135d5565b90612bd7565b926001600160a01b03165f52600160205260405f2090565b91610b4683546bffffffffffffffffffffffff1690565b612bd7565b5f80808085815af1610b5b6121b8565b5015610744576040805192835260208301919091527ffeceeaad5cc05e0c63449a63177343613b2f085fd6a6ee4d471dbbdf484cc2239190819081016103f9565b7f79c66ab0000000000000000000000000000000000000000000000000000000005f52600484905267ffffffffffffffff1660245260445ffd5b7fd2be005d000000000000000000000000000000000000000000000000000000005f52600483905260245ffd5b7fd2be005d000000000000000000000000000000000000000000000000000000005f52600482905260245ffd5b7f4e487b71000000000000000000000000000000000000000000000000000000005f52604160045260245ffd5b6040810190811067ffffffffffffffff8211176105f657604052565b60a0810190811067ffffffffffffffff8211176105f657604052565b90601f601f19910116810190811067ffffffffffffffff8211176105f657604052565b60405190610cc760a083610c95565b565b60405190610cc7604083610c95565b60405190610cc7606083610c95565b67ffffffffffffffff81116105f657601f01601f191660200190565b929192610d0f82610ce7565b91610d1d6040519384610c95565b8294818452818301116102d8578281602093845f960137010152565b9080601f830112156102d857816020610d5493359101610d03565b90565b60406003193601126102d857610d6b6102dc565b60243567ffffffffffffffff81116102d857610d8b903690600401610d39565b906001600160a01b037f000000000000000000000000000000000000000000000000000000000000000016803014908115610f01575b50610ed957610dce6135a2565b604051917f52d1902d0000000000000000000000000000000000000000000000000000000083526020836004816001600160a01b0386165afa5f9381610ea8575b50610e49577f4c9c8ce3000000000000000000000000000000000000000000000000000000005f526001600160a01b03821660045260245ffd5b907f360894a13ba1a3210667c828492db98dca3e2076cc3735a920a3ca505d382bbc8303610e7b576108319250614b89565b7faa1d49a4000000000000000000000000000000000000000000000000000000005f52600483905260245ffd5b610ecb91945060203d602011610ed2575b610ec38183610c95565b8101906140cc565b925f610e0f565b503d610eb9565b7fe07c8dba000000000000000000000000000000000000000000000000000000005f5260045ffd5b90506001600160a01b037f360894a13ba1a3210667c828492db98dca3e2076cc3735a920a3ca505d382bbc541614155f610dc1565b9060406003198301126102d85760043567ffffffffffffffff81116102d85782610f6291600401610833565b916024359067ffffffffffffffff82116102d857610f82916004016102aa565b9091565b346102d857610831610f9736610f36565b610fb7833591610faf610fa98461393b565b93613971565b938584612f0c565b3393613cfc565b346102d8575f6003193601126102d857602060405161c3508152f35b346102d8575f6003193601126102d8576001600160a01b037f0000000000000000000000000000000000000000000000000000000000000000163003610ed95760206040517f360894a13ba1a3210667c828492db98dca3e2076cc3735a920a3ca505d382bbc8152f35b7f4b0287471f430afdce996ad54d82d144ee07a8a987dcc75c764d00ebab17651d61106e36610f36565b909291923461119a575b6103f98435946040519384936040855287604086015261118d61117f6111436111066110f36110c76110ad60208a018a612c01565b61014060608d015280356101808d01526020810190612c01565b60406101a08c015280356110da81612634565b6110e381612c60565b6101c08c01526020810190612c6f565b60406101e08c01526102008b0191611f3d565b6111136040880188612c6f565b907fffffffffffffffffffffffffffffffffffffffffffffffffffffffffffffffc08b84030160808c0152611f3d565b6111506060870187612c01565b7fffffffffffffffffffffffffffffffffffffffffffffffffffffffffffffffc08983030160a08a0152612cbf565b93608060c088019101612cf9565b8483036020860152611f3d565b6111a2613138565b611078565b346102d8575f6003193601126102d85760206111c1614ca0565b604051908152f35b346102d85760206003193601126102d8576001600160a01b036111ea6102dc565b6111f26135a2565b165f52600360205260405f207fffffffffffffffffffffffffffffffffffffffffffffffffffffffffffffff0081541690555f80f35b346102d85760206003193601126102d8576001600160a01b036112496102dc565b165f52600160205260206bffffffffffffffffffffffff60405f205416604051908152f35b346102d8575f6003193601126102d8576112866135a2565b7fffffffffffffffffffffffff00000000000000000000000000000000000000007f237e158222e3e6968b72b9db0d8043aacf074ad9f650f0d1606b4d82ee432c0054167f237e158222e3e6968b72b9db0d8043aacf074ad9f650f0d1606b4d82ee432c00555f6001600160a01b037f9016d09d72d40fdae2fd8ceac6b6234c7706214fd39c1cd1e609a0528c199300547fffffffffffffffffffffffff000000000000000000000000000000000000000081167f9016d09d72d40fdae2fd8ceac6b6234c7706214fd39c1cd1e609a0528c19930055167f8be0079c531659141344cd1fd0a4f28419497f9722a3daafe3b4186f6b6457e08280a3005b346102d8575f6003193601126102d857336001600160a01b037f237e158222e3e6968b72b9db0d8043aacf074ad9f650f0d1606b4d82ee432c005416036113cd57610831336140db565b7f118cdaa7000000000000000000000000000000000000000000000000000000005f523360045260245ffd5b346102d85760206003193601126102d8576004357fffffffffffffffff000000000000000000000000000000000000000000000000811661146b57806001600160a01b0361145d9260201c165f52600160205263ffffffff60405f20911690613ff8565b604051901515815260209150f35b7f41abc801000000000000000000000000000000000000000000000000000000005f5260045ffd5b90601f19601f602080948051918291828752018686015e5f8582860101520116010190565b9293906001600160a01b03926114ff61150d927f0f00000000000000000000000000000000000000000000000000000000000000875260e0602088015260e0870190611493565b908582036040870152611493565b9360608401521660808201525f60a082015260c0818303910152602080835192838152019201905f5b8181106115435750505090565b8251845260209384019390920191600101611536565b346102d8575f6003193601126102d8577fa16a46d94261c7517cc8ff89f61c0ce93598e3c849801011dee649a6a557d100541580611625575b156115c75761159f612f54565b6115a7613065565b906115c36115b3612d5b565b60405193849330914691866114b8565b0390f35b60646040517f08c379a000000000000000000000000000000000000000000000000000000000815260206004820152601560248201527f4549503731323a20556e696e697469616c697a656400000000000000000000006044820152fd5b507fa16a46d94261c7517cc8ff89f61c0ce93598e3c849801011dee649a6a557d1015415611592565b346102d85761083161165f36610f36565b91612d76565b346102d85760a06003193601126102d85760043567ffffffffffffffff81116102d857611696903690600401610798565b9060243567ffffffffffffffff81116102d8576116b7903690600401610798565b9260443567ffffffffffffffff81116102d8576116d8903690600401610798565b906064359567ffffffffffffffff87116102d8576116fd6108319736906004016102aa565b9590946117086102f2565b97612dd6565b346102d8575f6003193601126102d85760206001600160a01b037f9016d09d72d40fdae2fd8ceac6b6234c7706214fd39c1cd1e609a0528c1993005416604051908152f35b346102d8575f6003193601126102d85760206040517f00000000000000000000000000000000000000000000000000000000000000008152f35b346102d8575f6003193601126102d8576115c36040516117ae604082610c95565b600581527f352e302e300000000000000000000000000000000000000000000000000000006020820152604051918291602083526020830190611493565b346102d85760a06003193601126102d85760043560243567ffffffffffffffff81116102d8576118209036906004016102aa565b60449291923567ffffffffffffffff81116102d857611843903690600401610798565b606435949167ffffffffffffffff86116102d8576118686108319636906004016102aa565b9490936118736102f2565b96612e5f565b346102d85760606003193601126102d8576118926102dc565b60243567ffffffffffffffff81116102d8576118b2903690600401610833565b6044359067ffffffffffffffff82116102d8576020926118d96111c19336906004016102aa565b929091612f0c565b346102d85760206003193601126102d8576004355f525f60205260a060405f207fffffffffffffffff00000000000000000000000000000000000000000000000060018254920154604051926001600160a01b0381168452841c602084015267ffffffffffffffff811660408401526bffffffffffffffffffffffff8160401c16606084015260201b166080820152f35b346102d85760206003193601126102d8576004357fffffffffffffffff000000000000000000000000000000000000000000000000811661146b57806001600160a01b036119d69260201c165f52600160205263ffffffff60405f20911690613ff8565b506040519015158152602090f35b346102d8575f6003193601126102d8576040515f600254611a0481611f84565b8084529060018116908115611ac45750600114611a66575b6115c383611a2c81850382610c95565b6040519182917f00000000000000000000000000000000000000000000000000000000000000008352604060208401526040830190611493565b60025f9081527f405787fa12a823e0f2b7631cc41b3ba8828b3321ca811111fa75cd3aa3bb5ace939250905b808210611aaa57509091508101602001611a2c611a1c565b919260018160209254838588010152019101909291611a92565b7fffffffffffffffffffffffffffffffffffffffffffffffffffffffffffffff001660208086019190915291151560051b84019091019150611a2c9050611a1c565b5f6003193601126102d857610831613138565b346102d8575f6003193601126102d85760206001600160a01b037f237e158222e3e6968b72b9db0d8043aacf074ad9f650f0d1606b4d82ee432c005416604051908152f35b346102d857610831611b6f366107c9565b93929092613197565b346102d85760206003193601126102d8576001600160a01b03611b996102dc565b611ba16135a2565b16807fffffffffffffffffffffffff00000000000000000000000000000000000000007f237e158222e3e6968b72b9db0d8043aacf074ad9f650f0d1606b4d82ee432c005416177f237e158222e3e6968b72b9db0d8043aacf074ad9f650f0d1606b4d82ee432c00556001600160a01b037f9016d09d72d40fdae2fd8ceac6b6234c7706214fd39c1cd1e609a0528c19930054167f38d16b8cac22d99fc7c124b9cd0de2d3fa1faef420bfe791d8c362d765e227005f80a3005b346102d85760406003193601126102d857611c746102dc565b60243567ffffffffffffffff81116102d857611c949036906004016102aa565b7ff0c57e16840df040f15088dc2f81fe391c3923bec73e23a9662efc9c229c6a0054929167ffffffffffffffff611ce460ff604087901c1615611cd6565b1590565b9567ffffffffffffffff1690565b1680159081611ed7575b6001149081611ecd575b159081611ec4575b50611e9c57611d819284611d7860017fffffffffffffffffffffffffffffffffffffffffffffffff00000000000000007ff0c57e16840df040f15088dc2f81fe391c3923bec73e23a9662efc9c229c6a005416177ff0c57e16840df040f15088dc2f81fe391c3923bec73e23a9662efc9c229c6a0055565b611e2157613249565b611d8757005b611df27fffffffffffffffffffffffffffffffffffffffffffffff00ffffffffffffffff7ff0c57e16840df040f15088dc2f81fe391c3923bec73e23a9662efc9c229c6a0054167ff0c57e16840df040f15088dc2f81fe391c3923bec73e23a9662efc9c229c6a0055565b604051600181527fc7f505b2f371ae2175ee4913f4499e1f2633a7b5936321eed1cdaeb6115181d290602090a1005b611e97680100000000000000007fffffffffffffffffffffffffffffffffffffffffffffff00ffffffffffffffff7ff0c57e16840df040f15088dc2f81fe391c3923bec73e23a9662efc9c229c6a005416177ff0c57e16840df040f15088dc2f81fe391c3923bec73e23a9662efc9c229c6a0055565b613249565b7ff92ee8a9000000000000000000000000000000000000000000000000000000005f5260045ffd5b9050155f611d00565b303b159150611cf8565b859150611cee565b3580151581036102d85790565b9035907fffffffffffffffffffffffffffffffffffffffffffffffffffffffffffffffe1813603018212156102d8570180359067ffffffffffffffff82116102d8576020019181360383136102d857565b601f8260209493601f1993818652868601375f8582860101520116010190565b9290611f7690610d549593604086526040860191611f3d565b926020818503910152611f3d565b90600182811c92168015611fcb575b6020831014611f9e57565b7f4e487b71000000000000000000000000000000000000000000000000000000005f52602260045260245ffd5b91607f1691611f93565b601f8111611fe1575050565b60025f5260205f20906020601f840160051c8301931061201b575b601f0160051c01905b818110612010575050565b5f8155600101612005565b9091508190611ffc565b601f8111612031575050565b7fa16a46d94261c7517cc8ff89f61c0ce93598e3c849801011dee649a6a557d1025f5260205f20906020601f840160051c8301931061208a575b601f0160051c01905b81811061207f575050565b5f8155600101612074565b909150819061206b565b601f82116120a157505050565b5f5260205f20906020601f840160051c830193106120d9575b601f0160051c01905b8181106120ce575050565b5f81556001016120c3565b90915081906120ba565b919067ffffffffffffffff81116105f65761210a81612103600254611f84565b6002612094565b5f601f821160011461213b57819061213693945f9261056f5750505f198260011b9260031b1c19161790565b600255565b60025f52601f198216937f405787fa12a823e0f2b7631cc41b3ba8828b3321ca811111fa75cd3aa3bb5ace915f5b8681106121a05750836001959610612187575b505050811b01600255565b5f1960f88560031b161c199101351690555f808061217c565b90926020600181928686013581550194019101612169565b3d156121e2573d906121c982610ce7565b916121d76040519384610c95565b82523d5f602084013e565b606090565b67ffffffffffffffff81116105f65760051b60200190565b604080519091906122108382610c95565b6001815291601f1901366020840137565b9061222b826121e7565b6122386040519182610c95565b828152601f1961224882946121e7565b0190602036910137565b7f4e487b71000000000000000000000000000000000000000000000000000000005f52603260045260245ffd5b91908110156122bf5760051b810135907fffffffffffffffffffffffffffffffffffffffffffffffffffffffffffffff41813603018212156102d8570190565b612252565b8051156122bf5760200190565b80518210156122bf5760209160051b010190565b908092918237015f815290565b6040513d5f823e3d90fd5b6020815260406020612319845183838601526060850190611493565b93015191015290565b602081526080810191805192606060208401528351809152602060a084019401905f5b81811061236e575050506001600160a01b03604082602060609401518286015201511691015290565b8251865260209586019590920191600101612345565b805191908290602001825e015f815290565b906123b09060409396959496606084526060840191611f3d565b9460208201520152565b9091936123c683612221565b6123cf84612221565b925f946001600160a01b037f000000000000000000000000000000000000000000000000000000000000000016955b8181106125065750505061244f61245d6020946124415f956124226124699661385a565b61242a610cd8565b938452888401526001600160a01b03166040830152565b604051928391878301612322565b03601f198101835282610c95565b60405191828092612384565b039060025afa15612501575f5190803b156102d8576124dc935f93604051958694859384937fab750e750000000000000000000000000000000000000000000000000000000085527f00000000000000000000000000000000000000000000000000000000000000009160048601612396565b03915afa8015612501576124ed5750565b806124fb5f610cc793610c95565b806103fe565b6122f2565b602061251382848661227f565b013561251f82886122d1565b52604061252d82848661227f565b013560205f61254a61254085878961227f565b6060810190611eec565b9061255a604051809381936122e5565b039060025afa1561250157612574612579915f519061364b565b613735565b61258382866122d1565b5261259c61259282848661227f565b6080810190611eec565b91906125bd6125ab83886122d1565b51916125b5610cc9565b943691610d03565b83526020830152873b156102d8575f61260392604051809481927f1599ead5000000000000000000000000000000000000000000000000000000008352600483016122fd565b03818b61c350fa91821561250157600192612620575b50016123fe565b806124fb5f61262e93610c95565b5f612619565b600211156102d857565b91906040838203126102d8576040519061265782610c5d565b81938035835260208101359067ffffffffffffffff82116102d85701916040838303126102d8576040519261268b84610c5d565b803561269681612634565b845260208101359267ffffffffffffffff84116102d8576020936126ba9201610d39565b828401520152565b91906040838203126102d857604051906126db82610c5d565b819380356126e881612634565b835260208101359167ffffffffffffffff83116102d85760209261270c9201610d39565b910152565b359067ffffffffffffffff821682036102d857565b359063ffffffff821682036102d857565b91908260c09103126102d85760405160c0810181811067ffffffffffffffff8211176105f65760405260a0808294803584526020810135602085015261277f60408201612711565b604085015261279060608201612726565b60608501526127a160808201612726565b60808501520135910152565b919091610140818403126102d8576127c3610cb8565b9281358452602082013567ffffffffffffffff81116102d857816127e891840161263e565b6020850152604082013567ffffffffffffffff81116102d8578161280d918401610d39565b6040850152606082013567ffffffffffffffff81116102d857826128388360809361284396016126c2565b606087015201612737565b6080830152565b929092604081013560205f6128626060850185611eec565b90612872604051809381936122e5565b039060025afa156125015761288f6125746128d2925f519061364b565b926001600160a01b037f000000000000000000000000000000000000000000000000000000000000000016936128c86080850185611eec565b93906125b5610cc9565b8352806020840152843b156102d8575f61291993604051809581927f1599ead5000000000000000000000000000000000000000000000000000000008352600483016122fd565b03818861c350fa928315612501576020946124416124699461244f9461245d945f9861295f575b508861294a6121ff565b940135612956856122c4565b5261242a610cd8565b806124fb8a61296d93610c95565b5f612940565b9060405161298081610c79565b60807fffffffffffffffff000000000000000000000000000000000000000000000000806001849680546001600160a01b038116875260a01c6020870152015467ffffffffffffffff811660408601526bffffffffffffffffffffffff8160401c16606086015260201b1616910152565b815160208301516001600160a01b039091167fffffffffffffffffffffffff000000000000000000000000000000000000000060a09290921b8216178255604080840151600190930180546060860151931667ffffffffffffffff9094169390931791901b73ffffffffffffffffffffffff000000000000000016178155608090910151610cc791907fffffffffffffffff0000000000000000000000000000000000000000000000001681547fffffffff0000000000000000ffffffffffffffffffffffffffffffffffffffff1660209190911c7bffffffffffffffff000000000000000000000000000000000000000016179055565b7f4e487b71000000000000000000000000000000000000000000000000000000005f52601160045260245ffd5b9081156001838004141715612b2757565b612ae9565b908160011b917f7fffffffffffffffffffffffffffffffffffffffffffffffffffffffffffffff811603612b2757565b908160011b9180830460021490151715612b2757565b81810292918115918404141715612b2757565b8115612b8f570490565b7f4e487b71000000000000000000000000000000000000000000000000000000005f52601260045260245ffd5b905f198201918211612b2757565b91908203918211612b2757565b906bffffffffffffffffffffffff809116911601906bffffffffffffffffffffffff8211612b2757565b90357fffffffffffffffffffffffffffffffffffffffffffffffffffffffffffffffc1823603018112156102d8570190565b7f4e487b71000000000000000000000000000000000000000000000000000000005f52602160045260245ffd5b60021115612c6a57565b612c33565b90357fffffffffffffffffffffffffffffffffffffffffffffffffffffffffffffffe1823603018112156102d857016020813591019167ffffffffffffffff82116102d85781360383136102d857565b906040612ce9610d54938035612cd481612634565b612cdd81612c60565b84526020810190612c6f565b9190928160208201520191611f3d565b60a08091803584526020810135602085015267ffffffffffffffff612d2060408301612711565b16604085015263ffffffff612d3760608301612726565b16606085015263ffffffff612d4e60808301612726565b1660808501520135910152565b60405190612d6a602083610c95565b5f808352366020840137565b91602091612d9e91612d98853591612d90610fa98461393b565b938784612f0c565b946141dd565b506bffffffffffffffffffffffff60405191612db983610c5d565b600183521691829101526c0100000000000000000000000017905d565b989490979396929591965f5b89811015612e4b578060051b90818c0135917ffffffffffffffffffffffffffffffffffffffffffffffffffffffffffffffec18d3603018312156102d857898210156122bf576001928d612e3c8d612e4594810190611eec565b92909101612d76565b01612de2565b50929550929550929650610cc79550613197565b90969594939291966001600160a01b037f000000000000000000000000000000000000000000000000000000000000000016803b156102d857612ee2985f80946040519b8c95869485937f6691f6470000000000000000000000000000000000000000000000000000000085526004850152604060248501526044840191611f3d565b03925af195861561250157610cc796612efc575b50613197565b5f612f0691610c95565b5f612ef6565b6001600160a01b039190612f40612f3a612f4995612f326108f86108f3889736906127ad565b973691610d03565b86614a7e565b90959195614ac2565b169116036109455790565b604051905f827fa16a46d94261c7517cc8ff89f61c0ce93598e3c849801011dee649a6a557d1025491612f8683611f84565b80835292600181169081156130285750600114612faa575b610cc792500383610c95565b507fa16a46d94261c7517cc8ff89f61c0ce93598e3c849801011dee649a6a557d1025f90815290917f42ad5d3e1f2e6e70edcf6d991b8a3023d3fca8047a131592f9edb9fd9b89d57d5b81831061300c575050906020610cc792820101612f9e565b6020919350806001915483858901015201910190918492612ff4565b60209250610cc79491507fffffffffffffffffffffffffffffffffffffffffffffffffffffffffffffff001682840152151560051b820101612f9e565b604051905f827fa16a46d94261c7517cc8ff89f61c0ce93598e3c849801011dee649a6a557d103549161309783611f84565b808352926001811690811561302857506001146130ba57610cc792500383610c95565b507fa16a46d94261c7517cc8ff89f61c0ce93598e3c849801011dee649a6a557d1035f90815290917f5f9ce34815f8e11431c7bb75a8e6886a91478f7ffc1dbb0a98dc240fddd76b755b81831061311c575050906020610cc792820101612f9e565b6020919350806001915483858901015201910190918492613104565b613169613144346135d5565b335f5260016020526106c360405f20916bffffffffffffffffffffffff835416612bd7565b6040513481527fe1fffcc4923d04b559f4d29a8bfc6cda04eb5b0d3c460751c2402c5c5cc9109c60203392a2565b9284906131a6929384866123ba565b5f5b8181106131b55750505050565b806131f36131c6600193858761227f565b358660206131d585888a61227f565b01356131ed60a06131e7878a8c61227f565b01611edf565b926134f3565b6131fe81848661227f565b357fcc611d18a8ca7881d594afc83d6cb63ae83d28d155975309f5ff633ecc64273061322e61254084878961227f565b906132406103ec612592878a8c61227f565b0390a2016131a8565b92919092613255614e25565b61325d614e25565b6001600160a01b038116156134c757613275906140db565b61327d614e25565b604092835161328c8582610c95565b601081527f49426f756e646c6573734d61726b65740000000000000000000000000000000060208201526132c285519586610c95565b600185527f310000000000000000000000000000000000000000000000000000000000000060208601526132f4614e25565b6132fc614e25565b80519067ffffffffffffffff82116105f6576133418261333c7fa16a46d94261c7517cc8ff89f61c0ce93598e3c849801011dee649a6a557d10254611f84565b612025565b602090601f83116001146133fe578261339e93610cc7979893613377935f926133f35750505f198260011b9260031b1c19161790565b7fa16a46d94261c7517cc8ff89f61c0ce93598e3c849801011dee649a6a557d10255614e7c565b6133c65f7fa16a46d94261c7517cc8ff89f61c0ce93598e3c849801011dee649a6a557d10055565b6133ee5f7fa16a46d94261c7517cc8ff89f61c0ce93598e3c849801011dee649a6a557d10155565b6120e3565b015190505f80610557565b7fa16a46d94261c7517cc8ff89f61c0ce93598e3c849801011dee649a6a557d1025f52601f19831691907f42ad5d3e1f2e6e70edcf6d991b8a3023d3fca8047a131592f9edb9fd9b89d57d925f5b8181106134af575092600192859261339e96610cc79a9b9610613497575b505050811b017fa16a46d94261c7517cc8ff89f61c0ce93598e3c849801011dee649a6a557d10255614e7c565b01515f1960f88460031b161c191690555f808061346a565b9293602060018192878601518155019501930161344c565b7f1e4fbdf7000000000000000000000000000000000000000000000000000000005f525f60045260245ffd5b91909392936135018361393b565b9061350b84613971565b6001600160a01b0383165f5260016020526135298160405f20613ff8565b9390156135935761353995614516565b915b825161354657509050565b156135545750602081519101fd5b9061358e7f210e4fd706e561df48472433bcc50b4589f2c13e784e9992f4c3e6de26eb356491604051918291602083526020830190611493565b0390a1565b61359c95614323565b9161353b565b6001600160a01b037f9016d09d72d40fdae2fd8ceac6b6234c7706214fd39c1cd1e609a0528c199300541633036113cd57565b6bffffffffffffffffffffffff81116135f9576bffffffffffffffffffffffff1690565b7f6dfcc650000000000000000000000000000000000000000000000000000000005f52606060045260245260445ffd5b6040519061363682610c5d565b5f6020838281520152565b60031115612c6a57565b905f608060405161365b81610c79565b82815282602082015261366c613629565b604082015282606082015201526136aa6040519161368b604084610c95565b5f83525f602084015261369c610cc9565b9081525f602082015261481d565b906136b3610cb8565b9283527fa3acc27117418996340b84e5a90f3ef4c49d22c79e44aad822ec9c313e1eb8e2602084015260408301525f6060830152608082015290565b60205f60126040517f72697363302e52656365697074436c61696d0000000000000000000000000000815260025afa15612501575f5190565b516003811015612c6a5790565b5f61382f60209261245d6137476136ef565b61244f60608401519380519088810151906040608082015191019061379e6137826137988d61378e6137798751613728565b61378281613641565b60181b63ff0000001690565b9551015160ff1690565b60ff1690565b9261040094604051998a988e8a019692947fffffffff000000000000000000000000000000000000000000000000000000009460aa999686947fffff00000000000000000000000000000000000000000000000000000000000099948b5260208b015260408a01526060890152608088015260e01b1660a086015260e01b1660a484015260f01b1660a88201520190565b039060025afa15612501575f5190565b9060018201809211612b2757565b91908201809211612b2757565b80511561146b576001815114613932578051905b600182116138845761388091506122c4565b5190565b6138966138908361383f565b60011c90565b925f5b6138a38460011c90565b8110156138f557806138e46138c26138bc600194612b2c565b866122d1565b516138dd6138d76138d285612b2c565b61383f565b876122d1565b51906148ab565b6138ee82866122d1565b5201613899565b5092909160018082161461390b575b509061386e565b61392b61392561391d6138bc84612bbc565b519260011c90565b846122d1565b525f613904565b613880906122c4565b7fffffffffffffffff000000000000000000000000000000000000000000000000811661146b5760201c6001600160a01b031690565b7fffffffffffffffff000000000000000000000000000000000000000000000000811661146b5763ffffffff1690565b604051906139b0606083610c95565b602182527f29000000000000000000000000000000000000000000000000000000000000006040837f496e7075742875696e743820696e707574547970652c6279746573206461746160208201520152565b60405190613a1160a083610c95565b607382527f696e74323536206c6f636b696e5374616b6529000000000000000000000000006080837f4f666665722875696e74323536206d696e50726963652c75696e74323536206d60208201527f617850726963652c75696e7436342062696464696e6753746172742c75696e7460408201527f33322072616d705570506572696f642c75696e7433322074696d656f75742c7560608201520152565b60405190613abe606083610c95565b602982527f74657320646174612900000000000000000000000000000000000000000000006040837f5072656469636174652875696e743820707265646963617465547970652c627960208201520152565b60405190613b1f606083610c95565b603182527f64696361746520707265646963617465290000000000000000000000000000006040837f526571756972656d656e7473286279746573333220696d61676549642c50726560208201520152565b604051613b7f608082610c95565b605a81527f50726f6f66526571756573742875696e743235362069642c526571756972656d60208201527f656e747320726571756972656d656e74732c737472696e6720696d616765557260408201527f6c2c496e70757420696e7075742c4f66666572206f66666572290000000000006060820152613c39613c3f613c036139a1565b61244f613c0e613a02565b613c39613c19613aaf565b613c39613c24613b10565b93604051988997613c3960208a01809d612384565b90612384565b51902090613cb5815161244f613c5860208501516148cc565b9360408101516020815191012090613c806080613c78606084015161497c565b9201516149d0565b9160405196879560208701998a9260a094919796959260c0850198855260208501526040840152606083015260808201520152565b51902090565b604290613cc6614ca0565b90604051917f19010000000000000000000000000000000000000000000000000000000000008352600283015260228201522090565b93929093613d28611cd2613d21866001600160a01b03165f52600360205260405f2090565b5460ff1690565b613fb157613d378284836141dd565b613d55859792976001600160a01b03165f52600160205260405f2090565b94613d6c86546bffffffffffffffffffffffff1690565b906bffffffffffffffffffffffff89166bffffffffffffffffffffffff831610613f7d57506bffffffffffffffffffffffff90613dba886001600160a01b03165f52600160205260405f2090565b90613dd182546bffffffffffffffffffffffff1690565b6101208701359384911610613f48578990036bffffffffffffffffffffffff1687547fffffffffffffffffffffffffffffffffffffffff000000000000000000000000166bffffffffffffffffffffffff909116178755613e31826135d5565b81547fffffffffffffffffffffffffffffffffffffffff00000000000000000000000081166bffffffffffffffffffffffff9182169290920316179055613e77906135d5565b90613e80610cb8565b6001600160a01b0388168152976bffffffffffffffffffffffff16602089015267ffffffffffffffff1660408801526bffffffffffffffffffffffff1660608701527fffffffffffffffff0000000000000000000000000000000000000000000000001660808601523593613efc855f525f60205260405f2090565b90613f06916129f1565b613f0f916150b0565b6040516001600160a01b039190911681527f9ebadb3d1426a54ca0fe80cec48fbd43b593762da25661849bb6e37d6e3f196e90602090a2565b7f897f6c58000000000000000000000000000000000000000000000000000000005f526001600160a01b03891660045260245ffd5b7f897f6c58000000000000000000000000000000000000000000000000000000005f526001600160a01b031660045260245ffd5b7f4c99dc78000000000000000000000000000000000000000000000000000000005f526001600160a01b03841660045260245ffd5b63020000008210156122bf5701905f90565b9063ffffffff16605081101561407157614050614019614061935460601c90565b614049600361403661402a86612b5c565b6001600160a01b031690565b6001600160a01b038080931691161b1690565b1691612b5c565b6001600160a01b03809216901c1690565b9060026001831615159216151590565b6137986140ae6140a461408860506140b495612bca565b94600161409d61409788612b5c565b60081c90565b9101613fe6565b90549060031b1c90565b92612b5c565b906003821b16901c9060026001831615159216151590565b908160209103126102d8575190565b7fffffffffffffffffffffffff00000000000000000000000000000000000000007f237e158222e3e6968b72b9db0d8043aacf074ad9f650f0d1606b4d82ee432c0054167f237e158222e3e6968b72b9db0d8043aacf074ad9f650f0d1606b4d82ee432c00556001600160a01b03807f9016d09d72d40fdae2fd8ceac6b6234c7706214fd39c1cd1e609a0528c19930054921691827fffffffffffffffffffffffff00000000000000000000000000000000000000008216177f9016d09d72d40fdae2fd8ceac6b6234c7706214fd39c1cd1e609a0528c19930055167f8be0079c531659141344cd1fd0a4f28419497f9722a3daafe3b4186f6b6457e05f80a3565b9291909260808101916141f03684612737565b63ffffffff60608201511663ffffffff6080830151161061146b57602081519101511061146b5761425061424b61424361423e61422d3688612737565b67ffffffffffffffff431690614d23565b6135d5565b943690612737565b614e01565b944367ffffffffffffffff8716106142e85790610a01614281926001600160a01b03165f52600160205260405f2090565b906142bb5761428f57509190565b7f1cfdeebb000000000000000000000000000000000000000000000000000000005f523560045260245ffd5b7fa9057651000000000000000000000000000000000000000000000000000000005f52813560045260245ffd5b7f873fd26b000000000000000000000000000000000000000000000000000000005f52823560045267ffffffffffffffff861660245260445ffd5b929593949190956060956144d05761433b905c614fee565b92614349611cd28551151590565b6144875761437261436b886001600160a01b03165f52600160205260405f2090565b928361517c565b604051907f1cedb001a5114ea90393cd9f134224e9e1312545ee8a9b9533d780be6a9bf8b75f80a260206143b283546bffffffffffffffffffffffff1690565b9401906143ce61065883516bffffffffffffffffffffffff1690565b6bffffffffffffffffffffffff86161061443a5750610cc79495965091614423610b2f926106c361440e6106c396516bffffffffffffffffffffffff1690565b968790036bffffffffffffffffffffffff1690565b6001600160a01b03165f52600160205260405f2090565b7f897f6c580000000000000000000000000000000000000000000000000000000060208201526001600160a01b0390971660248801525092949350610d549250839150506044810161244f565b92505050610d5491935061244f92506040519283917f55024167000000000000000000000000000000000000000000000000000000006020840152602483019190602083019252565b50506040517f1cfdeebb0000000000000000000000000000000000000000000000000000000060208201526024810192909252509092509050610d54816044810161244f565b9293959491606096614532610a20865f525f60205260405f2090565b956001600160a01b0361454c88516001600160a01b031690565b16156147d3577fffffffffffffffff0000000000000000000000000000000000000000000000006145a060808901517fffffffffffffffff0000000000000000000000000000000000000000000000001690565b9116807fffffffffffffffff00000000000000000000000000000000000000000000000083160361477b5750501561472c575b5050604083015167ffffffffffffffff164381106146d957506001600160a01b038061460685516001600160a01b031690565b9216911603614696579061464b610cc792610a9c614622610cb8565b915f83525f60208401525f60408401525f60608401525f60808401525f525f60205260405f2090565b6106c3610b2f61442361468861467060208601516bffffffffffffffffffffffff1690565b60608601516bffffffffffffffffffffffff16610b11565b93516001600160a01b031690565b6040517fa90576510000000000000000000000000000000000000000000000000000000060208201526024810191909152919250610d549050816044810161244f565b6040517f873fd26b000000000000000000000000000000000000000000000000000000006020820152602481019390935267ffffffffffffffff16604483015250919250610d549050816064810161244f565b61474a61474f926001600160a01b03165f52600160205260405f2090565b61517c565b817f1cedb001a5114ea90393cd9f134224e9e1312545ee8a9b9533d780be6a9bf8b75f80a25f806145d3565b7f4393c9aa000000000000000000000000000000000000000000000000000000005f5260048790527fffffffffffffffff0000000000000000000000000000000000000000000000009081166024521660445260645ffd5b505050505061244f929350610d5491506040519283917f1cfdeebb000000000000000000000000000000000000000000000000000000006020840152602483019190602083019252565b60205f600c6040517f72697363302e4f75747075740000000000000000000000000000000000000000815260025afa15612501575f80518251602093840151604080518087019490945283019190915260608201527f020000000000000000000000000000000000000000000000000000000000000060808201526062815261382f9061245d608282610c95565b818110156148bf575f5260205260405f2090565b905f5260205260405f2090565b6148d4613b10565b61244f6148f66148e2613aaf565b604051928391613c39602084018097612384565b51902090613cb56020825192015161490c613aaf565b6020815191012090602081519161492283612c60565b015160208151910120604051916020830193845261493f81612c60565b6040830152606082015260608152614958608082610c95565b5190206040805160208101958652908101939093526060830152816080810161244f565b6149846139a1565b6020815191012090602081519161499a83612c60565b01516020815191012060405191602083019384526149b781612c60565b6040830152606082015260608152613cb5608082610c95565b6149d8613a02565b6040516149ed8161244f602082018095612384565b51902090613cb5815161244f60208401519367ffffffffffffffff6040820151169063ffffffff60608201511660a0614a2d608084015163ffffffff1690565b92015192604051978896602088019a8b939467ffffffffffffffff60c09663ffffffff9586949b9a999560e089019c8952602089015260408801521660608601521660808401521660a08201520152565b8151919060418303614aae57614aa79250602082015190606060408401519301515f1a9061502e565b9192909190565b50505f9160029190565b60041115612c6a57565b614acb81614ab8565b80614ad4575050565b614add81614ab8565b60018103614b0d577ff645eedf000000000000000000000000000000000000000000000000000000005f5260045ffd5b614b1681614ab8565b60028103614b4a57507ffce698f7000000000000000000000000000000000000000000000000000000005f5260045260245ffd5b80614b56600392614ab8565b14614b5e5750565b7fd78bce0c000000000000000000000000000000000000000000000000000000005f5260045260245ffd5b90813b15614c6b576001600160a01b038216807fffffffffffffffffffffffff00000000000000000000000000000000000000007f360894a13ba1a3210667c828492db98dca3e2076cc3735a920a3ca505d382bbc5416177f360894a13ba1a3210667c828492db98dca3e2076cc3735a920a3ca505d382bbc557fbc7cd75a20ee27fd9adebab32041f755214dbc6bffa90cc0225b39da2e5c2d3b5f80a2805115614c3a57614c37916151f6565b50565b505034614c4357565b7fb398979f000000000000000000000000000000000000000000000000000000005f5260045ffd5b6001600160a01b03827f4c9c8ce3000000000000000000000000000000000000000000000000000000005f521660045260245ffd5b614ca8615213565b614cb061527d565b6040519060208201927f8b73c3c69bb8fe3d512ecc4cf759cc79239f7b179b0ffacaa9a75d522b39400f8452604083015260608201524660808201523060a082015260a08152613cb560c082610c95565b9067ffffffffffffffff8091169116019067ffffffffffffffff8211612b2757565b6040810191614d3a835167ffffffffffffffff1690565b9067ffffffffffffffff808316911690811115614df957614d89614d7c6060850193614d76614d6d865163ffffffff1690565b63ffffffff1690565b90614d01565b67ffffffffffffffff1690565b811115614d9b57505060209150015190565b92614dee614df392614de6610d5496614de0614d7c614dd1614d6d614dc660208c01518c5190612bca565b965163ffffffff1690565b965167ffffffffffffffff1690565b90612bca565b945194612b72565b612b85565b9061384d565b505090505190565b610d549063ffffffff608067ffffffffffffffff6040840151169201511690614d01565b60ff7ff0c57e16840df040f15088dc2f81fe391c3923bec73e23a9662efc9c229c6a005460401c1615614e5457565b7fd7e6bcf8000000000000000000000000000000000000000000000000000000005f5260045ffd5b90815167ffffffffffffffff81116105f657614ee281614ebc7fa16a46d94261c7517cc8ff89f61c0ce93598e3c849801011dee649a6a557d10354611f84565b7fa16a46d94261c7517cc8ff89f61c0ce93598e3c849801011dee649a6a557d103612094565b602092601f8211600114614f3457614f10929382915f926133f35750505f198260011b9260031b1c19161790565b7fa16a46d94261c7517cc8ff89f61c0ce93598e3c849801011dee649a6a557d10355565b7fa16a46d94261c7517cc8ff89f61c0ce93598e3c849801011dee649a6a557d1035f52601f198216937f5f9ce34815f8e11431c7bb75a8e6886a91478f7ffc1dbb0a98dc240fddd76b75915f5b868110614fd65750836001959610614fbe575b505050811b017fa16a46d94261c7517cc8ff89f61c0ce93598e3c849801011dee649a6a557d10355565b01515f1960f88460031b161c191690555f8080614f94565b91926020600181928685015181550194019201614f81565b614ff6613629565b506bffffffffffffffffffffffff6040519161501183610c5d565b6c0100000000000000000000000081161515835216602082015290565b91907f7fffffffffffffffffffffffffffffff5d576e7357a4501ddfe92f46681b20a084116150a5579160209360809260ff5f9560405194855216868401526040830152606082015282805260015afa15612501575f516001600160a01b0381161561509b57905f905f90565b505f906001905f90565b5050505f9160039190565b9063ffffffff16605081101561512657906150e56150d361402a610cc794612b5c565b60016001600160a01b039182161b1690565b815460601c82546bffffffffffffffffffffffff16911760601b7fffffffffffffffffffffffffffffffffffffffff00000000000000000000000016179055565b60508103908111612b2757615159610cc792600161514f60ff61514886612b5c565b1694612b5c565b60081c9101613fe6565b9091600183548360031b1c911b17905f1983549160031b92831b921b1916179055565b9063ffffffff1660508110156151b157906150e561519f61402a610cc794612b5c565b60026001600160a01b039182161b1690565b60508103908111612b27576151d3610cc792600161514f60ff61514886612b5c565b9091600283548360031b1c911b17905f1983549160031b92831b921b1916179055565b5f80610d5493602081519101845af461520d6121b8565b916152c2565b61521b612f54565b805190811561522b576020012090565b50507fa16a46d94261c7517cc8ff89f61c0ce93598e3c849801011dee649a6a557d1005480156152585790565b507fc5d2460186f7233c927e7db2dcc703c0e500b653ca82273b7bfad8045d85a47090565b615285613065565b8051908115615295576020012090565b50507fa16a46d94261c7517cc8ff89f61c0ce93598e3c849801011dee649a6a557d1015480156152585790565b906152ff57508051156152d757805190602001fd5b7fd6bda275000000000000000000000000000000000000000000000000000000005f5260045ffd5b81511580615345575b615310575090565b6001600160a01b03907f9996b315000000000000000000000000000000000000000000000000000000005f521660045260245ffd5b50803b1561530856fea264697066735822122026b45f668dd835aa627f2bb32127f52b7818d6ee384e8d4e338b6396a691c07d64736f6c634300081a0033","linkReferences":{}},"methodIdentifiers":{"ASSESSOR_ID()":"9fe9428c","FULFILL_MAX_GAS_FOR_VERIFY()":"515990bc","MARKET_FEE_DENOMINATOR()":"d5b2d3b6","MARKET_FEE_NUMERATOR()":"27a95ad4","SLASHING_BURN_FRACTION_DENOMINATOR()":"2258ed61","SLASHING_BURN_FRACTION_NUMERATOR()":"47f6137b","UPGRADE_INTERFACE_VERSION()":"ad3cb1cc","VERIFIER()":"08c84e70","VERSION()":"ffa1ad74","acceptOwnership()":"79ba5097","addProverToAppnetAllowlist(address)":"0fd9613f","balanceOf(address)":"70a08231","deposit()":"d0e30db0","eip712Domain()":"84b0196e","eip712DomainSeparator()":"5b07fdd8","fulfill((uint256,bytes32,bytes32,bytes,bytes,bool),bytes,address)":"0621430f","fulfillBatch((uint256,bytes32,bytes32,bytes,bytes,bool)[],bytes,address)":"e769a2f0","imageInfo()":"cdc97123","initialize(address,string)":"f399e22e","lockin((uint256,(bytes32,(uint8,bytes)),string,(uint8,bytes),(uint256,uint256,uint64,uint32,uint32,uint256)),bytes)":"4f7f7044","lockinWithSig((uint256,(bytes32,(uint8,bytes)),string,(uint8,bytes),(uint256,uint256,uint64,uint32,uint32,uint256)),bytes,bytes)":"40b02097","owner()":"8da5cb5b","pendingOwner()":"e30c3978","priceAndFulfillBatch((uint256,(bytes32,(uint8,bytes)),string,(uint8,bytes),(uint256,uint256,uint64,uint32,uint32,uint256))[],bytes[],(uint256,bytes32,bytes32,bytes,bytes,bool)[],bytes,address)":"8cb1fb33","priceRequest((uint256,(bytes32,(uint8,bytes)),string,(uint8,bytes),(uint256,uint256,uint64,uint32,uint32,uint256)),bytes)":"84eecae2","proxiableUUID()":"52d1902d","removeProverFromAppnetAllowlist(address)":"5b8ca65c","renounceOwnership()":"715018a6","requestDeadline(uint256)":"41451f94","requestIsFulfilled(uint256)":"81bf6c24","requestIsLocked(uint256)":"cb74db11","requestLocks(uint256)":"c515c15f","setImageUrl(string)":"2abff1f2","slash(uint256)":"45bc4d10","submitRequest((uint256,(bytes32,(uint8,bytes)),string,(uint8,bytes),(uint256,uint256,uint64,uint32,uint32,uint256)),bytes)":"5a52d678","submitRootAndFulfillBatch(bytes32,bytes,(uint256,bytes32,bytes32,bytes,bytes,bool)[],bytes,address)":"ad4b01e6","transferOwnership(address)":"f2fde38b","upgradeToAndCall(address,bytes)":"4f1ef286","verifyBatchDelivery((uint256,bytes32,bytes32,bytes,bytes,bool)[],bytes,address)":"3f5618e0","verifyDelivery((uint256,bytes32,bytes32,bytes,bytes,bool),bytes,address)":"459cc647","verifyRequestSignature(address,(uint256,(bytes32,(uint8,bytes)),string,(uint8,bytes),(uint256,uint256,uint64,uint32,uint32,uint256)),bytes)":"b3191270","withdraw(uint256)":"2e1a7d4d"},"storageLayout":{"storage":[{"astId":1555,"contract":"contracts/src/BoundlessMarket.sol:BoundlessMarket","label":"requestLocks","offset":0,"slot":"0","type":"t_mapping(t_uint256,t_struct(RequestLock)1442_storage)"},{"astId":1560,"contract":"contracts/src/BoundlessMarket.sol:BoundlessMarket","label":"accounts","offset":0,"slot":"1","type":"t_mapping(t_address,t_struct(Account)1174_storage)"},{"astId":1569,"contract":"contracts/src/BoundlessMarket.sol:BoundlessMarket","label":"imageUrl","offset":0,"slot":"2","type":"t_string_storage"},{"astId":1585,"contract":"contracts/src/BoundlessMarket.sol:BoundlessMarket","label":"appnetProverLockinAllowlist","offset":0,"slot":"3","type":"t_mapping(t_address,t_bool)"},{"astId":1595,"contract":"contracts/src/BoundlessMarket.sol:BoundlessMarket","label":"marketBalance","offset":0,"slot":"4","type":"t_uint256"}],"types":{"t_address":{"encoding":"inplace","label":"address","numberOfBytes":"20"},"t_array(t_uint256)33554432_storage":{"encoding":"inplace","label":"uint256[33554432]","numberOfBytes":"1073741824","base":"t_uint256"},"t_bool":{"encoding":"inplace","label":"bool","numberOfBytes":"1"},"t_bytes8":{"encoding":"inplace","label":"bytes8","numberOfBytes":"8"},"t_mapping(t_address,t_bool)":{"encoding":"mapping","key":"t_address","label":"mapping(address => bool)","numberOfBytes":"32","value":"t_bool"},"t_mapping(t_address,t_struct(Account)1174_storage)":{"encoding":"mapping","key":"t_address","label":"mapping(address => struct Account)","numberOfBytes":"32","value":"t_struct(Account)1174_storage"},"t_mapping(t_uint256,t_struct(RequestLock)1442_storage)":{"encoding":"mapping","key":"t_uint256","label":"mapping(uint256 => struct RequestLock)","numberOfBytes":"32","value":"t_struct(RequestLock)1442_storage"},"t_string_storage":{"encoding":"bytes","label":"string","numberOfBytes":"32"},"t_struct(Account)1174_storage":{"encoding":"inplace","label":"struct Account","numberOfBytes":"1073741856","members":[{"astId":1158,"contract":"contracts/src/BoundlessMarket.sol:BoundlessMarket","label":"balance","offset":0,"slot":"0","type":"t_uint96"},{"astId":1161,"contract":"contracts/src/BoundlessMarket.sol:BoundlessMarket","label":"requestFlagsInitial","offset":12,"slot":"0","type":"t_uint160"},{"astId":1173,"contract":"contracts/src/BoundlessMarket.sol:BoundlessMarket","label":"requestFlagsExtended","offset":0,"slot":"1","type":"t_array(t_uint256)33554432_storage"}]},"t_struct(RequestLock)1442_storage":{"encoding":"inplace","label":"struct RequestLock","numberOfBytes":"64","members":[{"astId":1432,"contract":"contracts/src/BoundlessMarket.sol:BoundlessMarket","label":"prover","offset":0,"slot":"0","type":"t_address"},{"astId":1434,"contract":"contracts/src/BoundlessMarket.sol:BoundlessMarket","label":"price","offset":20,"slot":"0","type":"t_uint96"},{"astId":1436,"contract":"contracts/src/BoundlessMarket.sol:BoundlessMarket","label":"deadline","offset":0,"slot":"1","type":"t_uint64"},{"astId":1438,"contract":"contracts/src/BoundlessMarket.sol:BoundlessMarket","label":"stake","offset":8,"slot":"1","type":"t_uint96"},{"astId":1441,"contract":"contracts/src/BoundlessMarket.sol:BoundlessMarket","label":"fingerprint","offset":20,"slot":"1","type":"t_bytes8"}]},"t_uint160":{"encoding":"inplace","label":"uint160","numberOfBytes":"20"},"t_uint256":{"encoding":"inplace","label":"uint256","numberOfBytes":"32"},"t_uint64":{"encoding":"inplace","label":"uint64","numberOfBytes":"8"},"t_uint96":{"encoding":"inplace","label":"uint96","numberOfBytes":"12"}}},"id":4}