{"abi":[{"type":"constructor","inputs":[{"name":"verifier","type":"address","internalType":"contract IRiscZeroVerifier"},{"name":"assessorId","type":"bytes32","internalType":"bytes32"},{"name":"stakeTokenContract","type":"address","internalType":"address"}],"stateMutability":"nonpayable"},{"type":"function","name":"ASSESSOR_ID","inputs":[],"outputs":[{"name":"","type":"bytes32","internalType":"bytes32"}],"stateMutability":"view"},{"type":"function","name":"FULFILL_MAX_GAS_FOR_VERIFY","inputs":[],"outputs":[{"name":"","type":"uint256","internalType":"uint256"}],"stateMutability":"view"},{"type":"function","name":"MARKET_FEE_BPS","inputs":[],"outputs":[{"name":"","type":"uint96","internalType":"uint96"}],"stateMutability":"view"},{"type":"function","name":"SLASHING_BURN_BPS","inputs":[],"outputs":[{"name":"","type":"uint256","internalType":"uint256"}],"stateMutability":"view"},{"type":"function","name":"STAKE_TOKEN_CONTRACT","inputs":[],"outputs":[{"name":"","type":"address","internalType":"address"}],"stateMutability":"view"},{"type":"function","name":"UPGRADE_INTERFACE_VERSION","inputs":[],"outputs":[{"name":"","type":"string","internalType":"string"}],"stateMutability":"view"},{"type":"function","name":"VERIFIER","inputs":[],"outputs":[{"name":"","type":"address","internalType":"contract IRiscZeroVerifier"}],"stateMutability":"view"},{"type":"function","name":"VERSION","inputs":[],"outputs":[{"name":"","type":"uint64","internalType":"uint64"}],"stateMutability":"view"},{"type":"function","name":"acceptOwnership","inputs":[],"outputs":[],"stateMutability":"nonpayable"},{"type":"function","name":"balanceOf","inputs":[{"name":"addr","type":"address","internalType":"address"}],"outputs":[{"name":"","type":"uint256","internalType":"uint256"}],"stateMutability":"view"},{"type":"function","name":"balanceOfStake","inputs":[{"name":"addr","type":"address","internalType":"address"}],"outputs":[{"name":"","type":"uint256","internalType":"uint256"}],"stateMutability":"view"},{"type":"function","name":"deposit","inputs":[],"outputs":[],"stateMutability":"payable"},{"type":"function","name":"depositStake","inputs":[{"name":"value","type":"uint256","internalType":"uint256"}],"outputs":[],"stateMutability":"nonpayable"},{"type":"function","name":"depositStakeWithPermit","inputs":[{"name":"value","type":"uint256","internalType":"uint256"},{"name":"deadline","type":"uint256","internalType":"uint256"},{"name":"v","type":"uint8","internalType":"uint8"},{"name":"r","type":"bytes32","internalType":"bytes32"},{"name":"s","type":"bytes32","internalType":"bytes32"}],"outputs":[],"stateMutability":"nonpayable"},{"type":"function","name":"eip712Domain","inputs":[],"outputs":[{"name":"fields","type":"bytes1","internalType":"bytes1"},{"name":"name","type":"string","internalType":"string"},{"name":"version","type":"string","internalType":"string"},{"name":"chainId","type":"uint256","internalType":"uint256"},{"name":"verifyingContract","type":"address","internalType":"address"},{"name":"salt","type":"bytes32","internalType":"bytes32"},{"name":"extensions","type":"uint256[]","internalType":"uint256[]"}],"stateMutability":"view"},{"type":"function","name":"eip712DomainSeparator","inputs":[],"outputs":[{"name":"","type":"bytes32","internalType":"bytes32"}],"stateMutability":"view"},{"type":"function","name":"fulfill","inputs":[{"name":"fill","type":"tuple","internalType":"struct Fulfillment","components":[{"name":"id","type":"uint256","internalType":"RequestId"},{"name":"requestDigest","type":"bytes32","internalType":"bytes32"},{"name":"imageId","type":"bytes32","internalType":"bytes32"},{"name":"journal","type":"bytes","internalType":"bytes"},{"name":"seal","type":"bytes","internalType":"bytes"},{"name":"requirePayment","type":"bool","internalType":"bool"}]},{"name":"assessorReceipt","type":"tuple","internalType":"struct AssessorReceipt","components":[{"name":"seal","type":"bytes","internalType":"bytes"},{"name":"callbacks","type":"tuple[]","internalType":"struct AssessorCallback[]","components":[{"name":"index","type":"uint16","internalType":"uint16"},{"name":"addr","type":"address","internalType":"address"},{"name":"gasLimit","type":"uint96","internalType":"uint96"}]},{"name":"selectors","type":"tuple[]","internalType":"struct Selector[]","components":[{"name":"index","type":"uint16","internalType":"uint16"},{"name":"value","type":"bytes4","internalType":"bytes4"}]},{"name":"prover","type":"address","internalType":"address"}]}],"outputs":[],"stateMutability":"nonpayable"},{"type":"function","name":"fulfillAndWithdraw","inputs":[{"name":"fill","type":"tuple","internalType":"struct Fulfillment","components":[{"name":"id","type":"uint256","internalType":"RequestId"},{"name":"requestDigest","type":"bytes32","internalType":"bytes32"},{"name":"imageId","type":"bytes32","internalType":"bytes32"},{"name":"journal","type":"bytes","internalType":"bytes"},{"name":"seal","type":"bytes","internalType":"bytes"},{"name":"requirePayment","type":"bool","internalType":"bool"}]},{"name":"assessorReceipt","type":"tuple","internalType":"struct AssessorReceipt","components":[{"name":"seal","type":"bytes","internalType":"bytes"},{"name":"callbacks","type":"tuple[]","internalType":"struct AssessorCallback[]","components":[{"name":"index","type":"uint16","internalType":"uint16"},{"name":"addr","type":"address","internalType":"address"},{"name":"gasLimit","type":"uint96","internalType":"uint96"}]},{"name":"selectors","type":"tuple[]","internalType":"struct Selector[]","components":[{"name":"index","type":"uint16","internalType":"uint16"},{"name":"value","type":"bytes4","internalType":"bytes4"}]},{"name":"prover","type":"address","internalType":"address"}]}],"outputs":[],"stateMutability":"nonpayable"},{"type":"function","name":"fulfillBatch","inputs":[{"name":"fills","type":"tuple[]","internalType":"struct Fulfillment[]","components":[{"name":"id","type":"uint256","internalType":"RequestId"},{"name":"requestDigest","type":"bytes32","internalType":"bytes32"},{"name":"imageId","type":"bytes32","internalType":"bytes32"},{"name":"journal","type":"bytes","internalType":"bytes"},{"name":"seal","type":"bytes","internalType":"bytes"},{"name":"requirePayment","type":"bool","internalType":"bool"}]},{"name":"assessorReceipt","type":"tuple","internalType":"struct AssessorReceipt","components":[{"name":"seal","type":"bytes","internalType":"bytes"},{"name":"callbacks","type":"tuple[]","internalType":"struct AssessorCallback[]","components":[{"name":"index","type":"uint16","internalType":"uint16"},{"name":"addr","type":"address","internalType":"address"},{"name":"gasLimit","type":"uint96","internalType":"uint96"}]},{"name":"selectors","type":"tuple[]","internalType":"struct Selector[]","components":[{"name":"index","type":"uint16","internalType":"uint16"},{"name":"value","type":"bytes4","internalType":"bytes4"}]},{"name":"prover","type":"address","internalType":"address"}]}],"outputs":[],"stateMutability":"nonpayable"},{"type":"function","name":"fulfillBatchAndWithdraw","inputs":[{"name":"fills","type":"tuple[]","internalType":"struct Fulfillment[]","components":[{"name":"id","type":"uint256","internalType":"RequestId"},{"name":"requestDigest","type":"bytes32","internalType":"bytes32"},{"name":"imageId","type":"bytes32","internalType":"bytes32"},{"name":"journal","type":"bytes","internalType":"bytes"},{"name":"seal","type":"bytes","internalType":"bytes"},{"name":"requirePayment","type":"bool","internalType":"bool"}]},{"name":"assessorReceipt","type":"tuple","internalType":"struct AssessorReceipt","components":[{"name":"seal","type":"bytes","internalType":"bytes"},{"name":"callbacks","type":"tuple[]","internalType":"struct AssessorCallback[]","components":[{"name":"index","type":"uint16","internalType":"uint16"},{"name":"addr","type":"address","internalType":"address"},{"name":"gasLimit","type":"uint96","internalType":"uint96"}]},{"name":"selectors","type":"tuple[]","internalType":"struct Selector[]","components":[{"name":"index","type":"uint16","internalType":"uint16"},{"name":"value","type":"bytes4","internalType":"bytes4"}]},{"name":"prover","type":"address","internalType":"address"}]}],"outputs":[],"stateMutability":"nonpayable"},{"type":"function","name":"imageInfo","inputs":[],"outputs":[{"name":"","type":"bytes32","internalType":"bytes32"},{"name":"","type":"string","internalType":"string"}],"stateMutability":"view"},{"type":"function","name":"initialize","inputs":[{"name":"initialOwner","type":"address","internalType":"address"},{"name":"_imageUrl","type":"string","internalType":"string"}],"outputs":[],"stateMutability":"nonpayable"},{"type":"function","name":"lockRequest","inputs":[{"name":"request","type":"tuple","internalType":"struct ProofRequest","components":[{"name":"id","type":"uint256","internalType":"RequestId"},{"name":"requirements","type":"tuple","internalType":"struct Requirements","components":[{"name":"imageId","type":"bytes32","internalType":"bytes32"},{"name":"callback","type":"tuple","internalType":"struct Callback","components":[{"name":"addr","type":"address","internalType":"address"},{"name":"gasLimit","type":"uint96","internalType":"uint96"}]},{"name":"predicate","type":"tuple","internalType":"struct Predicate","components":[{"name":"predicateType","type":"uint8","internalType":"enum PredicateType"},{"name":"data","type":"bytes","internalType":"bytes"}]},{"name":"selector","type":"bytes4","internalType":"bytes4"}]},{"name":"imageUrl","type":"string","internalType":"string"},{"name":"input","type":"tuple","internalType":"struct Input","components":[{"name":"inputType","type":"uint8","internalType":"enum InputType"},{"name":"data","type":"bytes","internalType":"bytes"}]},{"name":"offer","type":"tuple","internalType":"struct Offer","components":[{"name":"minPrice","type":"uint256","internalType":"uint256"},{"name":"maxPrice","type":"uint256","internalType":"uint256"},{"name":"biddingStart","type":"uint64","internalType":"uint64"},{"name":"rampUpPeriod","type":"uint32","internalType":"uint32"},{"name":"lockTimeout","type":"uint32","internalType":"uint32"},{"name":"timeout","type":"uint32","internalType":"uint32"},{"name":"lockStake","type":"uint256","internalType":"uint256"}]}]},{"name":"clientSignature","type":"bytes","internalType":"bytes"}],"outputs":[],"stateMutability":"nonpayable"},{"type":"function","name":"lockRequestWithSignature","inputs":[{"name":"request","type":"tuple","internalType":"struct ProofRequest","components":[{"name":"id","type":"uint256","internalType":"RequestId"},{"name":"requirements","type":"tuple","internalType":"struct Requirements","components":[{"name":"imageId","type":"bytes32","internalType":"bytes32"},{"name":"callback","type":"tuple","internalType":"struct Callback","components":[{"name":"addr","type":"address","internalType":"address"},{"name":"gasLimit","type":"uint96","internalType":"uint96"}]},{"name":"predicate","type":"tuple","internalType":"struct Predicate","components":[{"name":"predicateType","type":"uint8","internalType":"enum PredicateType"},{"name":"data","type":"bytes","internalType":"bytes"}]},{"name":"selector","type":"bytes4","internalType":"bytes4"}]},{"name":"imageUrl","type":"string","internalType":"string"},{"name":"input","type":"tuple","internalType":"struct Input","components":[{"name":"inputType","type":"uint8","internalType":"enum InputType"},{"name":"data","type":"bytes","internalType":"bytes"}]},{"name":"offer","type":"tuple","internalType":"struct Offer","components":[{"name":"minPrice","type":"uint256","internalType":"uint256"},{"name":"maxPrice","type":"uint256","internalType":"uint256"},{"name":"biddingStart","type":"uint64","internalType":"uint64"},{"name":"rampUpPeriod","type":"uint32","internalType":"uint32"},{"name":"lockTimeout","type":"uint32","internalType":"uint32"},{"name":"timeout","type":"uint32","internalType":"uint32"},{"name":"lockStake","type":"uint256","internalType":"uint256"}]}]},{"name":"clientSignature","type":"bytes","internalType":"bytes"},{"name":"proverSignature","type":"bytes","internalType":"bytes"}],"outputs":[],"stateMutability":"nonpayable"},{"type":"function","name":"owner","inputs":[],"outputs":[{"name":"","type":"address","internalType":"address"}],"stateMutability":"view"},{"type":"function","name":"pendingOwner","inputs":[],"outputs":[{"name":"","type":"address","internalType":"address"}],"stateMutability":"view"},{"type":"function","name":"priceAndFulfill","inputs":[{"name":"request","type":"tuple","internalType":"struct ProofRequest","components":[{"name":"id","type":"uint256","internalType":"RequestId"},{"name":"requirements","type":"tuple","internalType":"struct Requirements","components":[{"name":"imageId","type":"bytes32","internalType":"bytes32"},{"name":"callback","type":"tuple","internalType":"struct Callback","components":[{"name":"addr","type":"address","internalType":"address"},{"name":"gasLimit","type":"uint96","internalType":"uint96"}]},{"name":"predicate","type":"tuple","internalType":"struct Predicate","components":[{"name":"predicateType","type":"uint8","internalType":"enum PredicateType"},{"name":"data","type":"bytes","internalType":"bytes"}]},{"name":"selector","type":"bytes4","internalType":"bytes4"}]},{"name":"imageUrl","type":"string","internalType":"string"},{"name":"input","type":"tuple","internalType":"struct Input","components":[{"name":"inputType","type":"uint8","internalType":"enum InputType"},{"name":"data","type":"bytes","internalType":"bytes"}]},{"name":"offer","type":"tuple","internalType":"struct Offer","components":[{"name":"minPrice","type":"uint256","internalType":"uint256"},{"name":"maxPrice","type":"uint256","internalType":"uint256"},{"name":"biddingStart","type":"uint64","internalType":"uint64"},{"name":"rampUpPeriod","type":"uint32","internalType":"uint32"},{"name":"lockTimeout","type":"uint32","internalType":"uint32"},{"name":"timeout","type":"uint32","internalType":"uint32"},{"name":"lockStake","type":"uint256","internalType":"uint256"}]}]},{"name":"clientSignature","type":"bytes","internalType":"bytes"},{"name":"fill","type":"tuple","internalType":"struct Fulfillment","components":[{"name":"id","type":"uint256","internalType":"RequestId"},{"name":"requestDigest","type":"bytes32","internalType":"bytes32"},{"name":"imageId","type":"bytes32","internalType":"bytes32"},{"name":"journal","type":"bytes","internalType":"bytes"},{"name":"seal","type":"bytes","internalType":"bytes"},{"name":"requirePayment","type":"bool","internalType":"bool"}]},{"name":"assessorReceipt","type":"tuple","internalType":"struct AssessorReceipt","components":[{"name":"seal","type":"bytes","internalType":"bytes"},{"name":"callbacks","type":"tuple[]","internalType":"struct AssessorCallback[]","components":[{"name":"index","type":"uint16","internalType":"uint16"},{"name":"addr","type":"address","internalType":"address"},{"name":"gasLimit","type":"uint96","internalType":"uint96"}]},{"name":"selectors","type":"tuple[]","internalType":"struct Selector[]","components":[{"name":"index","type":"uint16","internalType":"uint16"},{"name":"value","type":"bytes4","internalType":"bytes4"}]},{"name":"prover","type":"address","internalType":"address"}]}],"outputs":[],"stateMutability":"nonpayable"},{"type":"function","name":"priceAndFulfillAndWithdraw","inputs":[{"name":"request","type":"tuple","internalType":"struct ProofRequest","components":[{"name":"id","type":"uint256","internalType":"RequestId"},{"name":"requirements","type":"tuple","internalType":"struct Requirements","components":[{"name":"imageId","type":"bytes32","internalType":"bytes32"},{"name":"callback","type":"tuple","internalType":"struct Callback","components":[{"name":"addr","type":"address","internalType":"address"},{"name":"gasLimit","type":"uint96","internalType":"uint96"}]},{"name":"predicate","type":"tuple","internalType":"struct Predicate","components":[{"name":"predicateType","type":"uint8","internalType":"enum PredicateType"},{"name":"data","type":"bytes","internalType":"bytes"}]},{"name":"selector","type":"bytes4","internalType":"bytes4"}]},{"name":"imageUrl","type":"string","internalType":"string"},{"name":"input","type":"tuple","internalType":"struct Input","components":[{"name":"inputType","type":"uint8","internalType":"enum InputType"},{"name":"data","type":"bytes","internalType":"bytes"}]},{"name":"offer","type":"tuple","internalType":"struct Offer","components":[{"name":"minPrice","type":"uint256","internalType":"uint256"},{"name":"maxPrice","type":"uint256","internalType":"uint256"},{"name":"biddingStart","type":"uint64","internalType":"uint64"},{"name":"rampUpPeriod","type":"uint32","internalType":"uint32"},{"name":"lockTimeout","type":"uint32","internalType":"uint32"},{"name":"timeout","type":"uint32","internalType":"uint32"},{"name":"lockStake","type":"uint256","internalType":"uint256"}]}]},{"name":"clientSignature","type":"bytes","internalType":"bytes"},{"name":"fill","type":"tuple","internalType":"struct Fulfillment","components":[{"name":"id","type":"uint256","internalType":"RequestId"},{"name":"requestDigest","type":"bytes32","internalType":"bytes32"},{"name":"imageId","type":"bytes32","internalType":"bytes32"},{"name":"journal","type":"bytes","internalType":"bytes"},{"name":"seal","type":"bytes","internalType":"bytes"},{"name":"requirePayment","type":"bool","internalType":"bool"}]},{"name":"assessorReceipt","type":"tuple","internalType":"struct AssessorReceipt","components":[{"name":"seal","type":"bytes","internalType":"bytes"},{"name":"callbacks","type":"tuple[]","internalType":"struct AssessorCallback[]","components":[{"name":"index","type":"uint16","internalType":"uint16"},{"name":"addr","type":"address","internalType":"address"},{"name":"gasLimit","type":"uint96","internalType":"uint96"}]},{"name":"selectors","type":"tuple[]","internalType":"struct Selector[]","components":[{"name":"index","type":"uint16","internalType":"uint16"},{"name":"value","type":"bytes4","internalType":"bytes4"}]},{"name":"prover","type":"address","internalType":"address"}]}],"outputs":[],"stateMutability":"nonpayable"},{"type":"function","name":"priceAndFulfillBatch","inputs":[{"name":"requests","type":"tuple[]","internalType":"struct ProofRequest[]","components":[{"name":"id","type":"uint256","internalType":"RequestId"},{"name":"requirements","type":"tuple","internalType":"struct Requirements","components":[{"name":"imageId","type":"bytes32","internalType":"bytes32"},{"name":"callback","type":"tuple","internalType":"struct Callback","components":[{"name":"addr","type":"address","internalType":"address"},{"name":"gasLimit","type":"uint96","internalType":"uint96"}]},{"name":"predicate","type":"tuple","internalType":"struct Predicate","components":[{"name":"predicateType","type":"uint8","internalType":"enum PredicateType"},{"name":"data","type":"bytes","internalType":"bytes"}]},{"name":"selector","type":"bytes4","internalType":"bytes4"}]},{"name":"imageUrl","type":"string","internalType":"string"},{"name":"input","type":"tuple","internalType":"struct Input","components":[{"name":"inputType","type":"uint8","internalType":"enum InputType"},{"name":"data","type":"bytes","internalType":"bytes"}]},{"name":"offer","type":"tuple","internalType":"struct Offer","components":[{"name":"minPrice","type":"uint256","internalType":"uint256"},{"name":"maxPrice","type":"uint256","internalType":"uint256"},{"name":"biddingStart","type":"uint64","internalType":"uint64"},{"name":"rampUpPeriod","type":"uint32","internalType":"uint32"},{"name":"lockTimeout","type":"uint32","internalType":"uint32"},{"name":"timeout","type":"uint32","internalType":"uint32"},{"name":"lockStake","type":"uint256","internalType":"uint256"}]}]},{"name":"clientSignatures","type":"bytes[]","internalType":"bytes[]"},{"name":"fills","type":"tuple[]","internalType":"struct Fulfillment[]","components":[{"name":"id","type":"uint256","internalType":"RequestId"},{"name":"requestDigest","type":"bytes32","internalType":"bytes32"},{"name":"imageId","type":"bytes32","internalType":"bytes32"},{"name":"journal","type":"bytes","internalType":"bytes"},{"name":"seal","type":"bytes","internalType":"bytes"},{"name":"requirePayment","type":"bool","internalType":"bool"}]},{"name":"assessorReceipt","type":"tuple","internalType":"struct AssessorReceipt","components":[{"name":"seal","type":"bytes","internalType":"bytes"},{"name":"callbacks","type":"tuple[]","internalType":"struct AssessorCallback[]","components":[{"name":"index","type":"uint16","internalType":"uint16"},{"name":"addr","type":"address","internalType":"address"},{"name":"gasLimit","type":"uint96","internalType":"uint96"}]},{"name":"selectors","type":"tuple[]","internalType":"struct Selector[]","components":[{"name":"index","type":"uint16","internalType":"uint16"},{"name":"value","type":"bytes4","internalType":"bytes4"}]},{"name":"prover","type":"address","internalType":"address"}]}],"outputs":[],"stateMutability":"nonpayable"},{"type":"function","name":"priceAndFulfillBatchAndWithdraw","inputs":[{"name":"requests","type":"tuple[]","internalType":"struct ProofRequest[]","components":[{"name":"id","type":"uint256","internalType":"RequestId"},{"name":"requirements","type":"tuple","internalType":"struct Requirements","components":[{"name":"imageId","type":"bytes32","internalType":"bytes32"},{"name":"callback","type":"tuple","internalType":"struct Callback","components":[{"name":"addr","type":"address","internalType":"address"},{"name":"gasLimit","type":"uint96","internalType":"uint96"}]},{"name":"predicate","type":"tuple","internalType":"struct Predicate","components":[{"name":"predicateType","type":"uint8","internalType":"enum PredicateType"},{"name":"data","type":"bytes","internalType":"bytes"}]},{"name":"selector","type":"bytes4","internalType":"bytes4"}]},{"name":"imageUrl","type":"string","internalType":"string"},{"name":"input","type":"tuple","internalType":"struct Input","components":[{"name":"inputType","type":"uint8","internalType":"enum InputType"},{"name":"data","type":"bytes","internalType":"bytes"}]},{"name":"offer","type":"tuple","internalType":"struct Offer","components":[{"name":"minPrice","type":"uint256","internalType":"uint256"},{"name":"maxPrice","type":"uint256","internalType":"uint256"},{"name":"biddingStart","type":"uint64","internalType":"uint64"},{"name":"rampUpPeriod","type":"uint32","internalType":"uint32"},{"name":"lockTimeout","type":"uint32","internalType":"uint32"},{"name":"timeout","type":"uint32","internalType":"uint32"},{"name":"lockStake","type":"uint256","internalType":"uint256"}]}]},{"name":"clientSignatures","type":"bytes[]","internalType":"bytes[]"},{"name":"fills","type":"tuple[]","internalType":"struct Fulfillment[]","components":[{"name":"id","type":"uint256","internalType":"RequestId"},{"name":"requestDigest","type":"bytes32","internalType":"bytes32"},{"name":"imageId","type":"bytes32","internalType":"bytes32"},{"name":"journal","type":"bytes","internalType":"bytes"},{"name":"seal","type":"bytes","internalType":"bytes"},{"name":"requirePayment","type":"bool","internalType":"bool"}]},{"name":"assessorReceipt","type":"tuple","internalType":"struct AssessorReceipt","components":[{"name":"seal","type":"bytes","internalType":"bytes"},{"name":"callbacks","type":"tuple[]","internalType":"struct AssessorCallback[]","components":[{"name":"index","type":"uint16","internalType":"uint16"},{"name":"addr","type":"address","internalType":"address"},{"name":"gasLimit","type":"uint96","internalType":"uint96"}]},{"name":"selectors","type":"tuple[]","internalType":"struct Selector[]","components":[{"name":"index","type":"uint16","internalType":"uint16"},{"name":"value","type":"bytes4","internalType":"bytes4"}]},{"name":"prover","type":"address","internalType":"address"}]}],"outputs":[],"stateMutability":"nonpayable"},{"type":"function","name":"priceRequest","inputs":[{"name":"request","type":"tuple","internalType":"struct ProofRequest","components":[{"name":"id","type":"uint256","internalType":"RequestId"},{"name":"requirements","type":"tuple","internalType":"struct Requirements","components":[{"name":"imageId","type":"bytes32","internalType":"bytes32"},{"name":"callback","type":"tuple","internalType":"struct Callback","components":[{"name":"addr","type":"address","internalType":"address"},{"name":"gasLimit","type":"uint96","internalType":"uint96"}]},{"name":"predicate","type":"tuple","internalType":"struct Predicate","components":[{"name":"predicateType","type":"uint8","internalType":"enum PredicateType"},{"name":"data","type":"bytes","internalType":"bytes"}]},{"name":"selector","type":"bytes4","internalType":"bytes4"}]},{"name":"imageUrl","type":"string","internalType":"string"},{"name":"input","type":"tuple","internalType":"struct Input","components":[{"name":"inputType","type":"uint8","internalType":"enum InputType"},{"name":"data","type":"bytes","internalType":"bytes"}]},{"name":"offer","type":"tuple","internalType":"struct Offer","components":[{"name":"minPrice","type":"uint256","internalType":"uint256"},{"name":"maxPrice","type":"uint256","internalType":"uint256"},{"name":"biddingStart","type":"uint64","internalType":"uint64"},{"name":"rampUpPeriod","type":"uint32","internalType":"uint32"},{"name":"lockTimeout","type":"uint32","internalType":"uint32"},{"name":"timeout","type":"uint32","internalType":"uint32"},{"name":"lockStake","type":"uint256","internalType":"uint256"}]}]},{"name":"clientSignature","type":"bytes","internalType":"bytes"}],"outputs":[],"stateMutability":"nonpayable"},{"type":"function","name":"proxiableUUID","inputs":[],"outputs":[{"name":"","type":"bytes32","internalType":"bytes32"}],"stateMutability":"view"},{"type":"function","name":"renounceOwnership","inputs":[],"outputs":[],"stateMutability":"nonpayable"},{"type":"function","name":"requestDeadline","inputs":[{"name":"id","type":"uint256","internalType":"RequestId"}],"outputs":[{"name":"","type":"uint64","internalType":"uint64"}],"stateMutability":"view"},{"type":"function","name":"requestIsFulfilled","inputs":[{"name":"id","type":"uint256","internalType":"RequestId"}],"outputs":[{"name":"","type":"bool","internalType":"bool"}],"stateMutability":"view"},{"type":"function","name":"requestIsLocked","inputs":[{"name":"id","type":"uint256","internalType":"RequestId"}],"outputs":[{"name":"","type":"bool","internalType":"bool"}],"stateMutability":"view"},{"type":"function","name":"requestIsSlashed","inputs":[{"name":"id","type":"uint256","internalType":"RequestId"}],"outputs":[{"name":"","type":"bool","internalType":"bool"}],"stateMutability":"view"},{"type":"function","name":"requestLockDeadline","inputs":[{"name":"id","type":"uint256","internalType":"RequestId"}],"outputs":[{"name":"","type":"uint64","internalType":"uint64"}],"stateMutability":"view"},{"type":"function","name":"requestLocks","inputs":[{"name":"","type":"uint256","internalType":"RequestId"}],"outputs":[{"name":"prover","type":"address","internalType":"address"},{"name":"lockDeadline","type":"uint64","internalType":"uint64"},{"name":"deadlineDelta","type":"uint24","internalType":"uint24"},{"name":"requestLockFlags","type":"uint8","internalType":"uint8"},{"name":"price","type":"uint96","internalType":"uint96"},{"name":"stake","type":"uint96","internalType":"uint96"},{"name":"fingerprint","type":"bytes8","internalType":"bytes8"}],"stateMutability":"view"},{"type":"function","name":"setImageUrl","inputs":[{"name":"_imageUrl","type":"string","internalType":"string"}],"outputs":[],"stateMutability":"nonpayable"},{"type":"function","name":"slash","inputs":[{"name":"requestId","type":"uint256","internalType":"RequestId"}],"outputs":[],"stateMutability":"nonpayable"},{"type":"function","name":"submitRequest","inputs":[{"name":"request","type":"tuple","internalType":"struct ProofRequest","components":[{"name":"id","type":"uint256","internalType":"RequestId"},{"name":"requirements","type":"tuple","internalType":"struct Requirements","components":[{"name":"imageId","type":"bytes32","internalType":"bytes32"},{"name":"callback","type":"tuple","internalType":"struct Callback","components":[{"name":"addr","type":"address","internalType":"address"},{"name":"gasLimit","type":"uint96","internalType":"uint96"}]},{"name":"predicate","type":"tuple","internalType":"struct Predicate","components":[{"name":"predicateType","type":"uint8","internalType":"enum PredicateType"},{"name":"data","type":"bytes","internalType":"bytes"}]},{"name":"selector","type":"bytes4","internalType":"bytes4"}]},{"name":"imageUrl","type":"string","internalType":"string"},{"name":"input","type":"tuple","internalType":"struct Input","components":[{"name":"inputType","type":"uint8","internalType":"enum InputType"},{"name":"data","type":"bytes","internalType":"bytes"}]},{"name":"offer","type":"tuple","internalType":"struct Offer","components":[{"name":"minPrice","type":"uint256","internalType":"uint256"},{"name":"maxPrice","type":"uint256","internalType":"uint256"},{"name":"biddingStart","type":"uint64","internalType":"uint64"},{"name":"rampUpPeriod","type":"uint32","internalType":"uint32"},{"name":"lockTimeout","type":"uint32","internalType":"uint32"},{"name":"timeout","type":"uint32","internalType":"uint32"},{"name":"lockStake","type":"uint256","internalType":"uint256"}]}]},{"name":"clientSignature","type":"bytes","internalType":"bytes"}],"outputs":[],"stateMutability":"payable"},{"type":"function","name":"submitRoot","inputs":[{"name":"setVerifierAddress","type":"address","internalType":"address"},{"name":"root","type":"bytes32","internalType":"bytes32"},{"name":"seal","type":"bytes","internalType":"bytes"}],"outputs":[],"stateMutability":"nonpayable"},{"type":"function","name":"submitRootAndFulfillBatch","inputs":[{"name":"setVerifier","type":"address","internalType":"address"},{"name":"root","type":"bytes32","internalType":"bytes32"},{"name":"seal","type":"bytes","internalType":"bytes"},{"name":"fills","type":"tuple[]","internalType":"struct Fulfillment[]","components":[{"name":"id","type":"uint256","internalType":"RequestId"},{"name":"requestDigest","type":"bytes32","internalType":"bytes32"},{"name":"imageId","type":"bytes32","internalType":"bytes32"},{"name":"journal","type":"bytes","internalType":"bytes"},{"name":"seal","type":"bytes","internalType":"bytes"},{"name":"requirePayment","type":"bool","internalType":"bool"}]},{"name":"assessorReceipt","type":"tuple","internalType":"struct AssessorReceipt","components":[{"name":"seal","type":"bytes","internalType":"bytes"},{"name":"callbacks","type":"tuple[]","internalType":"struct AssessorCallback[]","components":[{"name":"index","type":"uint16","internalType":"uint16"},{"name":"addr","type":"address","internalType":"address"},{"name":"gasLimit","type":"uint96","internalType":"uint96"}]},{"name":"selectors","type":"tuple[]","internalType":"struct Selector[]","components":[{"name":"index","type":"uint16","internalType":"uint16"},{"name":"value","type":"bytes4","internalType":"bytes4"}]},{"name":"prover","type":"address","internalType":"address"}]}],"outputs":[],"stateMutability":"nonpayable"},{"type":"function","name":"submitRootAndFulfillBatchAndWithdraw","inputs":[{"name":"setVerifier","type":"address","internalType":"address"},{"name":"root","type":"bytes32","internalType":"bytes32"},{"name":"seal","type":"bytes","internalType":"bytes"},{"name":"fills","type":"tuple[]","internalType":"struct Fulfillment[]","components":[{"name":"id","type":"uint256","internalType":"RequestId"},{"name":"requestDigest","type":"bytes32","internalType":"bytes32"},{"name":"imageId","type":"bytes32","internalType":"bytes32"},{"name":"journal","type":"bytes","internalType":"bytes"},{"name":"seal","type":"bytes","internalType":"bytes"},{"name":"requirePayment","type":"bool","internalType":"bool"}]},{"name":"assessorReceipt","type":"tuple","internalType":"struct AssessorReceipt","components":[{"name":"seal","type":"bytes","internalType":"bytes"},{"name":"callbacks","type":"tuple[]","internalType":"struct AssessorCallback[]","components":[{"name":"index","type":"uint16","internalType":"uint16"},{"name":"addr","type":"address","internalType":"address"},{"name":"gasLimit","type":"uint96","internalType":"uint96"}]},{"name":"selectors","type":"tuple[]","internalType":"struct Selector[]","components":[{"name":"index","type":"uint16","internalType":"uint16"},{"name":"value","type":"bytes4","internalType":"bytes4"}]},{"name":"prover","type":"address","internalType":"address"}]}],"outputs":[],"stateMutability":"nonpayable"},{"type":"function","name":"transferOwnership","inputs":[{"name":"newOwner","type":"address","internalType":"address"}],"outputs":[],"stateMutability":"nonpayable"},{"type":"function","name":"upgradeToAndCall","inputs":[{"name":"newImplementation","type":"address","internalType":"address"},{"name":"data","type":"bytes","internalType":"bytes"}],"outputs":[],"stateMutability":"payable"},{"type":"function","name":"verifyBatchDelivery","inputs":[{"name":"fills","type":"tuple[]","internalType":"struct Fulfillment[]","components":[{"name":"id","type":"uint256","internalType":"RequestId"},{"name":"requestDigest","type":"bytes32","internalType":"bytes32"},{"name":"imageId","type":"bytes32","internalType":"bytes32"},{"name":"journal","type":"bytes","internalType":"bytes"},{"name":"seal","type":"bytes","internalType":"bytes"},{"name":"requirePayment","type":"bool","internalType":"bool"}]},{"name":"assessorReceipt","type":"tuple","internalType":"struct AssessorReceipt","components":[{"name":"seal","type":"bytes","internalType":"bytes"},{"name":"callbacks","type":"tuple[]","internalType":"struct AssessorCallback[]","components":[{"name":"index","type":"uint16","internalType":"uint16"},{"name":"addr","type":"address","internalType":"address"},{"name":"gasLimit","type":"uint96","internalType":"uint96"}]},{"name":"selectors","type":"tuple[]","internalType":"struct Selector[]","components":[{"name":"index","type":"uint16","internalType":"uint16"},{"name":"value","type":"bytes4","internalType":"bytes4"}]},{"name":"prover","type":"address","internalType":"address"}]}],"outputs":[],"stateMutability":"view"},{"type":"function","name":"verifyDelivery","inputs":[{"name":"fill","type":"tuple","internalType":"struct Fulfillment","components":[{"name":"id","type":"uint256","internalType":"RequestId"},{"name":"requestDigest","type":"bytes32","internalType":"bytes32"},{"name":"imageId","type":"bytes32","internalType":"bytes32"},{"name":"journal","type":"bytes","internalType":"bytes"},{"name":"seal","type":"bytes","internalType":"bytes"},{"name":"requirePayment","type":"bool","internalType":"bool"}]},{"name":"assessorReceipt","type":"tuple","internalType":"struct AssessorReceipt","components":[{"name":"seal","type":"bytes","internalType":"bytes"},{"name":"callbacks","type":"tuple[]","internalType":"struct AssessorCallback[]","components":[{"name":"index","type":"uint16","internalType":"uint16"},{"name":"addr","type":"address","internalType":"address"},{"name":"gasLimit","type":"uint96","internalType":"uint96"}]},{"name":"selectors","type":"tuple[]","internalType":"struct Selector[]","components":[{"name":"index","type":"uint16","internalType":"uint16"},{"name":"value","type":"bytes4","internalType":"bytes4"}]},{"name":"prover","type":"address","internalType":"address"}]}],"outputs":[],"stateMutability":"view"},{"type":"function","name":"withdraw","inputs":[{"name":"value","type":"uint256","internalType":"uint256"}],"outputs":[],"stateMutability":"nonpayable"},{"type":"function","name":"withdrawFromStakeTreasury","inputs":[{"name":"value","type":"uint256","internalType":"uint256"}],"outputs":[],"stateMutability":"nonpayable"},{"type":"function","name":"withdrawFromTreasury","inputs":[{"name":"value","type":"uint256","internalType":"uint256"}],"outputs":[],"stateMutability":"nonpayable"},{"type":"function","name":"withdrawStake","inputs":[{"name":"value","type":"uint256","internalType":"uint256"}],"outputs":[],"stateMutability":"nonpayable"},{"type":"event","name":"CallbackFailed","inputs":[{"name":"requestId","type":"uint256","indexed":true,"internalType":"RequestId"},{"name":"callback","type":"address","indexed":false,"internalType":"address"},{"name":"error","type":"bytes","indexed":false,"internalType":"bytes"}],"anonymous":false},{"type":"event","name":"Deposit","inputs":[{"name":"account","type":"address","indexed":true,"internalType":"address"},{"name":"value","type":"uint256","indexed":false,"internalType":"uint256"}],"anonymous":false},{"type":"event","name":"EIP712DomainChanged","inputs":[],"anonymous":false},{"type":"event","name":"Initialized","inputs":[{"name":"version","type":"uint64","indexed":false,"internalType":"uint64"}],"anonymous":false},{"type":"event","name":"OwnershipTransferStarted","inputs":[{"name":"previousOwner","type":"address","indexed":true,"internalType":"address"},{"name":"newOwner","type":"address","indexed":true,"internalType":"address"}],"anonymous":false},{"type":"event","name":"OwnershipTransferred","inputs":[{"name":"previousOwner","type":"address","indexed":true,"internalType":"address"},{"name":"newOwner","type":"address","indexed":true,"internalType":"address"}],"anonymous":false},{"type":"event","name":"PaymentRequirementsFailed","inputs":[{"name":"error","type":"bytes","indexed":false,"internalType":"bytes"}],"anonymous":false},{"type":"event","name":"ProofDelivered","inputs":[{"name":"requestId","type":"uint256","indexed":true,"internalType":"RequestId"}],"anonymous":false},{"type":"event","name":"ProverSlashed","inputs":[{"name":"requestId","type":"uint256","indexed":true,"internalType":"RequestId"},{"name":"stakeBurned","type":"uint256","indexed":false,"internalType":"uint256"},{"name":"stakeTransferred","type":"uint256","indexed":false,"internalType":"uint256"},{"name":"stakeRecipient","type":"address","indexed":false,"internalType":"address"}],"anonymous":false},{"type":"event","name":"RequestFulfilled","inputs":[{"name":"requestId","type":"uint256","indexed":true,"internalType":"RequestId"}],"anonymous":false},{"type":"event","name":"RequestLocked","inputs":[{"name":"requestId","type":"uint256","indexed":true,"internalType":"RequestId"},{"name":"prover","type":"address","indexed":false,"internalType":"address"}],"anonymous":false},{"type":"event","name":"RequestSubmitted","inputs":[{"name":"requestId","type":"uint256","indexed":true,"internalType":"RequestId"}],"anonymous":false},{"type":"event","name":"StakeDeposit","inputs":[{"name":"account","type":"address","indexed":true,"internalType":"address"},{"name":"value","type":"uint256","indexed":false,"internalType":"uint256"}],"anonymous":false},{"type":"event","name":"StakeWithdrawal","inputs":[{"name":"account","type":"address","indexed":true,"internalType":"address"},{"name":"value","type":"uint256","indexed":false,"internalType":"uint256"}],"anonymous":false},{"type":"event","name":"Upgraded","inputs":[{"name":"version","type":"uint64","indexed":true,"internalType":"uint64"}],"anonymous":false},{"type":"event","name":"Upgraded","inputs":[{"name":"implementation","type":"address","indexed":true,"internalType":"address"}],"anonymous":false},{"type":"event","name":"Withdrawal","inputs":[{"name":"account","type":"address","indexed":true,"internalType":"address"},{"name":"value","type":"uint256","indexed":false,"internalType":"uint256"}],"anonymous":false},{"type":"error","name":"AddressEmptyCode","inputs":[{"name":"target","type":"address","internalType":"address"}]},{"type":"error","name":"AddressInsufficientBalance","inputs":[{"name":"account","type":"address","internalType":"address"}]},{"type":"error","name":"BatchSizeExceedsLimit","inputs":[{"name":"batchSize","type":"uint256","internalType":"uint256"},{"name":"limit","type":"uint256","internalType":"uint256"}]},{"type":"error","name":"ECDSAInvalidSignature","inputs":[]},{"type":"error","name":"ECDSAInvalidSignatureLength","inputs":[{"name":"length","type":"uint256","internalType":"uint256"}]},{"type":"error","name":"ECDSAInvalidSignatureS","inputs":[{"name":"s","type":"bytes32","internalType":"bytes32"}]},{"type":"error","name":"ERC1967InvalidImplementation","inputs":[{"name":"implementation","type":"address","internalType":"address"}]},{"type":"error","name":"ERC1967NonPayable","inputs":[]},{"type":"error","name":"FailedInnerCall","inputs":[]},{"type":"error","name":"InsufficientBalance","inputs":[{"name":"account","type":"address","internalType":"address"}]},{"type":"error","name":"InvalidInitialization","inputs":[]},{"type":"error","name":"InvalidRequest","inputs":[]},{"type":"error","name":"InvalidSignature","inputs":[]},{"type":"error","name":"NotInitializing","inputs":[]},{"type":"error","name":"OwnableInvalidOwner","inputs":[{"name":"owner","type":"address","internalType":"address"}]},{"type":"error","name":"OwnableUnauthorizedAccount","inputs":[{"name":"account","type":"address","internalType":"address"}]},{"type":"error","name":"RequestIsExpired","inputs":[{"name":"requestId","type":"uint256","internalType":"RequestId"},{"name":"deadline","type":"uint64","internalType":"uint64"}]},{"type":"error","name":"RequestIsFulfilled","inputs":[{"name":"requestId","type":"uint256","internalType":"RequestId"}]},{"type":"error","name":"RequestIsLocked","inputs":[{"name":"requestId","type":"uint256","internalType":"RequestId"}]},{"type":"error","name":"RequestIsNotExpired","inputs":[{"name":"requestId","type":"uint256","internalType":"RequestId"},{"name":"deadline","type":"uint64","internalType":"uint64"}]},{"type":"error","name":"RequestIsNotLocked","inputs":[{"name":"requestId","type":"uint256","internalType":"RequestId"}]},{"type":"error","name":"RequestIsNotPriced","inputs":[{"name":"requestId","type":"uint256","internalType":"RequestId"}]},{"type":"error","name":"RequestIsSlashed","inputs":[{"name":"requestId","type":"uint256","internalType":"RequestId"}]},{"type":"error","name":"RequestLockFingerprintDoesNotMatch","inputs":[{"name":"requestId","type":"uint256","internalType":"RequestId"},{"name":"provided","type":"bytes8","internalType":"bytes8"},{"name":"locked","type":"bytes8","internalType":"bytes8"}]},{"type":"error","name":"SafeCastOverflowedUintDowncast","inputs":[{"name":"bits","type":"uint8","internalType":"uint8"},{"name":"value","type":"uint256","internalType":"uint256"}]},{"type":"error","name":"SafeERC20FailedOperation","inputs":[{"name":"token","type":"address","internalType":"address"}]},{"type":"error","name":"SelectorMismatch","inputs":[{"name":"required","type":"bytes4","internalType":"bytes4"},{"name":"provided","type":"bytes4","internalType":"bytes4"}]},{"type":"error","name":"TransferFailed","inputs":[]},{"type":"error","name":"UUPSUnauthorizedCallContext","inputs":[]},{"type":"error","name":"UUPSUnsupportedProxiableUUID","inputs":[{"name":"slot","type":"bytes32","internalType":"bytes32"}]}],"bytecode":{"object":"0x610100346101b257601f615b7838819003918201601f19168301916001600160401b038311848410176101b6578084926060946040528339810103126101b2578051906001600160a01b03821682036101b2576020810151604090910151916001600160a01b03831683036101b2573060805260a05260c05260e0527ff0c57e16840df040f15088dc2f81fe391c3923bec73e23a9662efc9c229c6a005460ff8160401c166101a3576002600160401b03196001600160401b0382160161013a575b6040516159ad90816101cb8239608051818181610f29015261106d015260a05181818161038c01528181612ca00152613479015260c05181818161179701528181611bd50152612e44015260e05181818161063d01528181610b8a015281816111640152818161146b0152818161152401526144db0152f35b6001600160401b0319166001600160401b039081177ff0c57e16840df040f15088dc2f81fe391c3923bec73e23a9662efc9c229c6a00556040519081527fc7f505b2f371ae2175ee4913f4499e1f2633a7b5936321eed1cdaeb6115181d290602090a15f6100c1565b63f92ee8a960e01b5f5260045ffd5b5f80fd5b634e487b7160e01b5f52604160045260245ffdfe60806040526004361015610011575f80fd5b5f3560e01c806308c84e701461036457806317e828c41461035f5780631b22d1b41461035a57806325d5971f14610355578063296f49ae146103505780632abff1f21461034b5780632e1a7d4d14610346578063380f9c38146103415780633de6bd3f1461033c57806341451f941461033757806345bc4d10146103325780634f1ef2861461032d578063515990bc1461032857806352d1902d14610323578063553c02481461031e5780635746d7f7146103195780635b07fdd8146103145780635fbb49211461030f57806360dfd4a91461030a57806363555624146103055780636a8bcd161461030057806370a08231146102fb578063715018a6146102f657806379ba5097146102f15780638040fdc0146102ec5780638094e614146102e757806381bf6c24146102e257806384b0196e146102dd5780638da5cb5b146102d8578063956b0960146102d35780639fe9428c146102ce578063a3096a8c146102c9578063aa9cb1d2146102c4578063ad3cb1cc146102bf578063ae7330f1146102ba578063b4206dd2146102b5578063c515c15f146102b0578063cb09e7c0146102ab578063cb74db11146102a6578063cb82cc8f146102a1578063cdc971231461029c578063cfbebd8b14610297578063d0e30db014610292578063d4f51f2c1461028d578063da6a0eec14610288578063e30c397814610283578063eed8f6851461027e578063f0e90d2f14610279578063f2800f1a14610274578063f2fde38b1461026f578063f399e22e1461026a578063f7780f48146102655763ffa1ad7414610260575f80fd5b61206a565b61202a565b611eb8565b611e30565b611ded565b611dd4565b611dbd565b611d89565b611d72565b611d5b565b611d48565b611c76565b611b85565b611b68565b611b4a565b611b03565b611a66565b611a0d565b611979565b611932565b6118b7565b611839565b611780565b611764565b611730565b611686565b6115b7565b6114f4565b6113e5565b611399565b61131c565b6112d8565b6112c1565b6111ea565b611193565b61114f565b61112d565b611116565b6110b2565b61105b565b61103f565b610ee7565b610a96565b610985565b610963565b610886565b610869565b610764565b61074d565b61057a565b61052f565b610445565b610377565b5f91031261037357565b5f80fd5b34610373575f366003190112610373576040517f00000000000000000000000000000000000000000000000000000000000000006001600160a01b03168152602090f35b90816101609103126103735790565b9181601f84011215610373578235916001600160401b038311610373576020838186019501011161037357565b906040600319830112610373576004356001600160401b0381116103735782610422916004016103bb565b91602435906001600160401b03821161037357610441916004016103ca565b9091565b346103735761045c610456366103f7565b916122cb565b005b9181601f84011215610373578235916001600160401b038311610373576020808501948460051b01011161037357565b908160809103126103735790565b6080600319820112610373576004356001600160401b03811161037357816104c69160040161045e565b929092916024356001600160401b03811161037357816104e89160040161045e565b929092916044356001600160401b038111610373578161050a9160040161045e565b92909291606435906001600160401b0382116103735761052c9160040161048e565b90565b346103735761053d3661049c565b949591925f9491945b8781106105585761045c878787612459565b806105746105696001938b88612368565b6104568386886123c2565b01610546565b34610373576020366003190112610373576004356105aa61059a336123d9565b5460601c6001600160601b031690565b6001600160601b036105ca6105be84613e38565b6001600160601b031690565b9116106106eb576106126105dd82613e38565b61060c6105e9336123d9565b916105ff83546001600160601b039060601c1690565b036001600160601b031690565b906123f2565b60405163a9059cbb60e01b8152336004820152602481018290526020816044815f6001600160a01b037f0000000000000000000000000000000000000000000000000000000000000000165af19081156106e6575f916106b7575b50156106a85760405190815233907ff0ed97f7b968f9d8268bc8d104a11b3586ceeadd0e0af5f73769e2b479f9d0ae9080602081015b0390a2005b6312171d8360e31b5f5260045ffd5b6106d9915060203d6020116106df575b6106d18183610e2b565b81019061242f565b5f61066d565b503d6106c7565b612444565b63112fed8b60e31b5f523360045260245ffd5b5ffd5b6040600319820112610373576004356001600160401b038111610373578161072b9160040161045e565b92909291602435906001600160401b0382116103735761052c9160040161048e565b346103735761045c61075e36610701565b91612459565b34610373576020366003190112610373576004356001600160401b038111610373576107949036906004016103ca565b61079c613f21565b6001600160401b038111610864576107be816107b96002546124ae565b6124e6565b5f601f82116001146107fb5781906107eb935f926107f0575b50508160011b915f199060031b1c19161790565b600255005b013590505f806107d7565b60025f52601f198216925f80516020615861833981519152915f5b85811061084c57508360019510610833575b505050811b01600255005b01355f19600384901b60f8161c191690555f8080610828565b90926020600181928686013581550194019101610816565b610dc6565b346103735760203660031901126103735761045c60043533613e69565b61088f366103f7565b5050346108be575b357f7fab7e8a635b9e4d20f8afff898bb2016ab093457ea8adc210f90fdbec6d8dfb5f80a2005b6108c66132e4565b610897565b908160c09103126103735790565b6080600319820112610373576004356001600160401b0381116103735781610903916004016103bb565b916024356001600160401b0381116103735782610922916004016103ca565b929092916044356001600160401b0381116103735782610944916004016108cb565b91606435906001600160401b0382116103735761052c9160040161048e565b346103735761045c610980610977366108d9565b949290936122cb565b61333e565b34610373576020366003190112610373576004356109a28161315a565b15610a84575f525f602052610a80610a6660405f20610a61610a506001604051936109cc85610dda565b610a1f610a158254848060a01b03811688526001600160401b038160a01c166020890152610a0f610a038262ffffff9060e01c1690565b62ffffff1660408a0152565b60f81c90565b60ff166060870152565b01546001600160601b03811660808501526001600160601b03606082901c1660a08501526001600160c01b03191690565b6001600160c01b03191660c0830152565b613f41565b6040516001600160401b0390911681529081906020820190565b0390f35b63d2be005d60e01b5f5260045260245ffd5b3461037357602036600319011261037357600435610ac6610ab682613922565b610ac18293926123d9565b613f75565b5015610da157610ae5610ae0835f525f60205260405f2090565b6126a3565b6060810151600416610d8d576060810151600116610d7957610b15610b0982613f41565b6001600160401b031690565b431115610d4b57610b5d610b30845f525f60205260405f2090565b80546001600160f81b03811660f891821c60041790911b6001600160f81b0319161781556001905f910155565b60a08101610b88610b80610b7b6105be84516001600160601b031690565b612720565b612710900490565b7f00000000000000000000000000000000000000000000000000000000000000006001600160a01b031693909190843b1561037357604051630852cd8d60e31b815260048101849052945f908690602490829084905af19485156106e657610c3284610c2d6105be6106a396610c37957f79ca7c80cf57b513ffdf8aa37ec70e40757f5e0d35219241860bb4b4c2fa76169b610d31575b50516001600160601b031690565b6127aa565b613e38565b84519094906001600160a01b031691610c57826060600291015116151590565b15610cc8575051610c9790610c79906001600160a01b03166123d9565b6123d9565b61060c86610c9283546001600160601b039060601c1690565b6127b7565b604080519384526001600160601b0390941660208401526001600160a01b0316928201929092529081906060820190565b610d2c919250610d26610d14610d0e60803096610d00610ce7306123d9565b61060c8d610c9283546001600160601b039060601c1690565b01516001600160601b031690565b926123d9565b91610c9283546001600160601b031690565b906127d7565b610c97565b80610d3f5f610d4593610e2b565b80610369565b5f610c1f565b82610d586106fe92613f41565b63079c66ab60e41b5f526004919091526001600160401b0316602452604490565b631cfdeebb60e01b5f52600483905260245ffd5b633231064d60e11b5f52600483905260245ffd5b63d2be005d60e01b5f52600482905260245ffd5b6001600160a01b0381160361037357565b634e487b7160e01b5f52604160045260245ffd5b60e081019081106001600160401b0382111761086457604052565b604081019081106001600160401b0382111761086457604052565b608081019081106001600160401b0382111761086457604052565b90601f801991011681019081106001600160401b0382111761086457604052565b60405190610e5b60a083610e2b565b565b60405190610e5b604083610e2b565b60405190610e5b60e083610e2b565b6001600160401b03811161086457601f01601f191660200190565b929192610ea282610e7b565b91610eb06040519384610e2b565b829481845281830111610373578281602093845f960137010152565b9080601f830112156103735781602061052c93359101610e96565b604036600319011261037357600435610eff81610db5565b6024356001600160401b03811161037357610f1e903690600401610ecc565b906001600160a01b037f00000000000000000000000000000000000000000000000000000000000000001630811490811561101d575b5061100e57610f61613f21565b6040516352d1902d60e01b8152916020836004816001600160a01b0386165afa5f9381610fdd575b50610faa57634c9c8ce360e01b5f526001600160a01b03821660045260245ffd5b905f805160206159018339815191528303610fc95761045c9250614d23565b632a87526960e21b5f52600483905260245ffd5b61100091945060203d602011611007575b610ff88183610e2b565b810190614043565b925f610f89565b503d610fee565b63703e46dd60e11b5f5260045ffd5b5f80516020615901833981519152546001600160a01b0316141590505f610f54565b34610373575f36600319011261037357602060405161c3508152f35b34610373575f366003190112610373577f00000000000000000000000000000000000000000000000000000000000000006001600160a01b0316300361100e5760206040515f805160206159018339815191528152f35b34610373575f3660031901126103735760206040515f8152f35b906040600319830112610373576004356001600160401b03811161037357826110f7916004016108cb565b91602435906001600160401b0382116103735761052c9160040161048e565b346103735761045c611127366110cc565b90612c59565b34610373575f366003190112610373576020611147614e26565b604051908152f35b34610373575f366003190112610373576040517f00000000000000000000000000000000000000000000000000000000000000006001600160a01b03168152602090f35b34610373576020366003190112610373576004355f525f602052610a806111d860405f206111cc610a506001604051936109cc85610dda565b60600151600416151590565b60405190151581529081906020820190565b3461037357602036600319011261037357600435611206613f21565b61121f611212306123d9565b546001600160601b031690565b6001600160601b036112336105be84613e38565b9116106112ae5761126461124682613e38565b610d26611252306123d9565b916105ff83546001600160601b031690565b5f80808084335af1611274612f45565b50156106a85760405190815230907f7fcf532c15f0a6db0bd6d0e038bea71d30d808c7d98cb3bf7268a95bf5081b659080602081016106a3565b63112fed8b60e31b5f523060045260245ffd5b346103735761045c6112d236610701565b91612fb1565b34610373576020366003190112610373576004356112f581610db5565b60018060a01b03165f52600160205260206001600160601b0360405f205416604051908152f35b34610373575f36600319011261037357611334613f21565b5f8051602061598183398151915280546001600160a01b03199081169091555f805160206158a1833981519152805491821690555f906001600160a01b03167f8be0079c531659141344cd1fd0a4f28419497f9722a3daafe3b4186f6b6457e08280a3005b34610373575f366003190112610373575f8051602061598183398151915254336001600160a01b03909116036113d25761045c33614437565b63118cdaa760e01b5f523360045260245ffd5b3461037357602036600319011261037357600435611401613f21565b61140d61059a306123d9565b6001600160601b036114216105be84613e38565b9116106112ae5761144061143482613e38565b61060c6105e9306123d9565b60405163a9059cbb60e01b8152336004820152602481018290526020816044815f6001600160a01b037f0000000000000000000000000000000000000000000000000000000000000000165af19081156106e6575f916114d5575b50156106a85760405190815230907ff0ed97f7b968f9d8268bc8d104a11b3586ceeadd0e0af5f73769e2b479f9d0ae9080602081016106a3565b6114ee915060203d6020116106df576106d18183610e2b565b5f61149b565b346103735760a0366003190112610373576004356024359060443560ff81168091036103735760643590608435907f00000000000000000000000000000000000000000000000000000000000000006001600160a01b0316803b156103735761045c955f60e4928195604051978896879563d505accf60e01b87523360048801523060248801528b60448801526064870152608486015260a485015260c48401525af16115a3575b50336144a2565b80610d3f5f6115b193610e2b565b5f61159c565b346103735760203660031901126103735760206115d56004356130fa565b6040519015158152f35b805180835260209291819084018484015e5f828201840152601f01601f1916010190565b92939161162561163392600f60f81b865260e0602087015260e08601906115df565b9084820360408601526115df565b92606083015260018060a01b031660808201525f60a082015260c0818303910152602080835192838152019201905f5b8181106116705750505090565b8251845260209384019390920191600101611663565b34610373575f366003190112610373575f805160206158e183398151915254158061171a575b156116dd576116b961316a565b6116c1613237565b90610a806116cd613128565b6040519384933091469186611603565b60405162461bcd60e51b81526020600482015260156024820152741152540dcc4c8e88155b9a5b9a5d1a585b1a5e9959605a1b6044820152606490fd5b505f8051602061596183398151915254156116ac565b34610373575f366003190112610373575f805160206158a1833981519152546040516001600160a01b039091168152602090f35b34610373575f366003190112610373576020604051611d4c8152f35b34610373575f3660031901126103735760206040517f00000000000000000000000000000000000000000000000000000000000000008152f35b60a0600319820112610373576004356117d281610db5565b91602435916044356001600160401b03811161037357816117f5916004016103ca565b929092916064356001600160401b03811161037357816118179160040161045e565b92909291608435906001600160401b0382116103735761052c9160040161048e565b3461037357611847366117ba565b91956001600160a01b031694919390929091853b156103735761187e5f92604051948593636691f64760e01b855260048501613143565b95818381819903925af180156106e6576118a1575b5061189e9293612459565b80f35b61189e93505f6118b091610e2b565b5f92611893565b34610373576118c5366117ba565b91956001600160a01b031694919390929091853b15610373576118fc5f92604051948593636691f64760e01b855260048501613143565b95818381819903925af180156106e65761191c575b5061189e9293612fb1565b61189e93505f61192b91610e2b565b5f92611911565b34610373575f36600319011261037357610a80604051611953604082610e2b565b60058152640352e302e360dc1b60208201526040519182916020835260208301906115df565b34610373575f60603660031901126103735760043561199781610db5565b6024356044356001600160401b038111610373576119b99036906004016103ca565b90926001600160a01b0316803b15610373576119ef935f809460405196879586948593636691f64760e01b855260048501613143565b03925af180156106e657611a01575080f35b61045c91505f90610e2b565b346103735761045c611a1e366103f7565b9091611a50611a2d8235613922565b93909485611a4b611a46611a413688612231565b613b6c565b613cc3565b613ce9565b91611a5c8185846145d1565b949093339361472d565b34610373576020366003190112610373576004355f9081526020818152604091829020805460019091015483516001600160a01b038316815260a083811c6001600160401b03169482019490945260e083811c62ffffff169582019590955260f89290921c6060808401919091526001600160601b0380831660808501529082901c16928201929092526001600160c01b031990911660c0820152f35b3461037357602036600319011261037357600435611b2081610db5565b60018060a01b03165f52600160205260206001600160601b0360405f205460601c16604051908152f35b346103735760203660031901126103735760206115d560043561315a565b346103735760203660031901126103735761045c600435336144a2565b34610373575f366003190112610373576040515f600254611ba5816124ae565b8084529060018116908115611c525750600114611c07575b610a8083611bcd81850382610e2b565b6040519182917f000000000000000000000000000000000000000000000000000000000000000083526040602084015260408301906115df565b60025f9081525f80516020615861833981519152939250905b808210611c3857509091508101602001611bcd611bbd565b919260018160209254838588010152019101909291611c20565b60ff191660208086019190915291151560051b84019091019150611bcd9050611bbd565b34610373576060366003190112610373576004356001600160401b03811161037357611ca69036906004016103bb565b6024356001600160401b03811161037357611cc59036906004016103ca565b90916044356001600160401b03811161037357611d1e611d2693611d2c61045c96611cf7611d359536906004016103ca565b9790611d038835613922565b969095611d16611a46611a41368d612231565b948786613ce9565b983691610e96565b9061544f565b90949194615493565b611d408282866145d1565b95909461472d565b5f3660031901126103735761045c6132e4565b346103735761045c611d6c366110cc565b9061333e565b346103735761045c611d8336610701565b9161343b565b34610373575f366003190112610373575f80516020615981833981519152546040516001600160a01b039091168152602090f35b346103735761045c611dce366110cc565b9061371f565b346103735761045c611de8610977366108d9565b61371f565b3461037357602036600319011261037357600435611e0a8161315a565b15610a84575f525f60205260206001600160401b0360405f205460a01c16604051908152f35b3461037357602036600319011261037357600435611e4d81610db5565b611e55613f21565b5f8051602061598183398151915280546001600160a01b0319166001600160a01b039283169081179091555f805160206158a1833981519152549091167f38d16b8cac22d99fc7c124b9cd0de2d3fa1faef420bfe791d8c362d765e227005f80a3005b3461037357604036600319011261037357600435611ed581610db5565b6024356001600160401b03811161037357611ef49036906004016103ca565b5f805160206159418339815191525492916001600160401b03611f2f60ff604087901c1615611f22565b1590565b956001600160401b031690565b1680159081612022575b6001149081612018575b15908161200f575b5061200057611f8e9284611f8560016001600160401b03195f805160206159418339815191525416175f8051602061594183398151915255565b611fdc5761372c565b611f9457005b5f80516020615941833981519152805460ff60401b19169055604051600181527fc7f505b2f371ae2175ee4913f4499e1f2633a7b5936321eed1cdaeb6115181d290602090a1005b5f80516020615941833981519152805460ff60401b1916600160401b17905561372c565b63f92ee8a960e01b5f5260045ffd5b9050155f611f4b565b303b159150611f43565b859150611f39565b34610373576120383661049c565b949591925f9491945b8781106120535761045c878787612fb1565b806120646105696001938b88612368565b01612041565b34610373575f36600319011261037357602060405160018152f35b35906001600160601b038216820361037357565b6002111561037357565b919060408382031261037357604051906120bc82610df5565b819380356120c981612099565b83526020810135916001600160401b038311610373576020926120ec9201610ecc565b910152565b6001600160e01b031981160361037357565b3590610e5b826120f1565b91908281039260a08412610373576040519161212983610e10565b6040839583358552601f1901126103735760405161214681610df5565b602083013561215481610db5565b815261216260408401612085565b602082015260208401526060820135906001600160401b03821161037357826121946080926120ec94606096016120a3565b604086015201612103565b359063ffffffff8216820361037357565b91908260e0910312610373576040516121c881610dda565b8092803582526020810135602083015260408101356001600160401b03811681036103735760c091829160408501526122036060820161219f565b60608501526122146080820161219f565b608085015261222560a0820161219f565b60a08501520135910152565b9190916101608184031261037357612247610e4c565b928135845260208201356001600160401b038111610373578161226b91840161210e565b602085015260408201356001600160401b038111610373578161228f918401610ecc565b604085015260608201356001600160401b03811161037357826122b9836080936122c496016120a3565b6060870152016121b0565b6080830152565b91610c3261231b602093612312608061230061232b968935948a611a4b611a46611a416122f78a613922565b50933690612231565b97019161230d36846121b0565b614c54565b505036906121b0565b6001600160401b03431690613d6a565b6001600160601b036040519161234083610df5565b600183521691018190526001607f1b17905d565b634e487b7160e01b5f52603260045260245ffd5b919081101561238b5760051b8101359061015e1981360301821215610373570190565b612354565b903590601e198136030182121561037357018035906001600160401b0382116103735760200191813603831361037357565b9082101561238b576104419160051b810190612390565b6001600160a01b03165f90815260016020526040902090565b80546bffffffffffffffffffffffff60601b191660609290921b6bffffffffffffffffffffffff60601b16919091179055565b8015150361037357565b90816020910312610373575161052c81612425565b6040513d5f823e3d90fd5b3561052c81610db5565b826060939261246792612fb1565b013561247281610db5565b6001600160a01b0381165f908152600160205260409020546001600160601b03168061249c575050565b816124a9610e5b93610db5565b613e69565b90600182811c921680156124dc575b60208310146124c857565b634e487b7160e01b5f52602260045260245ffd5b91607f16916124bd565b601f81116124f2575050565b60025f5260205f20906020601f840160051c8301931061252c575b601f0160051c01905b818110612521575050565b5f8155600101612516565b909150819061250d565b601f8111612542575050565b5f805160206158818339815191525f5260205f20906020601f840160051c83019310612588575b601f0160051c01905b81811061257d575050565b5f8155600101612572565b9091508190612569565b601f821161259f57505050565b5f5260205f20906020601f840160051c830193106125d7575b601f0160051c01905b8181106125cc575050565b5f81556001016125c1565b90915081906125b8565b91906001600160401b03811161086457612607816126006002546124ae565b6002612592565b5f601f821160011461263957819061263493945f926107f05750508160011b915f199060031b1c19161790565b600255565b60025f52601f198216935f80516020615861833981519152915f5b86811061268b5750836001959610612672575b505050811b01600255565b01355f19600384901b60f8161c191690555f8080612667565b90926020600181928686013581550194019101612654565b90610e5b6040516126b381610dda565b83546001600160a01b038116825260a081901c6001600160401b0316602083015260e081901c62ffffff16604083015260f81c606082015292839060c0906126fd90600190610a1f565b6001600160c01b031916910152565b634e487b7160e01b5f52601160045260245ffd5b90611d4c820291808304611d4c149015171561273857565b61270c565b908160011b918083046002149015171561273857565b600181901b91906001600160ff1b0381160361273857565b8181029291811591840414171561273857565b8115612788570490565b634e487b7160e01b5f52601260045260245ffd5b5f1981019190821161273857565b9190820391821161273857565b906001600160601b03809116911601906001600160601b03821161273857565b906001600160601b03166001600160601b0319825416179055565b908092918237015f815290565b602081526040602061281b8451838386015260608501906115df565b93015191015290565b6001600160401b0381116108645760051b60200190565b6040805190919061284c8382610e2b565b6001815291601f1901366020840137565b9061286782612824565b6128746040519182610e2b565b8281528092612885601f1991612824565b0190602036910137565b80511561238b5760200190565b805182101561238b5760209160051b010190565b903590601e198136030182121561037357018035906001600160401b03821161037357602001918160061b3603831361037357565b903590601e198136030182121561037357018035906001600160401b0382116103735760200191606082023603831361037357565b61ffff81160361037357565b919082606091031261037357604051606081018181106001600160401b038211176108645760405260406120ec81839580356129618161291a565b8552602081013561297181610db5565b602086015201612085565b9092919261298981612824565b936129976040519586610e2b565b606060208684815201920283019281841161037357915b8383106129bb5750505050565b60206060916129ca8486612926565b8152019201916129ae565b9291926129e182612824565b936129ef6040519586610e2b565b602085848152019260061b82019181831161037357925b828410612a135750505050565b6040848303126103735760206040918251612a2d81610df5565b8635612a388161291a565b815282870135612a47816120f1565b83820152815201930192612a06565b90602080835192838152019201905f5b818110612a735750505090565b8251805161ffff1685526020818101516001600160a01b0316818701526040918201516001600160601b03169186019190915260609094019390920191600101612a66565b90602080835192838152019201905f5b818110612ad55750505090565b8251805161ffff1685526020908101516001600160e01b0319168186015260409094019390920191600101612ac8565b6020815260c0810182519060a060208401528151809152602060e084019201905f5b818110612b86575050509060a06080612b6c612b5661052c956020880151601f19878303016040880152612a56565b6040870151858203601f19016060870152612ab8565b6060860151848301529401516001600160a01b0316910152565b8251845260209384019390920191600101612b27565b805191908290602001825e015f815290565b901561238b5790565b919081101561238b5760061b0190565b3561052c816120f1565b906004116103735790600490565b356001600160e01b0319811692919060048210612bfa575050565b6001600160e01b031960049290920360031b82901b16169150565b908060209392818452848401375f828201840152601f01601f1916010190565b90612c4f9060409396959496606084526060840191612c15565b9460208201520152565b90604082013560205f612c6f6060860186612390565b90612c7f604051809381936127f2565b039060025afa156106e657612c99612c9e915f519061408d565b614178565b7f00000000000000000000000000000000000000000000000000000000000000006001600160a01b03169290919060808101612cef612cdd8284612390565b9190612ce7610e5d565b923691610e96565b8152846020820152853b15610373575f612d1d9160405180938192631599ead560e01b8352600483016127ff565b03818961c350fa80156106e657612f31575b50612d3861283b565b6020830135612d468261288f565b526040840194612d5686866128b0565b9190612d6560208801886128e5565b9390612d7360608a0161244f565b94612d7c610e4c565b9687523690612d8a9261297c565b60208601523690612d9a926129d5565b604084015260608301526001600160a01b0316608082015260405180916020820190612dc591612b05565b03601f1981018252612dd79082610e2b565b604051612de5818093612b9c565b03905a915f916002602094fa156106e6575f5193612e0381856128b0565b9050151580612eeb575b612e8c5750505080612e1e91612390565b919092803b1561037357612e6d935f936040519586948593849363ab750e7560e01b85527f00000000000000000000000000000000000000000000000000000000000000009160048601612c35565b03915afa80156106e657612e7e5750565b80610d3f5f610e5b93610e2b565b612ebd612ec992612eb76020612eb1612eab612ec3966106fe9a6128b0565b90612bae565b01612bc7565b94612390565b90612bd1565b90612bdf565b632e2ce35360e21b5f526001600160e01b031991821660045216602452604490565b50612efe6020612eb1612eab84886128b0565b612f1e612f11612ec3612ebd8688612390565b6001600160e01b03191690565b6001600160e01b03199091161415612e0d565b80610d3f5f612f3f93610e2b565b5f612d2f565b3d15612f6f573d90612f5682610e7b565b91612f646040519384610e2b565b82523d5f602084013e565b606090565b919081101561238b576060020190565b61052c903690612926565b919081101561238b5760051b8101359060be1981360301821215610373570190565b612fbc83838361343b565b60208301612fca81856128e5565b9190505f5b828110613041575050505f5b828110612fe85750505050565b8061300b612ff96001938686612f8f565b6130056060880161244f565b9061434a565b613016818585612f8f565b357f4321394035f9f33b5a0c036d91d311549f949cdfc2a4fe70bd3745115b248da85f80a201612fdb565b8061306061305b600193613055868b6128e5565b90612f74565b612f84565b613080613079613072835161ffff1690565b61ffff1690565b8888612f8f565b90813561308f611f1e826130fa565b61309d575b50505001612fcf565b60208201516130f2936130ea916130ca906040906001600160a01b03165b9501516001600160601b031690565b6040820135906130dd6060840184612390565b9490936080810190612390565b969095614265565b5f8080613094565b61310661312391613922565b6001600160a01b039091165f908152600160205260409020613f75565b905090565b60405190613137602083610e2b565b5f808352366020840137565b60409061052c949281528160208201520191612c15565b61310661316691613922565b5090565b604051905f825f805160206158818339815191525491613189836124ae565b808352926001811690811561321857506001146131ad575b610e5b92500383610e2b565b505f805160206158818339815191525f90815290917f42ad5d3e1f2e6e70edcf6d991b8a3023d3fca8047a131592f9edb9fd9b89d57d5b8183106131fc575050906020610e5b928201016131a1565b60209193508060019154838589010152019101909184926131e4565b60209250610e5b94915060ff191682840152151560051b8201016131a1565b604051905f825f805160206158c18339815191525491613256836124ae565b8083529260018116908115613218575060011461327957610e5b92500383610e2b565b505f805160206158c18339815191525f90815290917f5f9ce34815f8e11431c7bb75a8e6886a91478f7ffc1dbb0a98dc240fddd76b755b8183106132c8575050906020610e5b928201016131a1565b60209193508060019154838589010152019101909184926132b0565b6133106132f034613e38565b335f526001602052610d2660405f20916001600160601b038354166127b7565b6040513481527fe1fffcc4923d04b559f4d29a8bfc6cda04eb5b0d3c460751c2402c5c5cc9109c60203392a2565b906133498183612c59565b6020810161335781836128e5565b905061339b575b5061336e6060613374920161244f565b8261434a565b357f4321394035f9f33b5a0c036d91d311549f949cdfc2a4fe70bd3745115b248da85f80a2565b6133a590826128e5565b9190911561238b57606061336e916133c1613374943690612926565b8535906133d0611f1e836130fa565b6133df575b505092505061335e565b602081015161342a9290613408906040906001600160a01b03169301516001600160601b031690565b60408901359061341a878b018b612390565b9290916130ea60808d018d612390565b5f806133d5565b3561052c8161291a565b919061ffff811161370757916134508361285d565b9061345a8461285d565b91604084019161346a83866128b0565b90505f5b81811061366d5750507f00000000000000000000000000000000000000000000000000000000000000006001600160a01b031695859291905f5b8181106135715750505061354e6020946135326134f15f9661351861355a97606061350d6134d86135409a61494f565b946134fa6134e88f8601866128e5565b989092866128b0565b9490950161244f565b96613503610e4c565b998a52369161297c565b8c88015236916129d5565b604085015260608401526001600160a01b03166080830152565b604051928391878301612b05565b03601f198101835282610e2b565b60405191828092612b9c565b039060025afa156106e657612e1e5f519180612390565b9091929350613581818385612f8f565b6020810135613590838961289c565b5260408101359060205f6135a76060840184612390565b906135b7604051809381936127f2565b039060025afa156106e6576135d4612c996135e9935f519061408d565b6135de848861289c565b526080810190612390565b919061360a6135f8838861289c565b5191613602610e5d565b943691610e96565b83526020830152883b15610373575f6136379260405180948192631599ead560e01b8352600483016127ff565b03818c61c350fa9182156106e657600192613659575b500190869392916134a8565b80610d3f5f61366793610e2b565b5f61364d565b866136c3612ec3612ebd6136b9878d6136b3999e996130726136ae8a8f806136a86020612eb18f6136a26136a29688926128b0565b90612bb7565b9c6128b0565b613431565b91612f8f565b6080810190612390565b906001600160e01b0319808316908216036136e557505060010196919661346e565b632e2ce35360e21b5f526001600160e01b03199081166004521660245260445ffd5b6377e4aa5360e11b5f5260045261ffff60245260445ffd5b906124678160609361333e565b92919092613738615309565b613740615309565b6001600160a01b0381161561390f5761375890614437565b613760615309565b604092835161376f8582610e2b565b601081526f12509bdd5b991b195cdcd3585c9ad95d60821b602082015261379885519586610e2b565b60018552603160f81b60208601526137ae615309565b6137b6615309565b8051906001600160401b038211610864576137e7826137e25f80516020615881833981519152546124ae565b612536565b602090601f831160011461386c578261383293610e5b97989361381e935f926138615750508160011b915f199060031b1c19161790565b5f8051602061588183398151915255615334565b6138475f5f805160206158e183398151915255565b61385c5f5f8051602061596183398151915255565b6125e1565b015190505f806107d7565b5f805160206158818339815191525f52601f19831691907f42ad5d3e1f2e6e70edcf6d991b8a3023d3fca8047a131592f9edb9fd9b89d57d925f5b8181106138f7575092600192859261383296610e5b9a9b96106138df575b505050811b015f8051602061588183398151915255615334565b01515f1960f88460031b161c191690555f80806138c5565b929360206001819287860151815501950193016138a7565b631e4fbdf760e01b5f525f60045260245ffd5b906001600160c01b0319821661394a57602082901c6001600160a01b03169163ffffffff1690565b6341abc80160e01b5f5260045ffd5b60405190613968606083610e2b565b60268252654c696d69742960d01b6040837f43616c6c6261636b286164647265737320616464722c75696e7439362067617360208201520152565b604051906139b2606083610e2b565b60218252602960f81b6040837f496e7075742875696e743820696e707574547970652c6279746573206461746160208201520152565b604051906139f760c083610e2b565b6084825263616b652960e01b60a0837f4f666665722875696e74323536206d696e50726963652c75696e74323536206d60208201527f617850726963652c75696e7436342062696464696e6753746172742c75696e7460408201527f33322072616d705570506572696f642c75696e743332206c6f636b54696d656f60608201527f75742c75696e7433322074696d656f75742c75696e74323536206c6f636b537460808201520152565b60405190613ab1606083610e2b565b602982526874657320646174612960b81b6040837f5072656469636174652875696e743820707265646963617465547970652c627960208201520152565b60405190613afe608083610e2b565b605382527274652c6279746573342073656c6563746f722960681b6060837f526571756972656d656e7473286279746573333220696d61676549642c43616c60208201527f6c6261636b2063616c6c6261636b2c507265646963617465207072656469636160408201520152565b604051613b7a608082610e2b565b605a81527f50726f6f66526571756573742875696e743235362069642c526571756972656d60208201527f656e747320726571756972656d656e74732c737472696e6720696d616765557260408201527f6c2c496e70757420696e7075742c4f66666572206f66666572290000000000006060820152613c41613c47613bfe613959565b613540613c096139a3565b613c41613c146139e8565b613c41613c1f613aa2565b91613c41613c2b613aef565b956040519a8b99613c4160208c019e8f90612b9c565b90612b9c565b51902090613cbd8151613540613c606020850151614a35565b9360408101516020815191012090613c886080613c806060840151614b31565b920151614b85565b9160405196879560208701998a9260a094919796959260c0850198855260208501526040840152606083015260808201520152565b51902090565b604290613cce614e26565b906040519161190160f01b8352600283015260228201522090565b92613cfc613d0b93613d02923691610e96565b8461544f565b90939193615493565b6001600160a01b03908116911603613d205790565b638baa579f60e01b5f5260045ffd5b906001600160401b03809116911601906001600160401b03821161273857565b906001820180921161273857565b9190820180921161273857565b6040810191613d8083516001600160401b031690565b906001600160401b03808316911690811115613e3057613dc1610b096060850193613dbb613db2865163ffffffff1690565b63ffffffff1690565b90613d2f565b811115613dd357505060209150015190565b92613e25613e2a92613e1d61052c96613e17610b09613e09613db2613dfe60208c01518c51906127aa565b965163ffffffff1690565b96516001600160401b031690565b906127aa565b94519461276b565b61277e565b90613d5d565b505090505190565b6001600160601b038111613e52576001600160601b031690565b6306dfcc6560e41b5f52606060045260245260445ffd5b6001600160601b03613e7a826123d9565b54166001600160601b0380613e8e85613e38565b16911610613f0157613eae613ea283613e38565b610d26611252846123d9565b5f80808085855af1613ebe612f45565b50156106a8576040519182526001600160a01b0316907f7fcf532c15f0a6db0bd6d0e038bea71d30d808c7d98cb3bf7268a95bf5081b659080602081015b0390a2565b63112fed8b60e31b5f9081526001600160a01b0391909116600452602490fd5b5f805160206158a1833981519152546001600160a01b031633036113d257565b61052c9062ffffff60406001600160401b036020840151169201511690613d2f565b630200000082101561238b5701905f90565b9063ffffffff166020811015613fe257613fc1613f96613fd2935460c01c90565b613fba6003613fa7610b098661273d565b6001600160401b038080931691161b1690565b169161273d565b6001600160401b03809216901c1690565b9060026001831615159216151590565b61402561401f614015613ff9602061402b956127aa565b94600161400e6140088861273d565b60081c90565b9101613f63565b90549060031b1c90565b9261273d565b60ff1690565b906003821b16901c9060026001831615159216151590565b90816020910312610373575190565b6040519061405f82610df5565b5f6020838281520152565b634e487b7160e01b5f52602160045260245ffd5b6003111561408857565b61406a565b9060405160a081018181106001600160401b03821117610864575f916080916040528281528260208201526140c0614052565b604082015282606082015201526140f86140d8610e5d565b915f83525f60208401526140ea610e5d565b9081525f6020820152614dc5565b90614101610e4c565b9283527fa3acc27117418996340b84e5a90f3ef4c49d22c79e44aad822ec9c313e1eb8e2602084015260408301525f6060830152608082015290565b60205f60126040517172697363302e52656365697074436c61696d60701b815260025afa156106e6575f5190565b5160038110156140885790565b5f61423360209261354e61418a61413d565b6135406060840151938051908881015190604060808201519101906141db6141c56140258d6141d16141bc875161416b565b6141c58161407e565b60181b63ff0000001690565b9551015160ff1690565b604080518d8101988952602089019a909a52870194909452606086019290925260808501919091526001600160e01b031960e091821b811660a086015291901b1660a4830152600160fa1b60a8830152839160aa0190565b039060025afa156106e6575f5190565b6001600160a01b03909116815260406020820181905261052c929101906115df565b96909594929392906001600160a01b038716803b15610373576001600160601b035f966142cd6142bb9989956040519b8c9a8b998a9663a12da43f60e01b88526004880152606060248801526064870191612c15565b84810360031901604486015291612c15565b039416f1908161431b575b50614317577f5c5960582bfc7a494183b4e9a66bfe8ecffc07a83a48d136e732400f7b98bf5090614307612f45565b90613efc60405192839283614243565b5050565b80610d3f5f61432993610e2b565b5f6142d8565b3561052c81612425565b90602061052c9281815201906115df565b919082359061435882613922565b9061436682610ac1836123d9565b92901561442757614381610ae0865f525f60205260405f2090565b9161439660208401516001600160401b031690565b436001600160401b039190911610614412576143b79560208901359361515b565b915b82516143c457509050565b60a06143d0910161432f565b156143db57506152b7565b9061440d7f210e4fd706e561df48472433bcc50b4589f2c13e784e9992f4c3e6de26eb35649160405191829182614339565b0390a1565b61442195602089013593614fd8565b916143b9565b6144219491602088013592614e87565b5f8051602061598183398151915280546001600160a01b03199081169091555f805160206158a183398151915280549182166001600160a01b0393841690811790915591167f8be0079c531659141344cd1fd0a4f28419497f9722a3daafe3b4186f6b6457e05f80a3565b6040516323b872dd60e01b602082019081526001600160a01b0380841660248401819052306044850152606480850187905284529493927f000000000000000000000000000000000000000000000000000000000000000090911691614526915f918291614511608482610e2b565b519082865af161451f612f45565b9083615802565b80519081151591826145b3575b5050614598575081614588613efc9261060c614572610d0e7f1da2c4060997c108162f55c30ad2268924b069210f8c686ba302e1acc6909ccc97613e38565b91610c9283546001600160601b039060601c1690565b6040519081529081906020820190565b635274afe760e01b5f526001600160a01b031660045260245ffd5b6145ca925090602080611f1e93830101910161242f565b5f80614533565b92909261460b6145f06145e736608085016121b0565b92358093614c54565b94909560018060a01b03165f52600160205260405f20613f75565b90614629576146175750565b631cfdeebb60e01b5f5260045260245ffd5b5063a905765160e01b5f5260045260245ffd5b906001600160401b03809116911603906001600160401b03821161273857565b815160208301516040840151606085015160f81b6001600160f81b03191667ffffffffffffffff60a01b60a09390931b929092166001600160a01b039093169290921762ffffff60e01b60e09390931b9290921691909117178155610e5b91906147109060c090600101926146e46146de60808301516001600160601b031690565b856127d7565b6147016146fb60a08301516001600160601b031690565b856123f2565b01516001600160c01b03191690565b81546001600160c01b03166001600160c01b031991909116179055565b9193949561473e84610ac1876123d9565b9061493b576149275761475a610c3261231b36608087016121b0565b90614764866123d9565b9561477687546001600160601b031690565b906001600160601b0384166001600160601b0383161061490c5750906001600160601b0392916147a5896123d9565b906147bb82546001600160601b039060601c1690565b61014088013595869116106148f0578a91908490036001600160601b03166147e3908a6127d7565b6147ec85613e38565b815460601c6001600160601b0316036001600160601b031661480d916123f2565b6148169161463c565b6001600160401b0316614828906152bf565b9161483290613e38565b9161483b610e6c565b6001600160a01b0389168152986001600160401b031660208a015262ffffff1660408901525f60608901526001600160601b031660808801526001600160601b031660a08701526001600160c01b03191660c086015235936148a4855f525f60205260405f2090565b906148ae9161465c565b6148b79161565a565b6040516001600160a01b039190911681527ffb1dd4383bc31d469e205e04236dbca09ae13ab0373414dccbe098a861ddef5590602090a2565b63112fed8b60e31b5f526001600160a01b038a1660045260245ffd5b63112fed8b60e31b5f526001600160a01b031660045260245ffd5b631cfdeebb60e01b5f52823560045260245ffd5b63a905765160e01b5f52833560045260245ffd5b80511561394a576001815114614a2c578051905b6001821161497957614975915061288f565b5190565b61498b61498583613d4f565b60011c90565b925f5b6149988460011c90565b8110156149ea57806149d96149b76149b1600194612753565b8661289c565b516149d26149cc6149c785612753565b613d4f565b8761289c565b51906152e8565b6149e3828661289c565b520161498e565b50929091600180821614614a00575b5090614963565b614a0c614a129161279c565b8361289c565b51614a25614a1f8361279c565b8461289c565b525f6149f9565b6149759061288f565b614a3d613aef565b613c41614a6a614a4b613959565b613540614a56613aa2565b604051948593613c41602086018099612b9c565b51902090613cbd81516135406020840151614a83613959565b60208151910120906001600160601b03602060018060a01b038351169201511660405191602083019384526040830152606082015260608152614ac7608082610e2b565b51902093614aed6060614add6040840151615447565b9201516001600160e01b03191690565b604080516020810198895290810194909452606084019590955260808301526001600160e01b031990931660a082015291829060c0820190565b6002111561408857565b614b396139a3565b60208151910120906020815191614b4f83614b27565b0151602081519101206040519160208301938452614b6c81614b27565b6040830152606082015260608152613cbd608082610e2b565b614b8d6139e8565b604051614ba281613540602082018095612b9c565b51902090613cbd8151613540602084015193614bc860408201516001600160401b031690565b90614bda606082015163ffffffff1690565b608082015163ffffffff169060c0614bf960a085015163ffffffff1690565b93015193604051988997602089019b8c9463ffffffff94906001600160401b0386949260e099949c9b9a9686946101008b019e8b5260208b015260408a01521660608801521660808601521660a08401521660c08201520152565b91614c66606084015163ffffffff1690565b60a084019063ffffffff614c81613db2845163ffffffff1690565b91161161394a57835160208501511061394a5763ffffffff614cbb613db2614cb0608088015163ffffffff1690565b935163ffffffff1690565b91161161394a57614cd4614cce8461550f565b93615532565b9162ffffff6001600160401b03614ceb868661463c565b161161394a57436001600160401b03841610614d045750565b63873fd26b60e01b5f526004526001600160401b03821660245260445ffd5b90813b15614da4575f8051602061590183398151915280546001600160a01b0319166001600160a01b0384169081179091557fbc7cd75a20ee27fd9adebab32041f755214dbc6bffa90cc0225b39da2e5c2d3b5f80a2805115614d8c57614d8991615555565b50565b505034614d9557565b63b398979f60e01b5f5260045ffd5b50634c9c8ce360e01b5f9081526001600160a01b0391909116600452602490fd5b60205f600c6040516b1c9a5cd8cc0b93dd5d1c1d5d60a21b815260025afa156106e6575f8051825160209384015160408051808701949094528301919091526060820152600160f91b6080820152606281526142339061354e608282610e2b565b614e2e615572565b614e366155c9565b6040519060208201927f8b73c3c69bb8fe3d512ecc4cf759cc79239f7b179b0ffacaa9a75d522b39400f8452604083015260608201524660808201523060a082015260a08152613cbd60c082610e2b565b93959492606096614f8b57614e9b906155fb565b614ea8611f1e8251151590565b614f5e57602001516001600160601b031693614ecd614ec6836123d9565b9384615710565b5f805160206159218339815191525f80a281546001600160601b0316906001600160601b0385166001600160601b03831610614f2757508392610c74610d2693610d26610e5b97610d1495906001600160601b0391031690565b60405163112fed8b60e31b60208201526001600160a01b03909116602482015294955061052c935084925050604482019050613540565b5050604051635502416760e01b6020820152602481019390935250919250905061052c8160448101613540565b5050604051631cfdeebb60e01b6020820152602481019390935250919250905061052c8160448101613540565b906001600160601b03809116911603906001600160601b03821161273857565b92969593909496606097614feb85615637565b61512957906150019291156150ff575b506155fb565b61500e611f1e8251151590565b614f5e57602001516001600160601b03169361503761503160806130bb856123d9565b86614fb8565b9161504984546001600160601b031690565b6001600160601b038085169116106150c6575092610c74610d2693610d26610d14946150b685615084610e5b9b9a5f525f60205260405f2090565b80546001600160a01b0319166001600160a01b0390921691909117815580546001600160f81b0316600160f91b179055565b82546001600160601b03166105ff565b60405163112fed8b60e31b60208201526001600160a01b03909116602482015295965061052c9450859350506044830191506135409050565b6151119061510c856123d9565b615710565b855f805160206159218339815191525f80a25f614ffb565b5050604051631cfdeebb60e01b602082015260248101959095525093945091925061052c915082905060448101613540565b9396959492909260609761516e86615637565b6152865760c08601516001600160c01b0319908116911680820361525f5750501561523a575b505081516001600160a01b0384811691160361520e57614572610d0e60a0610e5b95946151eb6151ce61060c965f525f60205260405f2090565b80546001600160f81b0316600160f81b1781555f60019190910155565b610d0061520260808301516001600160601b031690565b610d26610d14896123d9565b60405163a905765160e01b6020820152602481019190915292935061052c915082905060448101613540565b61510c615246926123d9565b805f805160206159218339815191525f80a25f80615194565b6321c9e4d560e11b5f5260048690526001600160c01b03199081166024521660445260645ffd5b5050604051631cfdeebb60e01b6020820152602481019390935250939450925061052c915082905060448101613540565b602081519101fd5b62ffffff81116152d15762ffffff1690565b6306dfcc6560e41b5f52601860045260245260445ffd5b818110156152fc575f5260205260405f2090565b905f5260205260405f2090565b60ff5f805160206159418339815191525460401c161561532557565b631afcd79f60e31b5f5260045ffd5b9081516001600160401b03811161086457615373816153605f805160206158c1833981519152546124ae565b5f805160206158c1833981519152612592565b602092601f82116001146153b3576153a2929382915f926138615750508160011b915f199060031b1c19161790565b5f805160206158c183398151915255565b5f805160206158c18339815191525f52601f198216937f5f9ce34815f8e11431c7bb75a8e6886a91478f7ffc1dbb0a98dc240fddd76b75915f5b86811061542f5750836001959610615417575b505050811b015f805160206158c183398151915255565b01515f1960f88460031b161c191690555f8080615400565b919260206001819286850151815501940192016153ed565b614b39613aa2565b815191906041830361547f576154789250602082015190606060408401519301515f1a9061578a565b9192909190565b50505f9160029190565b6004111561408857565b61549c81615489565b806154a5575050565b6154ae81615489565b600181036154c55763f645eedf60e01b5f5260045ffd5b6154ce81615489565b600281036154e9575063fce698f760e01b5f5260045260245ffd5b806154f5600392615489565b146154fd5750565b6335e2f38360e21b5f5260045260245ffd5b61052c9063ffffffff60806001600160401b036040840151169201511690613d2f565b61052c9063ffffffff60a06001600160401b036040840151169201511690613d2f565b5f8061052c93602081519101845af461556c612f45565b91615802565b61557a61316a565b805190811561558a576020012090565b50505f805160206158e18339815191525480156155a45790565b507fc5d2460186f7233c927e7db2dcc703c0e500b653ca82273b7bfad8045d85a47090565b6155d1613237565b80519081156155e1576020012090565b50505f805160206159618339815191525480156155a45790565b615603614052565b505c61560d614052565b506001600160601b036040519161562383610df5565b6001607f1b81161515835216602082015290565b6060810151600116151590811561564c575090565b606001516002161515905090565b9063ffffffff1660208110156156ba579061568f61567d610b09610e5b9461273d565b60016001600160401b039182161b1690565b815460c01c1790805490916001600160c01b0390911660c09190911b6001600160c01b031916179055565b60208103908111612738576156ed610e5b9260016156e360ff6156dc8661273d565b169461273d565b60081c9101613f63565b81545f1960039290921b91821b198116600190941b90821c17901b919091179055565b9063ffffffff166020811015615745579061568f615733610b09610e5b9461273d565b60026001600160401b039182161b1690565b6020810390811161273857615767610e5b9260016156e360ff6156dc8661273d565b81545f1960039290921b91821b198116600290941b90821c17901b919091179055565b91906fa2a8918ca85bafe22016d0b997e4df60600160ff1b0384116157f7579160209360809260ff5f9560405194855216868401526040830152606082015282805260015afa156106e6575f516001600160a01b038116156157ed57905f905f90565b505f906001905f90565b5050505f9160039190565b90615826575080511561581757805190602001fd5b630a12f52160e11b5f5260045ffd5b81511580615857575b615837575090565b639996b31560e01b5f9081526001600160a01b0391909116600452602490fd5b50803b1561582f56fe405787fa12a823e0f2b7631cc41b3ba8828b3321ca811111fa75cd3aa3bb5acea16a46d94261c7517cc8ff89f61c0ce93598e3c849801011dee649a6a557d1029016d09d72d40fdae2fd8ceac6b6234c7706214fd39c1cd1e609a0528c199300a16a46d94261c7517cc8ff89f61c0ce93598e3c849801011dee649a6a557d103a16a46d94261c7517cc8ff89f61c0ce93598e3c849801011dee649a6a557d100360894a13ba1a3210667c828492db98dca3e2076cc3735a920a3ca505d382bbc1cedb001a5114ea90393cd9f134224e9e1312545ee8a9b9533d780be6a9bf8b7f0c57e16840df040f15088dc2f81fe391c3923bec73e23a9662efc9c229c6a00a16a46d94261c7517cc8ff89f61c0ce93598e3c849801011dee649a6a557d101237e158222e3e6968b72b9db0d8043aacf074ad9f650f0d1606b4d82ee432c00a164736f6c634300081a000a","linkReferences":{}},"methodIdentifiers":{"ASSESSOR_ID()":"9fe9428c","FULFILL_MAX_GAS_FOR_VERIFY()":"515990bc","MARKET_FEE_BPS()":"553c0248","SLASHING_BURN_BPS()":"956b0960","STAKE_TOKEN_CONTRACT()":"5fbb4921","UPGRADE_INTERFACE_VERSION()":"ad3cb1cc","VERIFIER()":"08c84e70","VERSION()":"ffa1ad74","acceptOwnership()":"79ba5097","balanceOf(address)":"70a08231","balanceOfStake(address)":"cb09e7c0","deposit()":"d0e30db0","depositStake(uint256)":"cb82cc8f","depositStakeWithPermit(uint256,uint256,uint8,bytes32,bytes32)":"8094e614","eip712Domain()":"84b0196e","eip712DomainSeparator()":"5b07fdd8","fulfill((uint256,bytes32,bytes32,bytes,bytes,bool),(bytes,(uint16,address,uint96)[],(uint16,bytes4)[],address))":"d4f51f2c","fulfillAndWithdraw((uint256,bytes32,bytes32,bytes,bytes,bool),(bytes,(uint16,address,uint96)[],(uint16,bytes4)[],address))":"eed8f685","fulfillBatch((uint256,bytes32,bytes32,bytes,bytes,bool)[],(bytes,(uint16,address,uint96)[],(uint16,bytes4)[],address))":"6a8bcd16","fulfillBatchAndWithdraw((uint256,bytes32,bytes32,bytes,bytes,bool)[],(bytes,(uint16,address,uint96)[],(uint16,bytes4)[],address))":"296f49ae","imageInfo()":"cdc97123","initialize(address,string)":"f399e22e","lockRequest((uint256,(bytes32,(address,uint96),(uint8,bytes),bytes4),string,(uint8,bytes),(uint256,uint256,uint64,uint32,uint32,uint32,uint256)),bytes)":"b4206dd2","lockRequestWithSignature((uint256,(bytes32,(address,uint96),(uint8,bytes),bytes4),string,(uint8,bytes),(uint256,uint256,uint64,uint32,uint32,uint32,uint256)),bytes,bytes)":"cfbebd8b","owner()":"8da5cb5b","pendingOwner()":"e30c3978","priceAndFulfill((uint256,(bytes32,(address,uint96),(uint8,bytes),bytes4),string,(uint8,bytes),(uint256,uint256,uint64,uint32,uint32,uint32,uint256)),bytes,(uint256,bytes32,bytes32,bytes,bytes,bool),(bytes,(uint16,address,uint96)[],(uint16,bytes4)[],address))":"3de6bd3f","priceAndFulfillAndWithdraw((uint256,(bytes32,(address,uint96),(uint8,bytes),bytes4),string,(uint8,bytes),(uint256,uint256,uint64,uint32,uint32,uint32,uint256)),bytes,(uint256,bytes32,bytes32,bytes,bytes,bool),(bytes,(uint16,address,uint96)[],(uint16,bytes4)[],address))":"f0e90d2f","priceAndFulfillBatch((uint256,(bytes32,(address,uint96),(uint8,bytes),bytes4),string,(uint8,bytes),(uint256,uint256,uint64,uint32,uint32,uint32,uint256))[],bytes[],(uint256,bytes32,bytes32,bytes,bytes,bool)[],(bytes,(uint16,address,uint96)[],(uint16,bytes4)[],address))":"f7780f48","priceAndFulfillBatchAndWithdraw((uint256,(bytes32,(address,uint96),(uint8,bytes),bytes4),string,(uint8,bytes),(uint256,uint256,uint64,uint32,uint32,uint32,uint256))[],bytes[],(uint256,bytes32,bytes32,bytes,bytes,bool)[],(bytes,(uint16,address,uint96)[],(uint16,bytes4)[],address))":"1b22d1b4","priceRequest((uint256,(bytes32,(address,uint96),(uint8,bytes),bytes4),string,(uint8,bytes),(uint256,uint256,uint64,uint32,uint32,uint32,uint256)),bytes)":"17e828c4","proxiableUUID()":"52d1902d","renounceOwnership()":"715018a6","requestDeadline(uint256)":"41451f94","requestIsFulfilled(uint256)":"81bf6c24","requestIsLocked(uint256)":"cb74db11","requestIsSlashed(uint256)":"60dfd4a9","requestLockDeadline(uint256)":"f2800f1a","requestLocks(uint256)":"c515c15f","setImageUrl(string)":"2abff1f2","slash(uint256)":"45bc4d10","submitRequest((uint256,(bytes32,(address,uint96),(uint8,bytes),bytes4),string,(uint8,bytes),(uint256,uint256,uint64,uint32,uint32,uint32,uint256)),bytes)":"380f9c38","submitRoot(address,bytes32,bytes)":"ae7330f1","submitRootAndFulfillBatch(address,bytes32,bytes,(uint256,bytes32,bytes32,bytes,bytes,bool)[],(bytes,(uint16,address,uint96)[],(uint16,bytes4)[],address))":"aa9cb1d2","submitRootAndFulfillBatchAndWithdraw(address,bytes32,bytes,(uint256,bytes32,bytes32,bytes,bytes,bool)[],(bytes,(uint16,address,uint96)[],(uint16,bytes4)[],address))":"a3096a8c","transferOwnership(address)":"f2fde38b","upgradeToAndCall(address,bytes)":"4f1ef286","verifyBatchDelivery((uint256,bytes32,bytes32,bytes,bytes,bool)[],(bytes,(uint16,address,uint96)[],(uint16,bytes4)[],address))":"da6a0eec","verifyDelivery((uint256,bytes32,bytes32,bytes,bytes,bool),(bytes,(uint16,address,uint96)[],(uint16,bytes4)[],address))":"5746d7f7","withdraw(uint256)":"2e1a7d4d","withdrawFromStakeTreasury(uint256)":"8040fdc0","withdrawFromTreasury(uint256)":"63555624","withdrawStake(uint256)":"25d5971f"},"storageLayout":{"storage":[{"astId":1402,"contract":"contracts/src/BoundlessMarket.sol:BoundlessMarket","label":"requestLocks","offset":0,"slot":"0","type":"t_mapping(t_userDefinedValueType(RequestId)6517,t_struct(RequestLock)6636_storage)"},{"astId":1408,"contract":"contracts/src/BoundlessMarket.sol:BoundlessMarket","label":"accounts","offset":0,"slot":"1","type":"t_mapping(t_address,t_struct(Account)5124_storage)"},{"astId":1417,"contract":"contracts/src/BoundlessMarket.sol:BoundlessMarket","label":"imageUrl","offset":0,"slot":"2","type":"t_string_storage"}],"types":{"t_address":{"encoding":"inplace","label":"address","numberOfBytes":"20"},"t_array(t_uint256)33554432_storage":{"encoding":"inplace","label":"uint256[33554432]","numberOfBytes":"1073741824","base":"t_uint256"},"t_bytes8":{"encoding":"inplace","label":"bytes8","numberOfBytes":"8"},"t_mapping(t_address,t_struct(Account)5124_storage)":{"encoding":"mapping","key":"t_address","label":"mapping(address => struct Account)","numberOfBytes":"32","value":"t_struct(Account)5124_storage"},"t_mapping(t_userDefinedValueType(RequestId)6517,t_struct(RequestLock)6636_storage)":{"encoding":"mapping","key":"t_userDefinedValueType(RequestId)6517","label":"mapping(RequestId => struct RequestLock)","numberOfBytes":"32","value":"t_struct(RequestLock)6636_storage"},"t_string_storage":{"encoding":"bytes","label":"string","numberOfBytes":"32"},"t_struct(Account)5124_storage":{"encoding":"inplace","label":"struct Account","numberOfBytes":"1073741856","members":[{"astId":5105,"contract":"contracts/src/BoundlessMarket.sol:BoundlessMarket","label":"balance","offset":0,"slot":"0","type":"t_uint96"},{"astId":5108,"contract":"contracts/src/BoundlessMarket.sol:BoundlessMarket","label":"stakeBalance","offset":12,"slot":"0","type":"t_uint96"},{"astId":5111,"contract":"contracts/src/BoundlessMarket.sol:BoundlessMarket","label":"requestFlagsInitial","offset":24,"slot":"0","type":"t_uint64"},{"astId":5123,"contract":"contracts/src/BoundlessMarket.sol:BoundlessMarket","label":"requestFlagsExtended","offset":0,"slot":"1","type":"t_array(t_uint256)33554432_storage"}]},"t_struct(RequestLock)6636_storage":{"encoding":"inplace","label":"struct RequestLock","numberOfBytes":"64","members":[{"astId":6618,"contract":"contracts/src/BoundlessMarket.sol:BoundlessMarket","label":"prover","offset":0,"slot":"0","type":"t_address"},{"astId":6621,"contract":"contracts/src/BoundlessMarket.sol:BoundlessMarket","label":"lockDeadline","offset":20,"slot":"0","type":"t_uint64"},{"astId":6624,"contract":"contracts/src/BoundlessMarket.sol:BoundlessMarket","label":"deadlineDelta","offset":28,"slot":"0","type":"t_uint24"},{"astId":6627,"contract":"contracts/src/BoundlessMarket.sol:BoundlessMarket","label":"requestLockFlags","offset":31,"slot":"0","type":"t_uint8"},{"astId":6630,"contract":"contracts/src/BoundlessMarket.sol:BoundlessMarket","label":"price","offset":0,"slot":"1","type":"t_uint96"},{"astId":6632,"contract":"contracts/src/BoundlessMarket.sol:BoundlessMarket","label":"stake","offset":12,"slot":"1","type":"t_uint96"},{"astId":6635,"contract":"contracts/src/BoundlessMarket.sol:BoundlessMarket","label":"fingerprint","offset":24,"slot":"1","type":"t_bytes8"}]},"t_uint24":{"encoding":"inplace","label":"uint24","numberOfBytes":"3"},"t_uint256":{"encoding":"inplace","label":"uint256","numberOfBytes":"32"},"t_uint64":{"encoding":"inplace","label":"uint64","numberOfBytes":"8"},"t_uint8":{"encoding":"inplace","label":"uint8","numberOfBytes":"1"},"t_uint96":{"encoding":"inplace","label":"uint96","numberOfBytes":"12"},"t_userDefinedValueType(RequestId)6517":{"encoding":"inplace","label":"RequestId","numberOfBytes":"32"}}},"id":3}