{"abi":[{"type":"constructor","inputs":[{"name":"initialOwner","type":"address","internalType":"address"}],"stateMutability":"nonpayable"},{"type":"function","name":"AUTHORIZED_TRANSFER","inputs":[],"outputs":[{"name":"","type":"bytes32","internalType":"bytes32"}],"stateMutability":"view"},{"type":"function","name":"DEFAULT_ADMIN_ROLE","inputs":[],"outputs":[{"name":"","type":"bytes32","internalType":"bytes32"}],"stateMutability":"view"},{"type":"function","name":"DOMAIN_SEPARATOR","inputs":[],"outputs":[{"name":"","type":"bytes32","internalType":"bytes32"}],"stateMutability":"view"},{"type":"function","name":"MINTER","inputs":[],"outputs":[{"name":"","type":"bytes32","internalType":"bytes32"}],"stateMutability":"view"},{"type":"function","name":"allowance","inputs":[{"name":"owner","type":"address","internalType":"address"},{"name":"spender","type":"address","internalType":"address"}],"outputs":[{"name":"","type":"uint256","internalType":"uint256"}],"stateMutability":"view"},{"type":"function","name":"approve","inputs":[{"name":"spender","type":"address","internalType":"address"},{"name":"value","type":"uint256","internalType":"uint256"}],"outputs":[{"name":"","type":"bool","internalType":"bool"}],"stateMutability":"nonpayable"},{"type":"function","name":"balanceOf","inputs":[{"name":"account","type":"address","internalType":"address"}],"outputs":[{"name":"","type":"uint256","internalType":"uint256"}],"stateMutability":"view"},{"type":"function","name":"burn","inputs":[{"name":"value","type":"uint256","internalType":"uint256"}],"outputs":[],"stateMutability":"nonpayable"},{"type":"function","name":"burnFrom","inputs":[{"name":"account","type":"address","internalType":"address"},{"name":"value","type":"uint256","internalType":"uint256"}],"outputs":[],"stateMutability":"nonpayable"},{"type":"function","name":"decimals","inputs":[],"outputs":[{"name":"","type":"uint8","internalType":"uint8"}],"stateMutability":"view"},{"type":"function","name":"eip712Domain","inputs":[],"outputs":[{"name":"fields","type":"bytes1","internalType":"bytes1"},{"name":"name","type":"string","internalType":"string"},{"name":"version","type":"string","internalType":"string"},{"name":"chainId","type":"uint256","internalType":"uint256"},{"name":"verifyingContract","type":"address","internalType":"address"},{"name":"salt","type":"bytes32","internalType":"bytes32"},{"name":"extensions","type":"uint256[]","internalType":"uint256[]"}],"stateMutability":"view"},{"type":"function","name":"getRoleAdmin","inputs":[{"name":"role","type":"bytes32","internalType":"bytes32"}],"outputs":[{"name":"","type":"bytes32","internalType":"bytes32"}],"stateMutability":"view"},{"type":"function","name":"grantAuthorizedTransferRole","inputs":[{"name":"account","type":"address","internalType":"address"}],"outputs":[],"stateMutability":"nonpayable"},{"type":"function","name":"grantMinterRole","inputs":[{"name":"account","type":"address","internalType":"address"}],"outputs":[],"stateMutability":"nonpayable"},{"type":"function","name":"grantRole","inputs":[{"name":"role","type":"bytes32","internalType":"bytes32"},{"name":"account","type":"address","internalType":"address"}],"outputs":[],"stateMutability":"nonpayable"},{"type":"function","name":"hasRole","inputs":[{"name":"role","type":"bytes32","internalType":"bytes32"},{"name":"account","type":"address","internalType":"address"}],"outputs":[{"name":"","type":"bool","internalType":"bool"}],"stateMutability":"view"},{"type":"function","name":"mint","inputs":[{"name":"account","type":"address","internalType":"address"},{"name":"value","type":"uint256","internalType":"uint256"}],"outputs":[],"stateMutability":"nonpayable"},{"type":"function","name":"name","inputs":[],"outputs":[{"name":"","type":"string","internalType":"string"}],"stateMutability":"view"},{"type":"function","name":"nonces","inputs":[{"name":"owner","type":"address","internalType":"address"}],"outputs":[{"name":"","type":"uint256","internalType":"uint256"}],"stateMutability":"view"},{"type":"function","name":"owner","inputs":[],"outputs":[{"name":"","type":"address","internalType":"address"}],"stateMutability":"view"},{"type":"function","name":"permit","inputs":[{"name":"owner","type":"address","internalType":"address"},{"name":"spender","type":"address","internalType":"address"},{"name":"value","type":"uint256","internalType":"uint256"},{"name":"deadline","type":"uint256","internalType":"uint256"},{"name":"v","type":"uint8","internalType":"uint8"},{"name":"r","type":"bytes32","internalType":"bytes32"},{"name":"s","type":"bytes32","internalType":"bytes32"}],"outputs":[],"stateMutability":"nonpayable"},{"type":"function","name":"renounceOwnership","inputs":[],"outputs":[],"stateMutability":"nonpayable"},{"type":"function","name":"renounceRole","inputs":[{"name":"role","type":"bytes32","internalType":"bytes32"},{"name":"callerConfirmation","type":"address","internalType":"address"}],"outputs":[],"stateMutability":"nonpayable"},{"type":"function","name":"revokeAuthorizedTransferRole","inputs":[{"name":"account","type":"address","internalType":"address"}],"outputs":[],"stateMutability":"nonpayable"},{"type":"function","name":"revokeMinterRole","inputs":[{"name":"account","type":"address","internalType":"address"}],"outputs":[],"stateMutability":"nonpayable"},{"type":"function","name":"revokeRole","inputs":[{"name":"role","type":"bytes32","internalType":"bytes32"},{"name":"account","type":"address","internalType":"address"}],"outputs":[],"stateMutability":"nonpayable"},{"type":"function","name":"supportsInterface","inputs":[{"name":"interfaceId","type":"bytes4","internalType":"bytes4"}],"outputs":[{"name":"","type":"bool","internalType":"bool"}],"stateMutability":"view"},{"type":"function","name":"symbol","inputs":[],"outputs":[{"name":"","type":"string","internalType":"string"}],"stateMutability":"view"},{"type":"function","name":"totalSupply","inputs":[],"outputs":[{"name":"","type":"uint256","internalType":"uint256"}],"stateMutability":"view"},{"type":"function","name":"transfer","inputs":[{"name":"to","type":"address","internalType":"address"},{"name":"value","type":"uint256","internalType":"uint256"}],"outputs":[{"name":"","type":"bool","internalType":"bool"}],"stateMutability":"nonpayable"},{"type":"function","name":"transferFrom","inputs":[{"name":"from","type":"address","internalType":"address"},{"name":"to","type":"address","internalType":"address"},{"name":"value","type":"uint256","internalType":"uint256"}],"outputs":[{"name":"","type":"bool","internalType":"bool"}],"stateMutability":"nonpayable"},{"type":"function","name":"transferOwnership","inputs":[{"name":"newOwner","type":"address","internalType":"address"}],"outputs":[],"stateMutability":"nonpayable"},{"type":"event","name":"Approval","inputs":[{"name":"owner","type":"address","indexed":true,"internalType":"address"},{"name":"spender","type":"address","indexed":true,"internalType":"address"},{"name":"value","type":"uint256","indexed":false,"internalType":"uint256"}],"anonymous":false},{"type":"event","name":"EIP712DomainChanged","inputs":[],"anonymous":false},{"type":"event","name":"OwnershipTransferred","inputs":[{"name":"previousOwner","type":"address","indexed":true,"internalType":"address"},{"name":"newOwner","type":"address","indexed":true,"internalType":"address"}],"anonymous":false},{"type":"event","name":"RoleAdminChanged","inputs":[{"name":"role","type":"bytes32","indexed":true,"internalType":"bytes32"},{"name":"previousAdminRole","type":"bytes32","indexed":true,"internalType":"bytes32"},{"name":"newAdminRole","type":"bytes32","indexed":true,"internalType":"bytes32"}],"anonymous":false},{"type":"event","name":"RoleGranted","inputs":[{"name":"role","type":"bytes32","indexed":true,"internalType":"bytes32"},{"name":"account","type":"address","indexed":true,"internalType":"address"},{"name":"sender","type":"address","indexed":true,"internalType":"address"}],"anonymous":false},{"type":"event","name":"RoleRevoked","inputs":[{"name":"role","type":"bytes32","indexed":true,"internalType":"bytes32"},{"name":"account","type":"address","indexed":true,"internalType":"address"},{"name":"sender","type":"address","indexed":true,"internalType":"address"}],"anonymous":false},{"type":"event","name":"Transfer","inputs":[{"name":"from","type":"address","indexed":true,"internalType":"address"},{"name":"to","type":"address","indexed":true,"internalType":"address"},{"name":"value","type":"uint256","indexed":false,"internalType":"uint256"}],"anonymous":false},{"type":"error","name":"AccessControlBadConfirmation","inputs":[]},{"type":"error","name":"AccessControlUnauthorizedAccount","inputs":[{"name":"account","type":"address","internalType":"address"},{"name":"neededRole","type":"bytes32","internalType":"bytes32"}]},{"type":"error","name":"BalanceExceedsLimit","inputs":[{"name":"account","type":"address","internalType":"address"},{"name":"currentBalance","type":"uint256","internalType":"uint256"},{"name":"addedAmount","type":"uint256","internalType":"uint256"}]},{"type":"error","name":"ECDSAInvalidSignature","inputs":[]},{"type":"error","name":"ECDSAInvalidSignatureLength","inputs":[{"name":"length","type":"uint256","internalType":"uint256"}]},{"type":"error","name":"ECDSAInvalidSignatureS","inputs":[{"name":"s","type":"bytes32","internalType":"bytes32"}]},{"type":"error","name":"ERC20InsufficientAllowance","inputs":[{"name":"spender","type":"address","internalType":"address"},{"name":"allowance","type":"uint256","internalType":"uint256"},{"name":"needed","type":"uint256","internalType":"uint256"}]},{"type":"error","name":"ERC20InsufficientBalance","inputs":[{"name":"sender","type":"address","internalType":"address"},{"name":"balance","type":"uint256","internalType":"uint256"},{"name":"needed","type":"uint256","internalType":"uint256"}]},{"type":"error","name":"ERC20InvalidApprover","inputs":[{"name":"approver","type":"address","internalType":"address"}]},{"type":"error","name":"ERC20InvalidReceiver","inputs":[{"name":"receiver","type":"address","internalType":"address"}]},{"type":"error","name":"ERC20InvalidSender","inputs":[{"name":"sender","type":"address","internalType":"address"}]},{"type":"error","name":"ERC20InvalidSpender","inputs":[{"name":"spender","type":"address","internalType":"address"}]},{"type":"error","name":"ERC2612ExpiredSignature","inputs":[{"name":"deadline","type":"uint256","internalType":"uint256"}]},{"type":"error","name":"ERC2612InvalidSigner","inputs":[{"name":"signer","type":"address","internalType":"address"},{"name":"owner","type":"address","internalType":"address"}]},{"type":"error","name":"InvalidAccountNonce","inputs":[{"name":"account","type":"address","internalType":"address"},{"name":"currentNonce","type":"uint256","internalType":"uint256"}]},{"type":"error","name":"InvalidShortString","inputs":[]},{"type":"error","name":"OwnableInvalidOwner","inputs":[{"name":"owner","type":"address","internalType":"address"}]},{"type":"error","name":"OwnableUnauthorizedAccount","inputs":[{"name":"account","type":"address","internalType":"address"}]},{"type":"error","name":"StringTooLong","inputs":[{"name":"str","type":"string","internalType":"string"}]},{"type":"error","name":"UnauthorizedTransfer","inputs":[]}],"bytecode":{"object":"0x61016080604052346104cb5760208161223c803803809161002082856104cf565b8339810103126104cb57516001600160a01b038116908181036104cb5760405161004b6040826104cf565b600981526020810168486974506f696e747360b81b8152604051906100716040836104cf565b6009825268486974506f696e747360b81b6020830152604051926100966040856104cf565b6002845261048560f41b6020850152604051936100b46040866104cf565b60018552603160f81b60208601908152845190946001600160401b0382116103ce5760035490600182811c921680156104c1575b60208310146103b05781601f849311610453575b50602090601f83116001146103ed575f926103e2575b50508160011b915f199060031b1c1916176003555b8051906001600160401b0382116103ce5760045490600182811c921680156103c4575b60208310146103b05781601f849311610342575b50602090601f83116001146102dc575f926102d1575b50508160011b915f199060031b1c1916176004555b61019281610623565b6101205261019f846107aa565b61014052519020918260e05251902080610100524660a0526040519060208201927f8b73c3c69bb8fe3d512ecc4cf759cc79239f7b179b0ffacaa9a75d522b39400f8452604083015260608201524660808201523060a082015260a0815261020860c0826104cf565b5190206080523060c05281156102be57600980546001600160a01b03198116841790915561026392906001600160a01b03167f8be0079c531659141344cd1fd0a4f28419497f9722a3daafe3b4186f6b6457e05f80a36104f2565b5061026c610568565b506040516118f990816108e382396080518161127a015260a05181611337015260c05181611244015260e051816112c9015261010051816112ef0152610120518161060c015261014051816106350152f35b631e4fbdf760e01b5f525f60045260245ffd5b015190505f80610174565b60045f9081528281209350601f198516905b81811061032a5750908460019594939210610312575b505050811b01600455610189565b01515f1960f88460031b161c191690555f8080610304565b929360206001819287860151815501950193016102ee565b60045f529091507f8a35acfbc15ff81a39ae7d344fd709f28e8600b4aa8c65c6b64bfe7fe36bd19b601f840160051c810191602085106103a6575b90601f859493920160051c01905b818110610398575061015e565b5f815584935060010161038b565b909150819061037d565b634e487b7160e01b5f52602260045260245ffd5b91607f169161014a565b634e487b7160e01b5f52604160045260245ffd5b015190505f80610112565b60035f9081528281209350601f198516905b81811061043b5750908460019594939210610423575b505050811b01600355610127565b01515f1960f88460031b161c191690555f8080610415565b929360206001819287860151815501950193016103ff565b60035f529091507fc2575a0e9e593c00f959f8c92f12db2869c3395a3b0502d05e2516446f71f85b601f840160051c810191602085106104b7575b90601f859493920160051c01905b8181106104a957506100fc565b5f815584935060010161049c565b909150819061048e565b91607f16916100e8565b5f80fd5b601f909101601f19168101906001600160401b038211908210176103ce57604052565b6001600160a01b0381165f9081525f8051602061221c833981519152602052604090205460ff16610563576001600160a01b03165f8181525f8051602061221c83398151915260205260408120805460ff191660011790553391905f805160206121dc8339815191528180a4600190565b505f90565b5f80525f805160206121fc8339815191526020527f01be3e6f97001cf116ea8f5cec42d044a10e897cbd383685b72e0237d0cef4bf5460ff1661061f575f8080525f805160206121fc8339815191526020527f01be3e6f97001cf116ea8f5cec42d044a10e897cbd383685b72e0237d0cef4bf805460ff1916600117905533907f1c64e5e5a710fb0608449c7cd933acf9cf88b08f7bfa074e5c97e006d88247125f805160206121dc8339815191528280a4600190565b5f90565b908151602081105f1461069d575090601f81511161065d57602081519101516020821061064e571790565b5f198260200360031b1b161790565b604460209160405192839163305a27a960e01b83528160048401528051918291826024860152018484015e5f828201840152601f01601f19168101030190fd5b6001600160401b0381116103ce57600554600181811c911680156107a0575b60208210146103b057601f811161076d575b50602092601f821160011461070c57928192935f92610701575b50508160011b915f199060031b1c19161760055560ff90565b015190505f806106e8565b601f1982169360055f52805f20915f5b868110610755575083600195961061073d575b505050811b0160055560ff90565b01515f1960f88460031b161c191690555f808061072f565b9192602060018192868501518155019401920161071c565b60055f52601f60205f20910160051c810190601f830160051c015b81811061079557506106ce565b5f8155600101610788565b90607f16906106bc565b908151602081105f146107d5575090601f81511161065d57602081519101516020821061064e571790565b6001600160401b0381116103ce57600654600181811c911680156108d8575b60208210146103b057601f81116108a5575b50602092601f821160011461084457928192935f92610839575b50508160011b915f199060031b1c19161760065560ff90565b015190505f80610820565b601f1982169360065f52805f20915f5b86811061088d5750836001959610610875575b505050811b0160065560ff90565b01515f1960f88460031b161c191690555f8080610867565b91926020600181928685015181550194019201610854565b60065f52601f60205f20910160051c810190601f830160051c015b8181106108cd5750610806565b5f81556001016108c0565b90607f16906107f456fe6080806040526004361015610012575f80fd5b5f3560e01c90816301ffc9a714610c8a5750806306fdde0314610be5578063095ea7b314610bbf57806318160ddd14610ba257806323b872dd14610b6a578063248a9ca314610b3f5780632738cf0814610b165780632f2ff15d14610ad8578063313ce56714610abd5780633644e51514610a9b57806336568abe14610a575780633dd1eb6114610a2e57806340c10f191461085357806342966c681461083657806369e2f0fb1461080d57806370a08231146107d6578063715018a61461077b578063732076d31461075457806379cc6790146107245780637ecebe00146106ec57806384b0196e146105f45780638da5cb5b146105cc57806391d148541461058357806395d89b41146104a1578063a217fddf14610487578063a9059cbb14610456578063b8f3c3071461042d578063d505accf146102ea578063d547741f146102a5578063dd62ed3e14610255578063f2fde38b146101a75763fe6d81241461017c575f80fd5b346101a3575f3660031901126101a35760206040515f8051602061182d8339815191528152f35b5f80fd5b346101a35760203660031901126101a3576101c0610d01565b6101c8610ff1565b6009546101dd906001600160a01b0316611459565b506101e78161111d565b506101f0610ff1565b6001600160a01b0316801561024257600980546001600160a01b0319811683179091556001600160a01b03167f8be0079c531659141344cd1fd0a4f28419497f9722a3daafe3b4186f6b6457e05f80a3005b631e4fbdf760e01b5f525f60045260245ffd5b346101a35760403660031901126101a35761026e610d01565b610276610d17565b6001600160a01b039182165f908152600160209081526040808320949093168252928352819020549051908152f35b346101a35760403660031901126101a3576102e86004356102c4610d17565b906102e36102de825f526008602052600160405f20015490565b611207565b6114c8565b005b346101a35760e03660031901126101a357610303610d01565b61030b610d17565b604435906064359260843560ff811681036101a35784421161041a576103df6103e89160018060a01b03841696875f52600760205260405f20908154916001830190556040519060208201927f6e71edae12b1b97f4d1f60370fef10105fa2faae0126114a169c64845d6126c984528a604084015260018060a01b038916606084015289608084015260a083015260c082015260c081526103ad60e082610de6565b5190206103b8611241565b906040519161190160f01b83526002830152602282015260c43591604260a43592206116f5565b90929192611778565b6001600160a01b031684810361040357506102e893506115f8565b84906325c0072360e11b5f5260045260245260445ffd5b8463313c898160e11b5f5260045260245ffd5b346101a35760203660031901126101a3576102e8610449610d01565b610451610ff1565b6113db565b346101a35760403660031901126101a35761047c610472610d01565b6024359033610eef565b602060405160018152f35b346101a3575f3660031901126101a35760206040515f8152f35b346101a3575f3660031901126101a3576040515f6004546104c181610d2d565b808452906001811690811561055f5750600114610501575b6104fd836104e981850382610de6565b604051918291602083526020830190610cdd565b0390f35b60045f9081527f8a35acfbc15ff81a39ae7d344fd709f28e8600b4aa8c65c6b64bfe7fe36bd19b939250905b808210610545575090915081016020016104e96104d9565b91926001816020925483858801015201910190929161052d565b60ff191660208086019190915291151560051b840190910191506104e990506104d9565b346101a35760403660031901126101a35761059c610d17565b6004355f52600860205260405f209060018060a01b03165f52602052602060ff60405f2054166040519015158152f35b346101a3575f3660031901126101a3576009546040516001600160a01b039091168152602090f35b346101a3575f3660031901126101a3576106906106307f000000000000000000000000000000000000000000000000000000000000000061165b565b6106597f00000000000000000000000000000000000000000000000000000000000000006116be565b602061069e6040519261066c8385610de6565b5f84525f368137604051958695600f60f81b875260e08588015260e0870190610cdd565b908582036040870152610cdd565b4660608501523060808501525f60a085015283810360c08501528180845192838152019301915f5b8281106106d557505050500390f35b8351855286955093810193928101926001016106c6565b346101a35760203660031901126101a3576001600160a01b0361070d610d01565b165f526007602052602060405f2054604051908152f35b346101a35760403660031901126101a3576102e8610740610d01565b6024359061074f823383610e29565b611539565b346101a3575f3660031901126101a35760206040515f805160206118cd8339815191528152f35b346101a3575f3660031901126101a357610793610ff1565b600980546001600160a01b031981169091555f906001600160a01b03167f8be0079c531659141344cd1fd0a4f28419497f9722a3daafe3b4186f6b6457e08280a3005b346101a35760203660031901126101a3576001600160a01b036107f7610d01565b165f525f602052602060405f2054604051908152f35b346101a35760203660031901126101a3576102e8610829610d01565b610831610ff1565b61135d565b346101a35760203660031901126101a3576102e860043533611539565b346101a35760403660031901126101a35761086c610d01565b335f9081525f8051602061180d8339815191526020526040902054602435919060ff1615610a0a5760018060a01b0316805f525f6020526001600160601b036108b98360405f2054610e1c565b116109e55780156109d2575f80525f8051602061184d8339815191526020527f01be3e6f97001cf116ea8f5cec42d044a10e897cbd383685b72e0237d0cef4bf5460ff1615806109ae575b61099f5761091482600254610e1c565b600255805f525f60205260405f20828154019055805f5f8051602061188d8339815191526020604051868152a3805f525f6020526001600160601b0360405f20541161095c57005b805f525f60205260405f20549082820391821161098b5763538fd55b60e11b5f5260045260245260445260645ffd5b634e487b7160e01b5f52601160045260245ffd5b6325cdf54f60e21b5f5260045ffd5b505f8181525f8051602061184d833981519152602052604090205460ff1615610904565b63ec442f0560e01b5f525f60045260245ffd5b805f525f60205260405f20549063538fd55b60e11b5f5260045260245260445260645ffd5b63e2517d3f60e01b5f52336004525f8051602061182d83398151915260245260445ffd5b346101a35760203660031901126101a3576102e8610a4a610d01565b610a52610ff1565b61109d565b346101a35760403660031901126101a357610a70610d17565b336001600160a01b03821603610a8c576102e8906004356114c8565b63334bd91960e11b5f5260045ffd5b346101a3575f3660031901126101a3576020610ab5611241565b604051908152f35b346101a3575f3660031901126101a357602060405160128152f35b346101a35760403660031901126101a3576102e8600435610af7610d17565b90610b116102de825f526008602052600160405f20015490565b61118e565b346101a35760203660031901126101a3576102e8610b32610d01565b610b3a610ff1565b611018565b346101a35760203660031901126101a3576020610ab56004355f526008602052600160405f20015490565b346101a35760603660031901126101a35761047c610b86610d01565b610b8e610d17565b60443591610b9d833383610e29565b610eef565b346101a3575f3660031901126101a3576020600254604051908152f35b346101a35760403660031901126101a35761047c610bdb610d01565b60243590336115f8565b346101a3575f3660031901126101a3576040515f600354610c0581610d2d565b808452906001811690811561055f5750600114610c2c576104fd836104e981850382610de6565b60035f9081527fc2575a0e9e593c00f959f8c92f12db2869c3395a3b0502d05e2516446f71f85b939250905b808210610c70575090915081016020016104e96104d9565b919260018160209254838588010152019101909291610c58565b346101a35760203660031901126101a3576004359063ffffffff60e01b82168092036101a357602091637965db0b60e01b8114908115610ccc575b5015158152f35b6301ffc9a760e01b14905083610cc5565b805180835260209291819084018484015e5f828201840152601f01601f1916010190565b600435906001600160a01b03821682036101a357565b602435906001600160a01b03821682036101a357565b90600182811c92168015610d5b575b6020831014610d4757565b634e487b7160e01b5f52602260045260245ffd5b91607f1691610d3c565b5f9291815491610d7483610d2d565b8083529260018116908115610dc95750600114610d9057505050565b5f9081526020812093945091925b838310610daf575060209250010190565b600181602092949394548385870101520191019190610d9e565b915050602093945060ff929192191683830152151560051b010190565b90601f8019910116810190811067ffffffffffffffff821117610e0857604052565b634e487b7160e01b5f52604160045260245ffd5b9190820180921161098b57565b6001600160a01b039081165f8181526001602081815260408084209587168452949052929020549392918401610e60575b50505050565b828410610ecc578015610eb9576001600160a01b03821615610ea6575f52600160205260405f209060018060a01b03165f5260205260405f20910390555f808080610e5a565b634a1406b160e11b5f525f60045260245ffd5b63e602df0560e01b5f525f60045260245ffd5b508290637dc7a0d960e11b5f5260018060a01b031660045260245260445260645ffd5b6001600160a01b0316908115610fde576001600160a01b03169081156109d2575f8181525f8051602061184d833981519152602052604090205460ff161580610fba575b61099f57805f525f60205260405f2054838110610fa05790838392825f525f6020520360405f2055815f525f60205260405f208481540190555f8051602061188d8339815191526020604051868152a3805f525f6020526001600160601b0360405f20541161095c575050565b915063391434e360e21b5f5260045260245260445260645ffd5b505f8281525f8051602061184d833981519152602052604090205460ff1615610f33565b634b637e8f60e11b5f525f60045260245ffd5b6009546001600160a01b0316330361100557565b63118cdaa760e01b5f523360045260245ffd5b6001600160a01b0381165f9081525f8051602061184d833981519152602052604090205460ff16611098576001600160a01b03165f8181525f8051602061184d83398151915260205260408120805460ff191660011790553391905f805160206118cd833981519152905f805160206117ed8339815191529080a4600190565b505f90565b6001600160a01b0381165f9081525f8051602061180d833981519152602052604090205460ff16611098576001600160a01b03165f8181525f8051602061180d83398151915260205260408120805460ff191660011790553391905f8051602061182d833981519152905f805160206117ed8339815191529080a4600190565b6001600160a01b0381165f9081525f8051602061186d833981519152602052604090205460ff16611098576001600160a01b03165f8181525f8051602061186d83398151915260205260408120805460ff191660011790553391905f805160206117ed8339815191528180a4600190565b5f8181526008602090815260408083206001600160a01b038616845290915290205460ff16611201575f8181526008602090815260408083206001600160a01b0395909516808452949091528120805460ff19166001179055339291905f805160206117ed8339815191529080a4600190565b50505f90565b5f81815260086020908152604080832033845290915290205460ff161561122b5750565b63e2517d3f60e01b5f523360045260245260445ffd5b307f00000000000000000000000000000000000000000000000000000000000000006001600160a01b03161480611334575b1561129c577f000000000000000000000000000000000000000000000000000000000000000090565b60405160208101907f8b73c3c69bb8fe3d512ecc4cf759cc79239f7b179b0ffacaa9a75d522b39400f82527f000000000000000000000000000000000000000000000000000000000000000060408201527f000000000000000000000000000000000000000000000000000000000000000060608201524660808201523060a082015260a0815261132e60c082610de6565b51902090565b507f00000000000000000000000000000000000000000000000000000000000000004614611273565b6001600160a01b0381165f9081525f8051602061180d833981519152602052604090205460ff1615611098576001600160a01b03165f8181525f8051602061180d83398151915260205260408120805460ff191690553391905f8051602061182d833981519152905f805160206118ad8339815191529080a4600190565b6001600160a01b0381165f9081525f8051602061184d833981519152602052604090205460ff1615611098576001600160a01b03165f8181525f8051602061184d83398151915260205260408120805460ff191690553391905f805160206118cd833981519152905f805160206118ad8339815191529080a4600190565b6001600160a01b0381165f9081525f8051602061186d833981519152602052604090205460ff1615611098576001600160a01b03165f8181525f8051602061186d83398151915260205260408120805460ff191690553391905f805160206118ad8339815191528180a4600190565b5f8181526008602090815260408083206001600160a01b038616845290915290205460ff1615611201575f8181526008602090815260408083206001600160a01b0395909516808452949091528120805460ff19169055339291905f805160206118ad8339815191529080a4600190565b9091906001600160a01b03168015610fde575f8181525f8051602061184d833981519152602052604090205460ff1615806115b8575b61099f57805f525f60205260405f2054838110610fa0576020845f94955f8051602061188d833981519152938587528684520360408620558060025403600255604051908152a3565b505f80525f8051602061184d8339815191526020527f01be3e6f97001cf116ea8f5cec42d044a10e897cbd383685b72e0237d0cef4bf5460ff161561156f565b6001600160a01b0316908115610eb9576001600160a01b0316918215610ea65760207f8c5be1e5ebec7d5bd14f71427d1e84f3dd0314c0f7b2291e5b200ac8c7c3b92591835f526001825260405f20855f5282528060405f2055604051908152a3565b60ff81146116a15760ff811690601f8211611692576040519161167f604084610de6565b6020808452838101919036833783525290565b632cd44ac360e21b5f5260045ffd5b506040516116bb816116b4816005610d65565b0382610de6565b90565b60ff81146116e25760ff811690601f8211611692576040519161167f604084610de6565b506040516116bb816116b4816006610d65565b91906fa2a8918ca85bafe22016d0b997e4df60600160ff1b03841161176d579160209360809260ff5f9560405194855216868401526040830152606082015282805260015afa15611762575f516001600160a01b0381161561175857905f905f90565b505f906001905f90565b6040513d5f823e3d90fd5b5050505f9160039190565b60048110156117d8578061178a575050565b600181036117a15763f645eedf60e01b5f5260045ffd5b600281036117bc575063fce698f760e01b5f5260045260245ffd5b6003146117c65750565b6335e2f38360e21b5f5260045260245ffd5b634e487b7160e01b5f52602160045260245ffdfe2f8788117e7eff1d82e926ec794901d17c78024a50270940304540a733656f0dba682078eba37bca8662ade60eacd8e3fb6b879f4ad882618e7fd467572c020af0887ba65ee2024ea881d91b74c2450ef19e1557f03bed3ea9f16b037cbe2dc99f27e1ced449d0391672dfd8b33c5ac9642366ee4163605233bae574eb26e48c5eff886ea0ce6ca488a3d6e336d6c0f75f46d19b42c06ce5ee98e42c96d256c7ddf252ad1be2c89b69c2b068fc378daa952ba7f163c4a11628f55a4df523b3eff6391f5c32d9c69d2a47ea670b442974b53935d1edc7fd64eb21e047a839171b1c64e5e5a710fb0608449c7cd933acf9cf88b08f7bfa074e5c97e006d8824712a164736f6c634300081a000a2f8788117e7eff1d82e926ec794901d17c78024a50270940304540a733656f0d9f27e1ced449d0391672dfd8b33c5ac9642366ee4163605233bae574eb26e48c5eff886ea0ce6ca488a3d6e336d6c0f75f46d19b42c06ce5ee98e42c96d256c7","linkReferences":{}},"methodIdentifiers":{"AUTHORIZED_TRANSFER()":"732076d3","DEFAULT_ADMIN_ROLE()":"a217fddf","DOMAIN_SEPARATOR()":"3644e515","MINTER()":"fe6d8124","allowance(address,address)":"dd62ed3e","approve(address,uint256)":"095ea7b3","balanceOf(address)":"70a08231","burn(uint256)":"42966c68","burnFrom(address,uint256)":"79cc6790","decimals()":"313ce567","eip712Domain()":"84b0196e","getRoleAdmin(bytes32)":"248a9ca3","grantAuthorizedTransferRole(address)":"2738cf08","grantMinterRole(address)":"3dd1eb61","grantRole(bytes32,address)":"2f2ff15d","hasRole(bytes32,address)":"91d14854","mint(address,uint256)":"40c10f19","name()":"06fdde03","nonces(address)":"7ecebe00","owner()":"8da5cb5b","permit(address,address,uint256,uint256,uint8,bytes32,bytes32)":"d505accf","renounceOwnership()":"715018a6","renounceRole(bytes32,address)":"36568abe","revokeAuthorizedTransferRole(address)":"b8f3c307","revokeMinterRole(address)":"69e2f0fb","revokeRole(bytes32,address)":"d547741f","supportsInterface(bytes4)":"01ffc9a7","symbol()":"95d89b41","totalSupply()":"18160ddd","transfer(address,uint256)":"a9059cbb","transferFrom(address,address,uint256)":"23b872dd","transferOwnership(address)":"f2fde38b"},"storageLayout":{"storage":[{"astId":63896,"contract":"contracts/src/HitPoints.sol:HitPoints","label":"_balances","offset":0,"slot":"0","type":"t_mapping(t_address,t_uint256)"},{"astId":63902,"contract":"contracts/src/HitPoints.sol:HitPoints","label":"_allowances","offset":0,"slot":"1","type":"t_mapping(t_address,t_mapping(t_address,t_uint256))"},{"astId":63904,"contract":"contracts/src/HitPoints.sol:HitPoints","label":"_totalSupply","offset":0,"slot":"2","type":"t_uint256"},{"astId":63906,"contract":"contracts/src/HitPoints.sol:HitPoints","label":"_name","offset":0,"slot":"3","type":"t_string_storage"},{"astId":63908,"contract":"contracts/src/HitPoints.sol:HitPoints","label":"_symbol","offset":0,"slot":"4","type":"t_string_storage"},{"astId":66453,"contract":"contracts/src/HitPoints.sol:HitPoints","label":"_nameFallback","offset":0,"slot":"5","type":"t_string_storage"},{"astId":66455,"contract":"contracts/src/HitPoints.sol:HitPoints","label":"_versionFallback","offset":0,"slot":"6","type":"t_string_storage"},{"astId":65315,"contract":"contracts/src/HitPoints.sol:HitPoints","label":"_nonces","offset":0,"slot":"7","type":"t_mapping(t_address,t_uint256)"},{"astId":62378,"contract":"contracts/src/HitPoints.sol:HitPoints","label":"_roles","offset":0,"slot":"8","type":"t_mapping(t_bytes32,t_struct(RoleData)62373_storage)"},{"astId":62739,"contract":"contracts/src/HitPoints.sol:HitPoints","label":"_owner","offset":0,"slot":"9","type":"t_address"}],"types":{"t_address":{"encoding":"inplace","label":"address","numberOfBytes":"20"},"t_bool":{"encoding":"inplace","label":"bool","numberOfBytes":"1"},"t_bytes32":{"encoding":"inplace","label":"bytes32","numberOfBytes":"32"},"t_mapping(t_address,t_bool)":{"encoding":"mapping","key":"t_address","label":"mapping(address => bool)","numberOfBytes":"32","value":"t_bool"},"t_mapping(t_address,t_mapping(t_address,t_uint256))":{"encoding":"mapping","key":"t_address","label":"mapping(address => mapping(address => uint256))","numberOfBytes":"32","value":"t_mapping(t_address,t_uint256)"},"t_mapping(t_address,t_uint256)":{"encoding":"mapping","key":"t_address","label":"mapping(address => uint256)","numberOfBytes":"32","value":"t_uint256"},"t_mapping(t_bytes32,t_struct(RoleData)62373_storage)":{"encoding":"mapping","key":"t_bytes32","label":"mapping(bytes32 => struct AccessControl.RoleData)","numberOfBytes":"32","value":"t_struct(RoleData)62373_storage"},"t_string_storage":{"encoding":"bytes","label":"string","numberOfBytes":"32"},"t_struct(RoleData)62373_storage":{"encoding":"inplace","label":"struct AccessControl.RoleData","numberOfBytes":"64","members":[{"astId":62370,"contract":"contracts/src/HitPoints.sol:HitPoints","label":"hasRole","offset":0,"slot":"0","type":"t_mapping(t_address,t_bool)"},{"astId":62372,"contract":"contracts/src/HitPoints.sol:HitPoints","label":"adminRole","offset":0,"slot":"1","type":"t_bytes32"}]},"t_uint256":{"encoding":"inplace","label":"uint256","numberOfBytes":"32"}}},"id":5}