{"abi":[{"type":"constructor","inputs":[{"name":"selector","type":"bytes4","internalType":"bytes4"}],"stateMutability":"nonpayable"},{"type":"function","name":"SELECTOR","inputs":[],"outputs":[{"name":"","type":"bytes4","internalType":"bytes4"}],"stateMutability":"view"},{"type":"function","name":"mockProve","inputs":[{"name":"claimDigest","type":"bytes32","internalType":"bytes32"}],"outputs":[{"name":"","type":"tuple","internalType":"struct Receipt","components":[{"name":"seal","type":"bytes","internalType":"bytes"},{"name":"claimDigest","type":"bytes32","internalType":"bytes32"}]}],"stateMutability":"view"},{"type":"function","name":"mockProve","inputs":[{"name":"imageId","type":"bytes32","internalType":"bytes32"},{"name":"journalDigest","type":"bytes32","internalType":"bytes32"}],"outputs":[{"name":"","type":"tuple","internalType":"struct Receipt","components":[{"name":"seal","type":"bytes","internalType":"bytes"},{"name":"claimDigest","type":"bytes32","internalType":"bytes32"}]}],"stateMutability":"view"},{"type":"function","name":"verify","inputs":[{"name":"seal","type":"bytes","internalType":"bytes"},{"name":"imageId","type":"bytes32","internalType":"bytes32"},{"name":"journalDigest","type":"bytes32","internalType":"bytes32"}],"outputs":[],"stateMutability":"view"},{"type":"function","name":"verifyIntegrity","inputs":[{"name":"receipt","type":"tuple","internalType":"struct Receipt","components":[{"name":"seal","type":"bytes","internalType":"bytes"},{"name":"claimDigest","type":"bytes32","internalType":"bytes32"}]}],"outputs":[],"stateMutability":"view"},{"type":"error","name":"SelectorMismatch","inputs":[{"name":"received","type":"bytes4","internalType":"bytes4"},{"name":"expected","type":"bytes4","internalType":"bytes4"}]},{"type":"error","name":"VerificationFailed","inputs":[]}],"bytecode":{"object":"0x60a034607557601f61089e38819003918201601f19168301916001600160401b03831184841017607957808492602094604052833981010312607557516001600160e01b031981168103607557608052604051610810908161008e82396080518181816101f80152818161036401526104050152f35b5f80fd5b634e487b7160e01b5f52604160045260245ffdfe6080806040526004361015610012575f80fd5b5f3560e01c908163053c238d146101c2575080631599ead51461012f5780633a115bb11461011057806366cf0e4b146100ca5763ab750e7514610053575f80fd5b346100c65760606003193601126100c65760043567ffffffffffffffff81116100c657366023820112156100c65780600401359067ffffffffffffffff82116100c65736602483830101116100c6576100c49160246100bd6100b86044358335610519565b610679565b92016103b5565b005b5f80fd5b346100c65760406003193601126100c6576100e361031b565b5061010c6101006100fb6100b8602435600435610519565b610334565b6040519182918261021c565b0390f35b346100c65760206003193601126100c65761010c610100600435610334565b346100c65760206003193601126100c65760043567ffffffffffffffff81116100c65780360360406003198201126100c6577fffffffffffffffffffffffffffffffffffffffffffffffffffffffffffffffdd826004013591018112156100c657810160048101359067ffffffffffffffff82116100c6576024019080360382136100c65760246100c4930135916103b5565b346100c6575f6003193601126100c6576020907fffffffff000000000000000000000000000000000000000000000000000000007f0000000000000000000000000000000000000000000000000000000000000000168152f35b7fffffffffffffffffffffffffffffffffffffffffffffffffffffffffffffffe0601f602080608095818652805160408388015280519384918260608a0152018888015e5f878488010152015160408501520116010190565b6040810190811067ffffffffffffffff82111761029157604052565b7f4e487b71000000000000000000000000000000000000000000000000000000005f52604160045260245ffd5b60a0810190811067ffffffffffffffff82111761029157604052565b90601f7fffffffffffffffffffffffffffffffffffffffffffffffffffffffffffffffe0910116810190811067ffffffffffffffff82111761029157604052565b6040519061032882610275565b5f602083606081520152565b61033c61031b565b50604051907fffffffff000000000000000000000000000000000000000000000000000000007f00000000000000000000000000000000000000000000000000000000000000001660208301528060248301526024825261039e6044836102da565b604051916103ab83610275565b8252602082015290565b81600411806100c6577fffffffff000000000000000000000000000000000000000000000000000000008235167fffffffff000000000000000000000000000000000000000000000000000000007f000000000000000000000000000000000000000000000000000000000000000016908082036104eb5750506100c657600319820167ffffffffffffffff8111610291576040519161047d60207fffffffffffffffffffffffffffffffffffffffffffffffffffffffffffffffe0601b87011601846102da565b818352602083019336818301116100c6575f926004601c93018637830101525190209060405160208101918252602081526104b96040826102da565b519020036104c357565b7f439cc0cd000000000000000000000000000000000000000000000000000000005f5260045ffd5b7fb8b38d4c000000000000000000000000000000000000000000000000000000005f5260045260245260445ffd5b905f6080604051610529816102be565b82815282602082015260405161053e81610275565b838152836020820152604082015282606082015201526040519061056182610275565b5f82525f60208301526040519061057782610275565b8152602081015f815260205f600c6040517f72697363302e4f75747075740000000000000000000000000000000000000000815260025afa1561066e576020915f9182519151905160405191858301938452604083015260608201527f02000000000000000000000000000000000000000000000000000000000000006080820152606281526106086082826102da565b604051918291518091835e8101838152039060025afa1561066e575f519060405192610633846102be565b83527fa3acc27117418996340b84e5a90f3ef4c49d22c79e44aad822ec9c313e1eb8e2602084015260408301525f6060830152608082015290565b6040513d5f823e3d90fd5b60205f60126040517f72697363302e52656365697074436c61696d0000000000000000000000000000815260025afa1561066e575f5190606081015191815192602083015193604060808501519401938451519160038310156107ad577fffffffff000000000000000000000000000000000000000000000000000000007fff000000000000000000000000000000000000000000000000000000000000008194819460209a8b5f9b51015195604051998d8b019b8c5260408b015260608a0152608089015260a088015260f81b161660c085015260f81b161660c48201527f040000000000000000000000000000000000000000000000000000000000000060c882015260aa815261078d60ca826102da565b604051918291518091835e8101838152039060025afa1561066e575f5190565b7f4e487b71000000000000000000000000000000000000000000000000000000005f52602160045260245ffdfea2646970667358221220ebd9e633d9f31279c0e57e8bb1e5accd21b7c14383e0e2d064886d42ac0c1ddf64736f6c634300081a0033","linkReferences":{}},"methodIdentifiers":{"SELECTOR()":"053c238d","mockProve(bytes32)":"3a115bb1","mockProve(bytes32,bytes32)":"66cf0e4b","verify(bytes,bytes32,bytes32)":"ab750e75","verifyIntegrity((bytes,bytes32))":"1599ead5"},"storageLayout":{"storage":[],"types":{}},"id":96}