{"abi":[{"type":"constructor","inputs":[{"name":"verifier","type":"address","internalType":"contract IRiscZeroVerifier"},{"name":"imageId","type":"bytes32","internalType":"bytes32"},{"name":"_imageUrl","type":"string","internalType":"string"}],"stateMutability":"nonpayable"},{"type":"function","name":"SELECTOR","inputs":[],"outputs":[{"name":"","type":"bytes4","internalType":"bytes4"}],"stateMutability":"view"},{"type":"function","name":"VERIFIER","inputs":[],"outputs":[{"name":"","type":"address","internalType":"contract IRiscZeroVerifier"}],"stateMutability":"view"},{"type":"function","name":"VERSION","inputs":[],"outputs":[{"name":"","type":"string","internalType":"string"}],"stateMutability":"view"},{"type":"function","name":"containsRoot","inputs":[{"name":"root","type":"bytes32","internalType":"bytes32"}],"outputs":[{"name":"","type":"bool","internalType":"bool"}],"stateMutability":"view"},{"type":"function","name":"imageInfo","inputs":[],"outputs":[{"name":"","type":"bytes32","internalType":"bytes32"},{"name":"","type":"string","internalType":"string"}],"stateMutability":"view"},{"type":"function","name":"submitMerkleRoot","inputs":[{"name":"root","type":"bytes32","internalType":"bytes32"},{"name":"seal","type":"bytes","internalType":"bytes"}],"outputs":[],"stateMutability":"nonpayable"},{"type":"function","name":"verify","inputs":[{"name":"seal","type":"bytes","internalType":"bytes"},{"name":"imageId","type":"bytes32","internalType":"bytes32"},{"name":"journalDigest","type":"bytes32","internalType":"bytes32"}],"outputs":[],"stateMutability":"view"},{"type":"function","name":"verifyIntegrity","inputs":[{"name":"receipt","type":"tuple","internalType":"struct Receipt","components":[{"name":"seal","type":"bytes","internalType":"bytes"},{"name":"claimDigest","type":"bytes32","internalType":"bytes32"}]}],"outputs":[],"stateMutability":"view"},{"type":"event","name":"VerifiedRoot","inputs":[{"name":"root","type":"bytes32","indexed":false,"internalType":"bytes32"}],"anonymous":false},{"type":"error","name":"SelectorMismatch","inputs":[{"name":"received","type":"bytes4","internalType":"bytes4"},{"name":"expected","type":"bytes4","internalType":"bytes4"}]},{"type":"error","name":"VerificationFailed","inputs":[]}],"bytecode":{"object":"0x60e0806040523461030857611113803803809161001c828561030c565b83398101906060818303126103085780516001600160a01b0381168103610308576020820151604083015190926001600160401b038211610308570183601f82011215610308578051906001600160401b0382116102f4576040519461008c601f8401601f19166020018761030c565b8286526020838301011161030857815f9260208093018388015e8501015260805260c081905281516001600160401b0381116102f4575f54600181811c911680156102ea575b60208210146102d657601f8111610274575b50602092601f821160011461021557928192935f9261020a575b50508160011b915f199060031b1c1916175f555b60205f602b6040517f72697363302e536574496e636c7573696f6e526563656970745665726966696581526a72506172616d657465727360a81b8482015260025afa156101ff575f602091815190604051908482019283526040820152600160f81b60608201526042815261018860628261030c565b604051918291518091835e8101838152039060025afa156101ff575f516001600160e01b03191660a052604051610de3908161033082396080518181816105b10152818161083d0152610ae6015260a0518181816108970152610a3e015260c05181818161013b015281816105d30152610b0e0152f35b6040513d5f823e3d90fd5b015190505f806100fe565b601f198216935f8052805f20915f5b86811061025c5750836001959610610244575b505050811b015f55610112565b01515f1960f88460031b161c191690555f8080610237565b91926020600181928685015181550194019201610224565b5f80527f290decd9548b62a8d60345a988386fc84ba6bc95484008f6362f93160ef3e563601f830160051c810191602084106102cc575b601f0160051c01905b8181106102c157506100e4565b5f81556001016102b4565b90915081906102ab565b634e487b7160e01b5f52602260045260245ffd5b90607f16906100d2565b634e487b7160e01b5f52604160045260245ffd5b5f80fd5b601f909101601f19168101906001600160401b038211908210176102f45760405256fe6080806040526004361015610012575f80fd5b5f905f3560e01c908163053c238d146108615750806308c84e70146108115780631599ead51461077c57806348cbdfca1461074d5780636691f64714610564578063ab750e7514610245578063cdc97123146100dd5763ffa1ad7414610076575f80fd5b346100da57806003193601126100da57506100d6604051610098604082610991565b600581527f302e312e3000000000000000000000000000000000000000000000000000000060208201526040519182916020835260208301906108e9565b0390f35b80fd5b50346100da57806003193601126100da5760405190808054908160011c9160018116801561023b575b60208410811461020e578386529081156101c9575060011461016d575b6100d68461013381860382610991565b6040519182917f000000000000000000000000000000000000000000000000000000000000000083526040602084015260408301906108e9565b8080527f290decd9548b62a8d60345a988386fc84ba6bc95484008f6362f93160ef3e563939250905b8082106101af5750909150810160200161013382610123565b919260018160209254838588010152019101909291610196565b7fffffffffffffffffffffffffffffffffffffffffffffffffffffffffffffff001660208087019190915292151560051b850190920192506101339150839050610123565b6024837f4e487b710000000000000000000000000000000000000000000000000000000081526022600452fd5b92607f1692610106565b50346100da5760606003193601126100da5760043567ffffffffffffffff8111610560576102779036906004016108bb565b908260806040516102878161092c565b82815282602082015260405161029c81610975565b838152836020820152604082015282606082015201526040516102be81610975565b8381528360208201526040516102d381610975565b6044358152846020820191818352602082600c6040517f72697363302e4f75747075740000000000000000000000000000000000000000815260025afa156105535760209282519151905160405191858301938452604083015260608201527f0200000000000000000000000000000000000000000000000000000000000000608082015260628152610367608282610991565b604051918291518091835e8101838152039060025afa1561054857835190604051906103928261092c565b602435825260208201907fa3acc27117418996340b84e5a90f3ef4c49d22c79e44aad822ec9c313e1eb8e282526040830190815260608301938785526080840190815260208860126040517f72697363302e52656365697074436c61696d0000000000000000000000000000815260025afa1561053d57875194519351925190519082515192600384101561051057937fffffffff000000000000000000000000000000000000000000000000000000007fff000000000000000000000000000000000000000000000000000000000000008b9795829582956020809c9a51015195604051998d8b019b8c5260408b015260608a0152608089015260a088015260f81b161660c085015260f81b161660c48201527f040000000000000000000000000000000000000000000000000000000000000060c882015260aa81526104db60ca82610991565b604051918291518091835e8101838152039060025afa1561050557610502918351916109d2565b80f35b6040513d84823e3d90fd5b60248a7f4e487b710000000000000000000000000000000000000000000000000000000081526021600452fd5b6040513d89823e3d90fd5b6040513d85823e3d90fd5b50604051903d90823e3d90fd5b5080fd5b50346107495760406003193601126107495760043560243567ffffffffffffffff8111610749576105999036906004016108bb565b9073ffffffffffffffffffffffffffffffffffffffff7f0000000000000000000000000000000000000000000000000000000000000000167f00000000000000000000000000000000000000000000000000000000000000009060205f6040518281019085825288604082015260408152610615606082610991565b604051918291518091835e8101838152039060025afa1561073e575f5193813b156107495760845f947fffffffffffffffffffffffffffffffffffffffffffffffffffffffffffffffe0601f84604051998a98899788967fab750e7500000000000000000000000000000000000000000000000000000000885260606004890152816064890152888801378a87848801015260248601526044850152011681010301915afa801561073e57610728575b506020817fdd00992bb62ed043f2d437a844df0b524ab27e17bc67f8b8caf8bb5836be2959928452600182526040842060017fffffffffffffffffffffffffffffffffffffffffffffffffffffffffffffff00825416179055604051908152a180f35b6107359192505f90610991565b5f9060206106c5565b6040513d5f823e3d90fd5b5f80fd5b34610749576020600319360112610749576004355f526001602052602060ff60405f2054166040519015158152f35b346107495760206003193601126107495760043567ffffffffffffffff8111610749578036036040600319820112610749577fffffffffffffffffffffffffffffffffffffffffffffffffffffffffffffffdd8260040135910181121561074957810160048101359067ffffffffffffffff82116107495760240190803603821361074957602461080f930135916109d2565b005b34610749575f60031936011261074957602060405173ffffffffffffffffffffffffffffffffffffffff7f0000000000000000000000000000000000000000000000000000000000000000168152f35b34610749575f600319360112610749576020907fffffffff000000000000000000000000000000000000000000000000000000007f0000000000000000000000000000000000000000000000000000000000000000168152f35b9181601f840112156107495782359167ffffffffffffffff8311610749576020838186019501011161074957565b907fffffffffffffffffffffffffffffffffffffffffffffffffffffffffffffffe0601f602080948051918291828752018686015e5f8582860101520116010190565b60a0810190811067ffffffffffffffff82111761094857604052565b7f4e487b71000000000000000000000000000000000000000000000000000000005f52604160045260245ffd5b6040810190811067ffffffffffffffff82111761094857604052565b90601f7fffffffffffffffffffffffffffffffffffffffffffffffffffffffffffffffe0910116810190811067ffffffffffffffff82111761094857604052565b929091926040516109e281610975565b6060815260606020820152928060041180610749577fffffffff000000000000000000000000000000000000000000000000000000008335167fffffffff000000000000000000000000000000000000000000000000000000007f00000000000000000000000000000000000000000000000000000000000000001690808203610d7f57505060048211610c1b575b505050815192905f915b8451831015610abd5760208360051b86010151908181105f14610aac575f52602052600160405f205b920191610a7b565b905f52602052600160405f20610aa4565b6020909301805151919450915015610bdc5773ffffffffffffffffffffffffffffffffffffffff7f00000000000000000000000000000000000000000000000000000000000000001690519060205f7f00000000000000000000000000000000000000000000000000000000000000009460405183810191878352604082015260408152610b4c606082610991565b604051918291518091835e8101838152039060025afa1561073e575f5190803b1561074957610bb45f93604051958694859384937fab750e750000000000000000000000000000000000000000000000000000000085526060600486015260648501906108e9565b916024840152604483015203915afa801561073e57610bd05750565b5f610bda91610991565b565b505f52600160205260ff60405f20541615610bf357565b7f439cc0cd000000000000000000000000000000000000000000000000000000005f5260045ffd5b909192935061074957810190602060031982840301126107495760048101359067ffffffffffffffff8211610749570190604060031983830301126107495760405191610c6783610975565b600481013567ffffffffffffffff81116107495760049082010182601f820112156107495780359067ffffffffffffffff8211610948578160051b60405192610cb36020830185610991565b83526020808401918301019185831161074957602001905b828210610d6f575050508352602481013567ffffffffffffffff811161074957600491010181601f820112156107495780359067ffffffffffffffff82116109485760405192610d43601f84017fffffffffffffffffffffffffffffffffffffffffffffffffffffffffffffffe01660200185610991565b8284526020838301011161074957815f92602080930183860137830101526020820152905f8080610a71565b8135815260209182019101610ccb565b7fb8b38d4c000000000000000000000000000000000000000000000000000000005f5260045260245260445ffdfea264697066735822122048fecda2b3b02d859d1e8db62e6250129bafb5c318bcd70edd2d89eaf1f1bcc364736f6c634300081a0033","linkReferences":{}},"methodIdentifiers":{"SELECTOR()":"053c238d","VERIFIER()":"08c84e70","VERSION()":"ffa1ad74","containsRoot(bytes32)":"48cbdfca","imageInfo()":"cdc97123","submitMerkleRoot(bytes32,bytes)":"6691f647","verify(bytes,bytes32,bytes32)":"ab750e75","verifyIntegrity((bytes,bytes32))":"1599ead5"},"storageLayout":{"storage":[{"astId":71970,"contract":"lib/risc0-ethereum/contracts/src/RiscZeroSetVerifier.sol:RiscZeroSetVerifier","label":"imageUrl","offset":0,"slot":"0","type":"t_string_storage"},{"astId":71974,"contract":"lib/risc0-ethereum/contracts/src/RiscZeroSetVerifier.sol:RiscZeroSetVerifier","label":"merkleRoots","offset":0,"slot":"1","type":"t_mapping(t_bytes32,t_bool)"}],"types":{"t_bool":{"encoding":"inplace","label":"bool","numberOfBytes":"1"},"t_bytes32":{"encoding":"inplace","label":"bytes32","numberOfBytes":"32"},"t_mapping(t_bytes32,t_bool)":{"encoding":"mapping","key":"t_bytes32","label":"mapping(bytes32 => bool)","numberOfBytes":"32","value":"t_bool"},"t_string_storage":{"encoding":"bytes","label":"string","numberOfBytes":"32"}}},"id":87}