{"abi":[{"type":"constructor","inputs":[{"name":"verifier","type":"address","internalType":"contract IRiscZeroVerifier"},{"name":"imageId","type":"bytes32","internalType":"bytes32"},{"name":"_imageUrl","type":"string","internalType":"string"}],"stateMutability":"nonpayable"},{"type":"function","name":"SELECTOR","inputs":[],"outputs":[{"name":"","type":"bytes4","internalType":"bytes4"}],"stateMutability":"view"},{"type":"function","name":"VERIFIER","inputs":[],"outputs":[{"name":"","type":"address","internalType":"contract IRiscZeroVerifier"}],"stateMutability":"view"},{"type":"function","name":"VERSION","inputs":[],"outputs":[{"name":"","type":"string","internalType":"string"}],"stateMutability":"view"},{"type":"function","name":"containsRoot","inputs":[{"name":"root","type":"bytes32","internalType":"bytes32"}],"outputs":[{"name":"","type":"bool","internalType":"bool"}],"stateMutability":"view"},{"type":"function","name":"imageInfo","inputs":[],"outputs":[{"name":"","type":"bytes32","internalType":"bytes32"},{"name":"","type":"string","internalType":"string"}],"stateMutability":"view"},{"type":"function","name":"submitMerkleRoot","inputs":[{"name":"root","type":"bytes32","internalType":"bytes32"},{"name":"seal","type":"bytes","internalType":"bytes"}],"outputs":[],"stateMutability":"nonpayable"},{"type":"function","name":"verify","inputs":[{"name":"seal","type":"bytes","internalType":"bytes"},{"name":"imageId","type":"bytes32","internalType":"bytes32"},{"name":"journalDigest","type":"bytes32","internalType":"bytes32"}],"outputs":[],"stateMutability":"view"},{"type":"function","name":"verifyIntegrity","inputs":[{"name":"receipt","type":"tuple","internalType":"struct Receipt","components":[{"name":"seal","type":"bytes","internalType":"bytes"},{"name":"claimDigest","type":"bytes32","internalType":"bytes32"}]}],"outputs":[],"stateMutability":"view"},{"type":"event","name":"VerifiedRoot","inputs":[{"name":"root","type":"bytes32","indexed":true,"internalType":"bytes32"},{"name":"seal","type":"bytes","indexed":false,"internalType":"bytes"}],"anonymous":false},{"type":"error","name":"SelectorMismatch","inputs":[{"name":"received","type":"bytes4","internalType":"bytes4"},{"name":"expected","type":"bytes4","internalType":"bytes4"}]},{"type":"error","name":"VerificationFailed","inputs":[]}],"bytecode":{"object":"0x60e0806040523461030f57610e9c803803809161001c8285610313565b833981019060608183031261030f5780516001600160a01b038116810361030f576020820151604083015190926001600160401b03821161030f570183601f8201121561030f578051906001600160401b0382116102fb576040519461008c601f8401601f191660200187610313565b8286526020838301011161030f57815f9260208093018388015e8501015260805260c081905281516001600160401b0381116102fb575f54600181811c911680156102f1575b60208210146102dd57601f811161027b575b50602092601f821160011461021c57928192935f92610211575b50508160011b915f199060031b1c1916175f555b60205f602b6040517f72697363302e536574496e636c7573696f6e526563656970745665726966696581526a72506172616d657465727360a81b8482015260025afa15610206575f602091815190604051908482019283526040820152600160f81b606082015260428152610188606282610313565b604051918291518091835e8101838152039060025afa15610206575f516001600160e01b03191660a052604051610b6590816103378239608051818181610494015281816106ac01526108ce015260a0518181816106ed0152610829015260c0518181816101280152818161051c0152818161094b0152610b130152f35b6040513d5f823e3d90fd5b015190505f806100fe565b601f198216935f8052805f20915f5b868110610263575083600195961061024b575b505050811b015f55610112565b01515f1960f88460031b161c191690555f808061023e565b9192602060018192868501518155019401920161022b565b5f80527f290decd9548b62a8d60345a988386fc84ba6bc95484008f6362f93160ef3e563601f830160051c810191602084106102d3575b601f0160051c01905b8181106102c857506100e4565b5f81556001016102bb565b90915081906102b2565b634e487b7160e01b5f52602260045260245ffd5b90607f16906100d2565b634e487b7160e01b5f52604160045260245ffd5b5f80fd5b601f909101601f19168101906001600160401b038211908210176102fb5760405256fe6080806040526004361015610012575f80fd5b5f905f3560e01c908163053c238d146106db5750806308c84e70146106975780631599ead51461062257806348cbdfca146105f35780636691f6471461045e578063ab750e75146101de578063cdc97123146100ca5763ffa1ad7414610076575f80fd5b346100c757806003193601126100c757506100c36040516100986040826107b8565b600a815269302e332e302d72632e3160b01b602082015260405191829160208352602083019061074a565b0390f35b80fd5b50346100c757806003193601126100c75760405190808054908160011c916001811680156101d4575b6020841081146101c057838652908115610199575060011461015a575b6100c384610120818603826107b8565b6040519182917f0000000000000000000000000000000000000000000000000000000000000000835260406020840152604083019061074a565b80805260208120939250905b80821061017f5750909150810160200161012082610110565b919260018160209254838588010152019101909291610166565b60ff191660208087019190915292151560051b850190920192506101209150839050610110565b634e487b7160e01b83526022600452602483fd5b92607f16926100f3565b50346100c75760603660031901126100c7576004356001600160401b03811161045a5761020f90369060040161071d565b9082608060405161021f8161076e565b8281528260208201526040516102348161079d565b838152836020820152604082015282606082015201526040516102568161079d565b83815283602082015260405161026b8161079d565b6044358152846020820191818352602082600c6040516b1c9a5cd8cc0b93dd5d1c1d5d60a21b815260025afa1561044d576020928251915190516040519185830193845260408301526060820152600160f91b6080820152606281526102d26082826107b8565b604051918291518091835e8101838152039060025afa1561044257835190604051906102fd8261076e565b602435825260208201907fa3acc27117418996340b84e5a90f3ef4c49d22c79e44aad822ec9c313e1eb8e282526040830190815260608301938785526080840190815260208860126040517172697363302e52656365697074436c61696d60701b815260025afa15610437578751945193519251905190825151926003841015610423575160209081015160408051808401998a52908101979097526060870195909552608086019190915260a08501919091526001600160f81b031960f892831b811660c08601529290911b90911660c4830152600160fa1b60c883015260aa82529185916103ee60ca826107b8565b604051918291518091835e8101838152039060025afa1561041857610415918351916107f9565b80f35b6040513d84823e3d90fd5b634e487b7160e01b8a52602160045260248afd5b6040513d89823e3d90fd5b6040513d85823e3d90fd5b50604051903d90823e3d90fd5b5080fd5b50346105ef5760403660031901126105ef576004356024356001600160401b0381116105ef5761049290369060040161071d565b7f00000000000000000000000000000000000000000000000000000000000000006001600160a01b031660205f816104c987610b0d565b604051918183925191829101835e8101838152039060025afa156105e4575f51813b156105ef575f90604051928380809363ab750e7560e01b82526060600483015261051960648301898b6107d9565b907f00000000000000000000000000000000000000000000000000000000000000006024840152604483015203915afa80156105e4576105ac575b50907fcb874ca5a04ca17d10924a9784b666fb412b518f2394912f61f4ddf614c5de1691838552600160205260408520600160ff198254161790556105a66040519283926020845260208401916107d9565b0390a280f35b7fcb874ca5a04ca17d10924a9784b666fb412b518f2394912f61f4ddf614c5de16929194505f6105db916107b8565b5f939091610554565b6040513d5f823e3d90fd5b5f80fd5b346105ef5760203660031901126105ef576004355f526001602052602060ff60405f2054166040519015158152f35b346105ef5760203660031901126105ef576004356001600160401b0381116105ef5780360360406003198201126105ef57600482013590602219018112156105ef5781016004810135906001600160401b0382116105ef576024019080360382136105ef576024610695930135916107f9565b005b346105ef575f3660031901126105ef576040517f00000000000000000000000000000000000000000000000000000000000000006001600160a01b03168152602090f35b346105ef575f3660031901126105ef577f00000000000000000000000000000000000000000000000000000000000000006001600160e01b0319168152602090f35b9181601f840112156105ef578235916001600160401b0383116105ef57602083818601950101116105ef57565b805180835260209291819084018484015e5f828201840152601f01601f1916010190565b60a081019081106001600160401b0382111761078957604052565b634e487b7160e01b5f52604160045260245ffd5b604081019081106001600160401b0382111761078957604052565b90601f801991011681019081106001600160401b0382111761078957604052565b908060209392818452848401375f828201840152601f01601f1916010190565b929091926040516108098161079d565b60608152606060208201529280600411806105ef576001600160e01b03197f0000000000000000000000000000000000000000000000000000000000000000811690843516808203610af8575050600482116109b7575b505050815192905f915b84518310156108ac5760208360051b86010151908181105f1461089b575f52602052600160405f205b92019161086a565b905f52602052600160405f20610893565b60209093018051519194509150156109915760205f816108f660018060a01b037f000000000000000000000000000000000000000000000000000000000000000016945195610b0d565b604051918183925191829101835e8101838152039060025afa156105e4575f5191813b156105ef575f916109489160405180958194829363ab750e7560e01b845260606004850152606484019061074a565b907f00000000000000000000000000000000000000000000000000000000000000006024840152604483015203915afa80156105e4576109855750565b5f61098f916107b8565b565b505f52600160205260ff60405f205416156109a857565b63439cc0cd60e01b5f5260045ffd5b90919293506105ef57810190602081830360031901126105ef576004810135906001600160401b0382116105ef570190604082820360031901126105ef5760405191610a028361079d565b60048101356001600160401b0381116105ef5760049082010182601f820112156105ef578035906001600160401b038211610789578160051b60405192610a4c60208301856107b8565b8352602080840191830101918583116105ef57602001905b828210610ae857505050835260248101356001600160401b0381116105ef57600491010181601f820112156105ef578035906001600160401b0382116107895760405192610abc601f8401601f1916602001856107b8565b828452602083830101116105ef57815f92602080930183860137830101526020820152905f8080610860565b8135815260209182019101610a64565b632e2ce35360e21b5f5260045260245260445ffd5b604051907f00000000000000000000000000000000000000000000000000000000000000006020830152600160ff1b6040830152606082015260608152610b556080826107b8565b9056fea164736f6c634300081a000a","linkReferences":{}},"methodIdentifiers":{"SELECTOR()":"053c238d","VERIFIER()":"08c84e70","VERSION()":"ffa1ad74","containsRoot(bytes32)":"48cbdfca","imageInfo()":"cdc97123","submitMerkleRoot(bytes32,bytes)":"6691f647","verify(bytes,bytes32,bytes32)":"ab750e75","verifyIntegrity((bytes,bytes32))":"1599ead5"},"storageLayout":{"storage":[{"astId":74666,"contract":"lib/risc0-ethereum/contracts/src/RiscZeroSetVerifier.sol:RiscZeroSetVerifier","label":"imageUrl","offset":0,"slot":"0","type":"t_string_storage"},{"astId":74670,"contract":"lib/risc0-ethereum/contracts/src/RiscZeroSetVerifier.sol:RiscZeroSetVerifier","label":"merkleRoots","offset":0,"slot":"1","type":"t_mapping(t_bytes32,t_bool)"}],"types":{"t_bool":{"encoding":"inplace","label":"bool","numberOfBytes":"1"},"t_bytes32":{"encoding":"inplace","label":"bytes32","numberOfBytes":"32"},"t_mapping(t_bytes32,t_bool)":{"encoding":"mapping","key":"t_bytes32","label":"mapping(bytes32 => bool)","numberOfBytes":"32","value":"t_bool"},"t_string_storage":{"encoding":"bytes","label":"string","numberOfBytes":"32"}}},"id":113}